:020000040800F2
:10000000A8170020210200088B1800089717000885
:100010008918000865040008CD1D000800000000D4
:10002000000000000000000000000000890100083E
:10003000AB04000800000000CD010008A118000872
:100040003B0200083B0200083B0200083B0200089C
:100050003B0200083B0200083B0200083B0200088C
:100060003B0200083B0200083B0200083B0200087C
:100070003B0200083B020008690400087504000800
:100080003B0200083B0200083B0200083B0200085C
:100090003B0200083B0200083B0200083B0200084C
:1000A0003B020008551900083B0200083B0200080B
:1000B0003B0200083B0200083B0200083B0200082C
:1000C0003B0200083B0200083B0200083B0200081C
:1000D0003B020008C11D00083B0200083B0200086B
:1000E0003B0200083B0200083B02000800F002F857
:1000F00000F03AF80AA090E8000C82448344AAF188
:100100000107DA4501D100F02FF8AFF2090EBAE885
:100110000F0013F0010F18BFFB1A43F0010318473B
:100120009C290000BC290000103A24BF78C878C17F
:10013000FAD8520724BF30C830C144BF04680C60ED
:10014000704700000023002400250026103A28BF35
:1001500078C1FBD8520728BF30C148BF0B60704739
:100160001FB51FBD10B510BD00F036F91146FFF7E1
:10017000F7FF01F049FE00F068F903B4FFF7F2FF62
:1001800003BC01F034FE0000224B19680868B0E897
:10019000F00F80F30988BFF36F8F4FF0000080F3FA
:1001A00011884EF00D0E70470000000006480068F0
:1001B000006880F3088862B661B6BFF34F8FBFF363
:1001C0006F8F00DF00BF00BF08ED00E0EFF3098094
:1001D000BFF36F8F0F4B1A6820E9F00F106008B55E
:1001E0004FF0500080F31188BFF34F8FBFF36F8F34
:1001F00002F092FA4FF0000080F31188BDE8084049
:1002000019680868B0E8F00F80F30988BFF36F8FB2
:10021000704700BF20000020EFF30580704700000A
:100220000948804709480047FEE7FEE7FEE7FEE78A
:10023000FEE7FEE7FEE7FEE7FEE7FEE704480549C6
:10024000054A064B704700002B190008ED00000816
:10025000A8110020A8170020A8130020A813002030
:10026000704700000FB4044910B503AA029800F0CB
:1002700085F810BC5DF814FB0C00002010B5203A86
:10028000C0F00B80B1E81850203AA0E81850B1E84F
:100290001850A0E81850BFF4F5AF5FEA027C24BF05
:1002A000B1E81850A0E8185044BF18C918C0BDE8FC
:1002B00010405FEA827C24BF51F8043B40F8043BC5
:1002C00008BF7047D20728BF31F8023B48BF11F87A
:1002D000012B28BF20F8023B48BF00F8012B7047D4
:1002E0004FF000020429C0F0128010F0030C00F05F
:1002F0001B80CCF1040CBCF1020F18BF00F8012BDD
:10030000A8BF20F8022BA1EB0C0100F00DB85FEAAA
:10031000C17C24BF00F8012B00F8012B48BF00F876
:10032000012B70474FF0000200B5134694469646E5
:10033000203922BFA0E80C50A0E80C50B1F12001F8
:10034000BFF4F7AF090728BFA0E80C5048BF0CC0A6
:100350005DF804EB890028BF40F8042B08BF704704
:1003600048BF20F8022B11F0804F18BF00F8012B76
:10037000704770477047704770470000074B70B573
:100380000D467B4400F011F80446284600F020F8A2
:1003900010B14FF0FF3070BD204670BD6B1A0000E9
:1003A00001694A1C02610878704700B58FB0CDE939
:1003B00001310021059105497944CDE90310114629
:1003C000684600F02EF80FB000BD0000E5FFFFFF0B
:1003D000007B00F080007047754600F03FF8AE46A5
:1003E00005006946534620F00700854618B020B541
:1003F000FFF724FFBDE820404FF000064FF0000754
:100400004FF000084FF0000B21F00701AC46ACE8BC
:10041000C009ACE8C009ACE8C009ACE8C0098D4629
:1004200070472DE9F04106460024D6E90170F568D1
:100430008046304603E04146B847641C3046A84732
:100440000028F8D12046BDE8F08110B50446AFF38E
:1004500000802046BDE81040FFF78FBE004870477F
:1004600048110020FEE70000014800F091B80000AC
:10047000CC030020014800F08BB800008803002066
:1004800030B590F840500124AC40C56B6C600468F6
:1004900063604368102B036803D099600068C260F2
:1004A00030BD9A600068C16030BD704772B6FEE72B
:1004B00010B590F821100022022905D00421816393
:1004C00080F82020012010BD01680B6823F00E0386
:1004D0000B6001680B6823F001030B6090F840305B
:1004E000C46B012101FA03F3636080F8211080F8E6
:1004F0002020104610BD000010B590F821100024F7
:10050000022903D00421816301243DE001680A68C7
:1005100022F00E020A6001680A6822F001020A60F5
:100520001A4A0168914201D1012121E0174A14328F
:10053000914201D110211BE0144A2832914201D18D
:10054000891515E0114A3C32914201D189140FE01E
:100550000E4A5032914202D14FF4803108E00B4AEA
:100560006432914202D14FF4801101E04FF080716A
:10057000064A083A5160012180F82110002180F8D4
:100580002010416B01B18847204610BD0800024091
:100590002DE9F05FC16B0C6801680B68D0F840C0B2
:1005A000042202FA0CF2494DDFF824A1494E4A4FC9
:1005B000DFF828B1DFF828E122422CD05A072AD5EB
:1005C0000A68920603D40A6822F004020A600168ED
:1005D000A94201D1042219E0514501D1402215E080
:1005E000B14202D14FF4806210E0B94202D14FF41F
:1005F00080420BE0594502D14FF4802206E071455C
:1006000002D14FF4800201E04FF080622F49083997
:100610004A60C16A3BE04FF0020808FA0CF818EA99
:10062000040F4FF000094FF0010235D05FEA8378E4
:1006300032D50B689B0605D40B6823F00A030B60C8
:1006400080F821200168A94201D1022219E0514518
:1006500001D1202215E0B14202D14FF4007210E026
:10066000B94202D14FF400520BE0594502D14FF488
:10067000003206E0714502D14FF4001201E04FF064
:100680000072124908394A6080F82090816A002976
:100690001AD0BDE8F05F0847082505FA0CF5254299
:1006A00012D01B0710D50B6823F00E030B6090F8D7
:1006B0004010C36B02FA01F15960826380F8212077
:1006C00080F82090016BE2E7BDE8F09F080002404F
:1006D0001C0002403000024044000240580002402A
:1006E0006C00024030B528B308C8134914221944DD
:1006F000B1FBF2F18900C1631049816302214177A6
:100700001A6843F6F0718A43D0E900142143D0E916
:1007100002452C43214304692143446921438469F0
:10072000214311431960002141630122427701777F
:10073000084630BD012030BDF8FFFDBF000002407B
:1007400070B5044690F82000002501280CD0012047
:1007500084F8200094F821600020012E06D084F84F
:1007600020000225284670BD022070BD022684F8B4
:100770002160A0632068066826F001060660204616
:10078000FFF77EFEE06A00282068016802D041F091
:100790000E0106E021F0040101602068016841F0CB
:1007A0000A0101602068016841F001010160D9E798
:1007B00070B5044600F0FEF80546601C02D00448FF
:1007C0000078044400F0F6F8401BA042FAD370BD54
:1007D000100000202DE9F84FDFF8B8910024A9F1AE
:1007E000040B23460F2709F1040AABF1040EC9E0FC
:1007F0000125A5402A40AA427DD1674ED1F804C008
:10080000ACEB0608B44532D014DCBCF1030F3AD08F
:1008100009DCBCF1000F2AD0BCF1010F1CD0BCF1E7
:10082000020F31D11DE0BCF1110F17D0BCF1120F36
:100830002AD119E0B8F5881F19D006DCB8F5803F39
:1008400015D0B8F5801F1FD111E0B8F5001F0ED0EC
:10085000B8F5041F18D10AE0CB6815E0CB681B1D62
:1008600012E0CB6808330FE0CB680C330CE08B68E8
:100870002BB1012B4FF0080303D0456104E00423A2
:1008800002E0056100E00023FF2A01D8064601E0EE
:1008900000F104064FEA840501D9A5F12005D6F838
:1008A000008007FA05FC28EA0C0803FA05F548EA77
:1008B0000508C6F800804D68ED0062D5374DAE6979
:1008C00046F00106AE61AD6924F0030605F00105AE
:1008D0000095334D06EB050CDCF80850A607360FE3
:1008E00007FA06F825EA0805DFF8B880404503D185
:1008F0004FF0000817E044E0DFF8AC80404502D13B
:100900004FF001080FE0DFF8A480404502D14FF01E
:10091000020808E0DFF89880404502D14FF0030854
:1009200001E04FF0040808FA06F848EA0508CCF898
:1009300008804D68D9F80060ED024D4601D5164398
:1009400000E096432E604D68DAF80060AD0255462F
:1009500001D5164300E096432E604D68DBF8006039
:10096000AD035D4601D5164300E096432E604D6809
:10097000DEF80060ED03754601D5164300E09643AE
:100980002E60641C0D682A46E5407FF431AFBDE857
:10099000F88F000008040140000011100010024010
:1009A0000000014000080140000C0140001001401F
:1009B00000140140014880687047000010000020CA
:1009C000024881680278114481607047100000205D
:1009D000074810B5016841F010010160032000F0E4
:1009E000A1F80F2000F006F800F04AF8002010BD32
:1009F0000020024030B505461C4887B0816941F4AB
:100A000000618161806906A900F40060009001A87E
:100A100000F030F900F05EF91549164AB0FBF1F12B
:100A20001548491E0260416040F2E7320021C0E9EA
:100A300003218160816100F015FB040012D10E4892
:100A400000F03EFB04000DD1192000F03DF8102D00
:100A500007D200222946192000F044F80748056013
:100A600000E0012407B0204630BD00000010024025
:100A700040420F00002C0140100400201400002010
:100A80000F4808B5816941F001018161816901F078
:100A900001010091C16941F08051C161C06900222A
:100AA00000F0805000900F21901E00F01BF80548C8
:100AB000416821F0E06141F00071416008BD000033
:100AC0000010024000000140002809DB00F01F0276
:100AD000012191404009800000F1E020C0F80011A0
:100AE00070470000F0B40E4B1B680C46C3F30223A2
:100AF000C3F10705042D00D90425191D072901D2CA
:100B0000002300E0DB1E012606FA05F1491E214004
:100B100099409E40761E16403143F0BC01F057B913
:100B20000CED00E0064900F0070208684FF6FF03ED
:100B3000184040EA0220034A104308607047000052
:100B40000CED00E00000FA052DE9F0470F46050026
:100B500061D0434E306800F00700B84209D23068D7
:100B600020F0070038433060306800F00700B842DA
:100B700051D128683B4C810712D5400703D56068E6
:100B800040F4E06060602878000703D5606840F4B6
:100B9000605060606068A96820F0F0000843606001
:100BA0002878C00728D06868012810D0216802285A
:100BB00010D0890700292EDA616821F00301014372
:100BC0006160FFF7F7FE804641F288390DE0216849
:100BD0008903EFE78901EDE7FFF7ECFEA0EB0801E1
:100BE000494502D90320BDE8F0876068696800F0D4
:100BF0000C00B0EB810FEFD1306800F00700B84275
:100C00000BD9306820F0070038433060306800F0BE
:100C10000700B84201D00120E5E72878400705D554
:100C20006068E96820F4E0600843606028780007A5
:100C300006D56068296920F4605040EAC100606010
:100C400000F058F86168084AC1F30311515CC840CC
:100C50000649086006480068FFF7CCFE0020C2E79E
:100C60000020024000100240962A00081C000020CC
:100C7000140000200F2202600C4A536803F00303A3
:100C80004360536803F0F0038360536803F4E06348
:100C9000C36052684FF4E06303EAD2020261044881
:100CA000006800F007000860704700000010024074
:100CB000002002400448054900684968044AC1F31D
:100CC0000221515CC84070471C0000200010024007
:100CD000A62A00080448054900684968044AC1F387
:100CE000C221515CC84070471C0000200010024027
:100CF000A62A00080E4A51680E4801F00C03042B86
:100D000011D0082B0FD10C48C1F38343C903C05C39
:100D10000AD55168084AC1F34041921E515C054A08
:100D20005043B0FBF1F0704704494843704700005E
:100D30000010024000127A00862A000800093D00D7
:100D40002DE9F84F040070D02078C04DC00749D07D
:100D50006868C0F38100012807D06868C0F381008B
:100D6000022809D16868C00306D52868800339D5F0
:100D700060680028E7D035E06068B0F5803F0BD0B0
:100D800010B1B0F5A02F11D0286820F48030286071
:100D9000286820F4802002E0286840F48030286031
:100DA000606890B1FFF706FE06460AE0286840F446
:100DB00080202860F0E700BFFFF7FCFD801B64285F
:100DC00073D828688003F7D50CE0FFF7F3FD0646DB
:100DD00005E000BFFFF7EEFD801B6428F0D828680F
:100DE0008003F7D420789A4E80074FF001094FF026
:100DF000000839D5686810F00C0F07D06868C0F398
:100E00008100022809D16868C00306D428688007D9
:100E100014D52069012808D110E02069B0B1C6F8C6
:100E20000090FFF7C7FD074605E00AE1FFF7C2FDA6
:100E3000C01B0228C4D828688007F7D528686169D4
:100E400020F0F80040EAC10028600DE0C6F80080FC
:100E5000FFF7B0FD074604E0FFF7ACFDC01B02281A
:100E600023D828688007F7D4207800072CD5794844
:100E7000A169D9B1C0F80090FFF79CFD074604E0D6
:100E8000FFF798FDC01B02280FD8686A8007F7D5C6
:100E900071484FF4FA510068B0FBF1F0009000BFC8
:100EA0000098411E0091FAD20EE080E0C0F8008068
:100EB000FFF780FD074604E0FFF77CFDC01B02281A
:100EC00075D8686A8007F7D42078400760D5E8694C
:100ED0000027C00008D4E86940F08050E861E86964
:100EE000012700F0805000905C480168C90513D4C8
:100EF0000168834641F480710160FFF75BFD824623
:100F000006E000BFFFF756FDA0EB0A0064284ED8AC
:100F1000DBF80000C005F5D5E06801280AD008B16B
:100F2000052813D0286A20F001002862286A20F0E2
:100F3000040002E0286A40F001002862E06841F203
:100F4000883B98B1FFF736FD82460BE0286A40F0F7
:100F500004002862EEE700BFFFF72CFDA0EB0A01BA
:100F600059455AD8286A8007F6D50CE0FFF722FDCC
:100F7000824605E0FFF71EFDA0EB0A0159454CD85B
:100F8000286A8007F6D41FB1E86920F08050E86134
:100F9000E06988B36968C1F38101022944D002285D
:100FA000C6F8608004D0FFF705FD044638E034E061
:100FB000FFF700FD074604E0FFF7FCFCC01B02281A
:100FC0002BD828688001F7D4206AB0F5803F05D17E
:100FD0006868A16820F4003008436860D4E908011B
:100FE0000843696821F4741108436860C6F860908A
:100FF000FFF7E0FC044606E025E000BFFFF7DAFC5F
:10100000001B022809D828688001F7D51BE000BF23
:10101000FFF7D0FC001B022802D90320BDE8F88F9F
:1010200028688001F4D40EE00128F7D06868226AAD
:1010300000F48031914204D1616A00F4701088425A
:1010400001D00120EAE70020E8E70000001002409C
:1010500000004242800442421C0000200070004018
:101060007047704710B5040003D094F83D0010B1EC
:1010700007E0012010BD002084F83C00204600F06D
:101080001EF8022084F83D00211D206800F068FC55
:10109000012084F8460084F83E0084F83F0084F87C
:1010A000400084F8410084F8420084F8430084F84A
:1010B000440084F8450084F83D00002010BD7047CE
:1010C00090F83D10012901D001207047022180F8DD
:1010D0003D100168CA6842F00102CA6000680B490D
:1010E000884208D0B0F1804F05D00949884202D02B
:1010F0000849884204D1816801F00701062903D01C
:10110000016841F00101016000207047002C01409E
:10111000000400400008004070472DE9F0410446FB
:101120000068C66805694FF00007A90713D5B10725
:1011300011D5F91E016101202077206880698007A0
:10114000204602D0FFF7E8FF04E000F07EF82046DA
:1011500000F07CF82777680716D5700714D521684A
:101160006FF004000861022020772068806910F485
:10117000407F204602D0FFF7CFFF04E000F065F883
:10118000204600F063F82777280715D5300713D5D8
:1011900021686FF008000861042020772068C0698A
:1011A0008007204602D0FFF7B7FF04E000F04DF8BB
:1011B000204600F04BF82777E80616D5F00614D540
:1011C00021686FF010000861082020772068C0694E
:1011D00010F4407F204602D0FFF79EFF04E000F0AD
:1011E00034F8204600F032F82777E80708D0F007F7
:1011F00006D021686FF001000861204600F028F851
:10120000280608D5300606D521686FF080000861F1
:101210002046FFF725FF680608D5700606D5216829
:101220006FF040000861204600F01CF8A8060AD5BF
:10123000B00608D521686FF0200008612046BDE89F
:10124000F041FFF70EBFBDE8F08170477047000026
:1012500000680349884201D1FFF7B2BB7047000024
:10126000002C0140704738B5044690F84200202811
:1012700001D0022038BD51B14AB1012020630020C5
:101280006063204600F01AFD216B012901D0012086
:1012900038BD21680A684968009121680C3151E81D
:1012A000002F42F0100241E80023002BF5D138BD99
:1012B00010B50C4600680F49884219D1642C17D824
:1012C00064220D490D48FFF7CEFF4FF6FF7322460B
:1012D00009490A4800F00EFA09480068016821F03F
:1012E00004010160BDE8104064210348FEF7F8BF27
:1012F00010BD00000038014088000020400300209D
:101300008803002010B500680A49884210D1642281
:1013100009490A48FFF7A7FF09480068016821F05A
:1013200004010160BDE8104064210348FEF7D8BF06
:1013300010BD00000038014088000020400300205C
:1013400088030020F8B5016804460868CA684B693C
:1013500010F00F0F4FF0000559D003F0010602F412
:101360009077374365D0C10705D0D10503D5616CAF
:1013700041F001016164410705D5D90703D0616CD3
:1013800041F002016164810705D5D90703D0616C82
:1013900041F004016164010707D502F020013143E7
:1013A00003D0616C41F008016164616C00293AD09E
:1013B000800604D5900602D5204600F0C1FB2068C7
:1013C0004069616CC0F38010090700D460B3204607
:1013D00000F081FB20684069400621D52068143068
:1013E00050E8001F21F0400140E80012002AF5D12A
:1013F000E06BA8B16D494163E06BFFF77DF8002811
:1014000011D0E06B416B01B0BDE8F04008478306A6
:101410000FD593060DD52046BDE8F84000F090BBEF
:101420002046FFF76FFFF8BD2046FFF76BFF6564AE
:10143000F8BD266B2023012E7CD1C6067AD5D606B0
:1014400078D508684868009048694FF00206400661
:1014500040D5E16B086840680004000CE8D0A28D1C
:101460008242E5D9E085886920282DD020680C309B
:1014700050E8001F21F4807140E80012002AF5D1E5
:101480002068143050E8001F21F0010140E80012EC
:10149000002AF5D12068143050E8001F21F04001E7
:1014A00040E80012002AF5D184F842302563206814
:1014B0000C3050E8001F21F0100140E80012002A13
:1014C000F5D1E06BFEF7F4FF6663A08DE18D401A65
:1014D00081B22AE0A08DE18D401A81B2E08D002812
:1014E000A6D00029A4D022680C3252E8000F20F4C4
:1014F000907042E80007002FF5D12068143050E8C2
:10150000002F22F0010240E80027002FF5D184F8D7
:101510004230256320680C3050E8002F22F0100282
:1015200040E80023002BF5D166632046FFF7C0FE9C
:10153000F8BDFFE705062BD5150629D594F841001F
:101540002128F5D1A068B0F5805F01D12069B0B144
:10155000206A411C2162216800784860E08C401EAE
:101560000004000CE084E3D12068C16821F0800110
:10157000C1602068C16841F04001C160D8E7206ABD
:101580000088C0F308004860206A801C2062E5E7FC
:101590004006CDD55006CBD5CA68204622F0400281
:1015A000CA6084F8413000F0F5F8C1E7D9190008A5
:1015B00070B5040004D094F84100002510B106E095
:1015C000012070BD84F84050204600F023F824200C
:1015D00084F841002068C16821F40051C1602046B0
:1015E00000F010FB2068016921F49041016120683E
:1015F000416921F02A0141612068C16841F400512C
:10160000C1606564202084F8410084F8420065636D
:10161000002070BDF0B585B000240646009401940A
:101620000294039400682D49884254D12C48816962
:1016300041F480418161816901F4804104918169B3
:1016400041F0040181618069264D00F0040004909E
:101650004FF400700090022001900320039069462F
:101660002846FFF7B7F82815CDE900046946284653
:101670000294FFF7AFF81D4D1B488027C5E9000411
:10168000C5E902472C616C61AC612846EC61FFF74B
:1016900029F808B1FEF70AFFF5636E62134D124890
:1016A0004435143801C5102091C5104845F810493B
:1016B00044306C61AC61EC61FFF714F808B1FEF7DF
:1016C000F5FEB5630022052125206E62FFF70AFAB8
:1016D0002520FFF7F9F905B0F0BD00000038014002
:1016E000001002400008014058000240880300201A
:1016F000704770472DE9F843044690F8410098463A
:1017000016460D46202802D00220BDE8F88385B198
:101710007EB100206064212084F84100FFF74AF97F
:10172000A6848146E684A0682027B0F5805F02D0B9
:1017300003E00120E9E7206910B12E4600250EE004
:1017400000260CE08021204600F000FBA8B9C6B1BD
:1017500016F8010B21684860E08C401EE084E08CA4
:101760004B464FF00002CDF800800028EAD14FF040
:101770004001204600F0EAFA40B184F841700320AD
:10178000C3E735F8020BC0F30800E3E784F84170C3
:101790000020BAE77047FEE708B501F097F84FF46C
:1017A000FA74009003A0FEF75DFD2146684600F044
:1017B000D9FEF7E74C4544207461736B0D0A0000B5
:1017C0000D4808B5416941F00101416140690022BD
:1017D00000F00100009005210E20FFF783F90E2094
:1017E000FFF772F9002205210F20FFF77BF9BDE812
:1017F00008400F20FFF768B90010024000B587B01D
:101800001C2206496846FEF739FD0021684600F0B3
:1018100033FB0349086007B000BD0000682A0008D8
:1018200008000020094808B5816941F02001816164
:10183000816901F020010091816941F00401816119
:10184000806900F00400009008BD00000010024014
:101850000C4810B50A4901604FF4E13141600021A4
:1018600081600C22C160C0E904128161C161FFF78F
:101870009FFE002803D0BDE81040FEF717BE10BD44
:101880000038014040030020FEE7FEE700F044FD81
:10189000002000F0ADFE012000F0E2FAFBE70000BE
:1018A00010B5502080F31188BFF34F8FBFF36F8FB7
:1018B00001F012F818B104494FF080500860002080
:1018C00080F3118810BD000004ED00E030B58FB04A
:1018D00028216846FEF726FD14210AA8FEF722FDFE
:1018E00001210804CDE9001000240294022504918E
:1018F000CDE907504FF4E01009906846FFF720FA51
:1019000008B172B6FEE70F20CDE90A054FF48060FA
:10191000CDE90C4002210AA80E94FFF715F9002822
:1019200001D072B6FEE70FB030BD704708B500F0C9
:10193000CDFF4FF4FA74009003A0FEF793FC21460C
:10194000684600F00FFEF7E7544553542074617366
:101950006B0D0A000148FFF7E0BB000010040020F7
:10196000F0B50268194B1A4C1A4D4FF08047984257
:1019700005D0B84203D0A04201D0A84203D122F042
:1019800070064A683243984205D0B84203D0A0425C
:1019900001D0A84203D122F44074CA6822434C69A2
:1019A00022F08002224302608A68C2620A68826270
:1019B000984201D109690163012141610169C907A7
:1019C00003D0016921F001010161F0BD002C01404B
:1019D000000400400008004010B5406A0021C185A5
:1019E000C184FFF78FFC10BD70B5446A2068406960
:1019F00094F84110C0F3C0100025212904D118B17A
:101A0000E584204600F08EF82068406994F8421082
:101A1000C0F38010222904D118B1E585204600F0DA
:101A20005AF8606C40F0100060642046FFF76AFCD2
:101A300070BD10B50146406A096809684FF00002A0
:101A400089062ED4C28501680C3151E8003F23F489
:101A5000807341E80034002CF5D10168143151E85D
:101A6000003F23F0010341E80034002CF5D1016868
:101A7000143151E8003F23F0400341E80034002CCA
:101A8000F5D1202180F84210016B012909D10168AC
:101A90000C3151E8003F23F0100341E80034002CE2
:101AA000F5D14263016B012902D0FFF721FE10BD81
:101AB000818DFFF7FDFB10BD10B5406A0121416328
:101AC000016B012902D0FFF714FE10BD818D49087A
:101AD000FFF7EEFB10BD01680C3151E8002F22F436
:101AE000907241E80023002BF5D10168143151E8D0
:101AF000002F22F0010241E80023002BF5D1016BF9
:101B0000012909D101680C3151E8002F22F010029F
:101B100041E80023002BF5D1202180F8421000215C
:101B20000163704701680C3151E8002F22F0C002B8
:101B300041E80023002BF5D1202180F841107047A7
:101B400008B590F84210222901D0022008BD826811
:101B50004FF480539A4201D1016921B1816A9A42BE
:101B60001BD04AB10AE00268816A5268C2F30802D7
:101B70000A80816A891C08E0026972B102685268B1
:101B800002F07F020A70816A491C8162C18D491E80
:101B90000904090CC18503D01BE002685268F1E713
:101BA0000168CA6822F02002CA600168CA6822F48B
:101BB0008072CA6001684A6922F001024A612021EC
:101BC00080F8421000214163026B012A03D0FFF725
:101BD0008FFD002008BD016301680C3151E8002F22
:101BE00022F0100241E80023002BF5D101680A68B9
:101BF000D20602D50A6849680091818DFFF758FB2B
:101C0000E7E7000070B5044600680169E26821F466
:101C10004051114301612169A0680843616908438B
:101C20002168CA6841F20C639A430243CA60206883
:101C30004169A26921F44071114341611E49206844
:101C4000884202D1FFF746F801E0FFF733F800EBD6
:101C5000C00101EB0012606864218000B2FBF0F368
:101C6000B3FBF1F36FF018067343B2FBF0F5B2FB70
:101C7000F0F605EB8305322303EB0515B5FBF1F513
:101C8000B6FBF1F605F0F00505EB0615B2FBF0F634
:101C9000B2FBF0F0B0FBF1F06FF01802504306EB2E
:101CA000800003EB0010B0FBF1F0216800F00F00A2
:101CB0002844886070BD00000038014038B581625A
:101CC00004468285002013466064222284F8422064
:101CD000E56B1B4AAA62E56B1A4AEA62E56B1A4A8F
:101CE0002A63E26B50630A462168E06B091DFEF728
:101CF00027FD2068016840680090206948B120688D
:101D00000C3050E8001F41F4807140E80012002AB6
:101D1000F5D12068143050E8001F41F0010140E87F
:101D20000012002AF5D12068143050E8001F41F05D
:101D3000400140E80012002AF5D1002038BD000023
:101D4000331A0008B91A0008E91900082DE9F84308
:101D5000984617460D460446089E24E0701C22D083
:101D6000FEF728FEA0EB0800B0421AD8CEB12068DA
:101D7000C168490717D5802D15D0402D13D00168B3
:101D8000C94309070FD40168002540680090204628
:101D9000FFF7A1FE0820606484F840500120BDE8F0
:101DA000F8830320FBE72068006835EA000004D0D0
:101DB0000020B842D2D00020F1E70120F9E700006E
:101DC0000148FFF7BFBA000040030020FEE7090703
:101DD000090E002804DB00F1E02080F800147047B1
:101DE00000F00F0000F1E02080F8141D70477047EC
:101DF00013B54FF6FF73012269460248FFF77AFCDC
:101E000000981CBD40030020FEF7E2FDFFF75EFDD9
:101E1000FFF708FDFFF7D4FCFFF71AFD64220A491B
:101E20000A48FFF720FA0A480068016821F0040117
:101E30000160FFF7E3FC00F01AF84FF4FA74204653
:101E4000FEF7B6FCFBE700008800002040030020FE
:101E50008803002001460020842900D0C81C704758
:101E600010B500B9012000F057FB002010BD10B5DF
:101E700000F014FC002010BD7FB50D4604464169FA
:101E8000B0F9080081B1A16971B1FFF7E3FFD4E9AE
:101E900005128DE80700D4E900102B46226900F0F6
:101EA000EAFC039004B070BDFFF7D4FF03A9CDE9AD
:101EB0000001208A2B4682B2D4E9001000F0AEFC6B
:101EC000012801D00020EDE70398EBE72DE9F04170
:101ED000184C0F460546E6682068001D00F054FACD
:101EE00038B9206890F82C1001208840216981437E
:101EF0002161681C07D137B12168BDE8F0410E4867
:101F0000091D00F085BA20683544B5424560216856
:101F100005D2A06BBDE8F041091D00F061BA606B0D
:101F2000091D00F05DFAA06A854200D2A562BDE8F5
:101F3000F081000020000020340500202DE9F04150
:101F4000054600F071FA2E4CA068401CA060206885
:101F50002C4F10B1606940B32DE02560A0680128C6
:101F600029D1002606EB860007EB800000F02AFA54
:101F7000761C072EF6D323488C3000F023FA214834
:101F8000A03000F01FFA1F48B43000F01BFA1D48C3
:101F9000C83000F017FA1B48DC3000F013FA19487B
:101FA0008C3060631430A06305E02068E96AC06A81
:101FB000884200D82560606A401C6062E96A01209E
:101FC000226988401043206101EB810007EB80000B
:101FD000291D00F01DFA00F047FA606900280CD0B6
:101FE0002068E96AC06A884207D207494FF08050EA
:101FF0000860BFF34F8FBFF36F8FBDE8F081000023
:10200000200000205804002004ED00E010B5044634
:1020100090F8510058B101280CD002280FD0502060
:1020200080F31188BFF34F8FBFF36F8FFEE7206BF4
:1020300000F02EFA2046BDE8104000F029BA10BD8D
:1020400010484FF44061420706D0C01D0D4920F0F2
:102050000700411AC1F540610B4A00230144C2E95F
:1020600000030839183A21F0070111604B600B603A
:102070000B1AC0E9001393604FF0004053605061A9
:10208000704700004805002074000020144E154CD5
:10209000A6F1C8074FF08058DFF84C9012E000BF5F
:1020A00000F0C2F9F068C568281D00F06DF9A0685D
:1020B000401EA0606068401E606000F0D5F92846B0
:1020C000FFF7A4FF60680028EAD138680128F9D931
:1020D000C9F80080BFF34F8FBFF36F8FF2E70000A6
:1020E000200500202000002004ED00E02DE9F0474D
:1020F0009A46DDE9098481466FF00303206B03EB08
:1021000082021044089E20F00707780707D050206D
:1021100080F31188BFF34F8FBFF36F8FFEE7002569
:1021200061B1002023180A5C83F834200A5C12B1E4
:10213000401C1028F6D384F8435001E084F8345052
:10214000072E00D30626E662C4E91165201D00F0C3
:1021500044F904F1180000F040F92461C6F10700C9
:102160006462A061E56484F850505246494638469E
:1021700000F0C0F82060B8F1000F01D0C8F80040AE
:10218000BDE8F08730B5114900E011460A68824287
:10219000FBD34B685C18844203D140681844486004
:1021A000084643681C18944209D1084C183C24681E
:1021B000A24209D052681A4442600A68126802605A
:1021C000814200D0086030BD0460F9E7740000204F
:1021D0000648416B096829B1416BC968C9684968FB
:1021E000816270474FF0FF31FAE7000020000020C5
:1021F00008484068401C4FF0500080F3118804D01C
:10220000BFF34F8FBFF36F8FFEE7BFF34F8FBFF367
:102210006F8FFEE77C0000202DE9F0410546002786
:1022200000F072FA324E306808B9FFF709FF7069A2
:1022300005424ED1C5B3083568070ED005F007003A
:10224000C0F108000544680707D0502080F31188CA
:10225000BFF34F8FBFF36F8FFEE72DB370688542DA
:1022600037D82348183001460C6801E020460C4658
:102270006168A94202D221680029F7D131688C42F5
:1022800027D007682168016060680837411B102962
:102290000FD96019420708D0502080F31188BFF38E
:1022A0004F8FBFF36F8FFEE713E041606560FFF76C
:1022B00069FF61687068401A7060B268904200D22D
:1022C000B060706901430020C4E90001F068401C5F
:1022D000F06000F067FB780707D0502080F311888A
:1022E000BFF34F8FBFF36F8FFEE73846BDE8F08135
:1022F0005C00002010B5031F4FF080741C601B1F92
:1023000021F001011960191F024B0B60143940388C
:102310000A6010BDF12100081CB500F085F80DA081
:10232000FDF7A0FF0E480224CDE9004000236422FF
:102330000CA10F4800F072FA0E480023CDE90040CE
:1023400064220DA10F4800F069FABDE81C4000F0BE
:102350008BB800005461736B496E69740D0A0000FC
:10236000000000204C45445F7461736B0000000066
:102370009917000804000020544553545F7461739A
:102380006B0000002D190008D0E9013201699A6044
:10239000D0E901235A604A68824201D182684A60CA
:1023A000002202610868401E08600868704700004B
:1023B000034B036003F154000860802010607047F5
:1023C000EC00002000F108014FF0FF32C0E90112DB
:1023D000C160016100210160704700210161704707
:1023E00030B50B685A1C02D000F1080202E0026905
:1023F00004E02246546825689D42FAD953684B6030
:1024000099608A60516008610168491C016030BDB3
:1024100042684A6093688B60936859609160086174
:102420000168491C01607047502080F31188BFF398
:102430004F8FBFF36F8F0A494868401C48600128DE
:102440000CD10848006810F0FF0F07D0502080F32F
:102450001188BFF34F8FBFF36F8FFEE77047000007
:102460007C00002004ED00E00849486828B1401EC7
:10247000486001D180F311887047502080F31188A3
:10248000BFF34F8FBFF36F8FFEE700007C0000208B
:1024900070B500282AD0164DA0F10804606869695B
:1024A000084207D1502080F31188BFF34F8FBFF34C
:1024B0006F8FFEE722683AB1502080F31188BFF396
:1024C0004F8FBFF36F8FFEE78843606000F01CF909
:1024D00060686968084468602046FFF753FE286911
:1024E000401C2861BDE8704000F05CBA70BD00007F
:1024F0005C0000204FF0E02000210161816105496E
:102500004FF47A720968B1FBF2F1491E416107216B
:10251000016170471C00002010B5020014D00F4864
:10252000006B38B1502080F31188BFF34F8FBFF399
:102530006F8FFEE700F0E8F800211046FFF7C6FCB9
:1025400000F030FA002807D105494FF080500860AC
:10255000BFF34F8FBFF36F8F10BD0000200000202E
:1025600004ED00E070B50D4604000BD095B11E4A95
:10257000106BB8B1502080F31188BFF34F8FBFF3B9
:102580006F8FFEE7502080F31188BFF34F8FBFF3AA
:102590006F8FFEE7502080F31188BFF34F8FBFF39A
:1025A0006F8FFEE700F0B0F8D268236859199342A4
:1025B00004D98B420AD9914202D807E08B42FAD95A
:1025C000881A21600021FFF781FC00E0216000F003
:1025D000E9F9002807D105494FF080500860BFF3A2
:1025E0004F8FBFF36F8F70BD2000002004ED00E01F
:1025F00070B50546FFF718FF254C05B92568281D5D
:10260000FFF7C2FE58B9E86A224A00EB800152F88F
:10261000211021B901218140206988432061A86AE5
:1026200018B105F11800FFF7AFFE606A401C606248
:102630002068854208D11748291DC830FFF7E8FEF9
:102640006068401C606007E0A068401EA0602846EB
:10265000FFF7DCFCFFF7BCFDFFF706FF6069002811
:1026600014D02068854211D1206B38B1502080F3FE
:102670001188BFF34F8FBFF36F8FFEE706494FF00E
:1026800080500860BFF34F8FBFF36F8F70BD0000A5
:10269000200000205804002004ED00E010B586B0B2
:1026A0000024039405AA04A903A80494FFF780FE5C
:1026B000DDE903010094CDE9011000230EA11048CB
:1026C000059A00F0D8F80F490028C86211D05020B0
:1026D00080F31188BFF34F8FBFF36F8F4FF0FF3040
:1026E000886201204861CC6006B0BDE8104000F06F
:1026F00041B806B010BD000049444C450000000040
:102700008D200008200000200248016B491C016355
:1027100070470000200000201448016B11B1012116
:10272000C16170470021C1610169B1FA81F1C1F154
:102730001F0101EB81020E4951F822306BB101EB10
:10274000820101F108034A6852684A609A4201D145
:1027500052684A60D16801607047502080F3118848
:10276000BFF34F8FBFF36F8FFEE700002000002004
:10277000580400201CB5264908780190FF200870F5
:1027800008788DF800009DF800009DF8002000F00A
:10279000F000904207D0502080F31188BFF34F8F94
:1027A000BFF36F8FFEE79DF800001A4C00F0500059
:1027B00020700720A06005E09DF8002052008DF8F1
:1027C0000020401E9DF800201206F5D4A0600328CA
:1027D00007D0502080F31188BFF34F8FBFF36F8F66
:1027E000FEE74FF44070A060019808700A48016845
:1027F00041F470010160016841F070410160FFF730
:1028000079FE00206060FDF7D1FC00201CBD0000B7
:1028100000E400E07C00002020ED00E02DE9FF5FF7
:102820008346DDE90E87994616468A469000FFF7F3
:10283000F3FC05001CD05420FFF7EEFC040014D07C
:102840000020256384F85100CDE90240CDE90087DE
:102850004B46324651465846FFF748FC2046FFF7A4
:102860006DFB012004B0BDE8F09F2846FFF710FE85
:102870004FF0FF30F6E7F0B585B0DDE90B640A9D57
:10288000A6B1DCB1542700972663022684F8516074
:10289000002604AFCDE90246CDE90057FFF726FC3C
:1028A0002046FFF74BFB049805B0F0BD502080F3A5
:1028B0001188BFF34F8FBFF36F8FFEE7502080F377
:1028C0001188BFF34F8FBFF36F8FFEE70148C068D9
:1028D00070470000200000202DE9F0412F4C002619
:1028E000206B28B1A069401CA0613046BDE8F08192
:1028F000E5686D1CE56013D1606B006838B150204D
:1029000080F31188BFF34F8FBFF36F8FFEE7606BCB
:10291000A16B6163A063206A401C2062FFF758FC32
:10292000A06ADFF87C80854209D3606B0068A0B1A3
:10293000606BC068C7687868854211D2A062206861
:10294000C06A00EB800158F82100012800D9012657
:10295000E0690028C9D00126C7E74FF0FF30EDE756
:10296000381DFFF711FDB86A18B107F11800FFF71D
:102970000BFDF96A0120226988401043206101EBB8
:10298000810108EB8100391DFFF742FDF86A2168DB
:10299000C96A8842C9D30126C7E700002000002089
:1029A000580400202DE9F0472C4D00242746286BC1
:1029B00038B1FFF739FD286B401E2863286B40B102
:1029C00046E0502080F31188BFF34F8FBFF36F8F25
:1029D000FEE7A968224E0120D1B3A6F1B4098046D2
:1029E0003068E8B1F068C46804F11800FFF7CCFC67
:1029F000201DFFF7C9FCE06A2A6908FA00F11143BB
:102A0000296100EB800109EB8100211DFFF700FD2A
:102A1000E06A2968C96A8842E2D3C5F81C80DFE70A
:102A20000CB1FFF7D5FBAC6944B14646FFF754FF44
:102A300000B1EE61641EF9D10020A861E86938B1E7
:102A40000849012738070860BFF34F8FBFF36F8F26
:102A5000FFF70AFD3846BDE8F0870000200000209F
:102A60000C05002004ED00E0B02A00088D180008D5
:102A700000000000000000008000000000000000D6
:102A800000000000010202030405060708090A0B02
:102A90000C0D0E0F101000000000000000000102DD
:102AA00003040607080900000000010203040000F7
:102AB00064656661756C745461736B00DC2A000890
:102AC000000000208800000028010008642B000896
:102AD00088000020201700004401000800000000CA
:102AE00000000000000000000000000001000000E5
:102AF000100000000000000000127A00000000003A
:102B000000000000000000000000000000000000C5
:102B100000000000000000000000000000000000B5
:102B200000000000000000000000000000000000A5
:102B30000000000000000000000000000000000095
:102B40000000000000000000000000000000000085
:102B5000000000000000000000000000AAAAAAAACD
:042B60000000000071
:04000005080000ED02
:00000001FF
