:020000040800F2
:10000000C0160020210200087327000851230008B1
:1000100071270008EF030008512C000800000000C1
:10002000000000000000000000000000890100083E
:100030001504000800000000CD0100088D2700080D
:100040003B0200083B0200083B0200083B0200089C
:100050003B0200083B0200083B0200083B0200088C
:100060003B0200083B0200083B0200083B0200087C
:100070003B0200083B0200083B020008F1030008B5
:10008000FD030008090400088D0300083B02000876
:10009000452C00083B0200083B0200083B02000818
:1000A0003B0200083B0200083B0200083B0200083C
:1000B000212800082D2800083B0200083B02000808
:1000C0003B0200083B0200083B0200083B0200081C
:1000D0003B0200082D2C0008392C00083B020008C8
:1000E0003B0200083B0200083B02000800F002F857
:1000F00000F03AF80AA090E8000C82448344AAF188
:100100000107DA4501D100F02FF8AFF2090EBAE885
:100110000F0013F0010F18BFFB1A43F0010318473B
:10012000F435000014360000103A24BF78C878C1B6
:10013000FAD8520724BF30C830C144BF04680C60ED
:10014000704700000023002400250026103A28BF35
:1001500078C1FBD8520728BF30C148BF0B60704739
:100160001FB51FBD10B510BD00F0D6F81146FFF742
:10017000F7FF02F07EFD00F0F4F803B4FFF7F2FFA2
:1001800003BC00F0FBF80000224B19680868B0E8D7
:10019000F00F80F30988BFF36F8F4FF0000080F3FA
:1001A00011884EF00D0E70470000000006480068F0
:1001B000006880F3088862B661B6BFF34F8FBFF363
:1001C0006F8F00DF00BF00BF08ED00E0EFF3098094
:1001D000BFF36F8F0F4B1A6820E9F00F106008B55E
:1001E0004FF0500080F31188BFF34F8FBFF36F8F34
:1001F00003F0B2F84FF0000080F31188BDE808402A
:1002000019680868B0E8F00F80F30988BFF36F8FB2
:10021000704700BF1C000020EFF30580704700000E
:100220000948804709480047FEE7FEE7FEE7FEE78A
:10023000FEE7FEE7FEE7FEE7FEE7FEE704480549C6
:10024000054A064B704700001D280008ED00000815
:10025000C0100020C0160020C0120020C0120020D4
:1002600010B5203AC0F00B80B1E81850203AA0E851
:100270001850B1E81850A0E81850BFF4F5AF5FEA85
:10028000027C24BFB1E81850A0E8185044BF18C938
:1002900018C0BDE810405FEA827C24BF51F8043BDF
:1002A00040F8043B08BF7047D20728BF31F8023B33
:1002B00048BF11F8012B28BF20F8023B48BF00F8C7
:1002C000012B70474FF0000200B513469446964646
:1002D000203922BFA0E80C50A0E80C50B1F1200159
:1002E000BFF4F7AF090728BFA0E80C5048BF0CC007
:1002F0005DF804EB890028BF40F8042B08BF704765
:1003000048BF20F8022B11F0804F18BF00F8012BD6
:100310007047704770477047754600F02BF8AE463F
:1003200005006946534620F00700854618B020B501
:10033000FFF784FFBDE820404FF000064FF00007B4
:100340004FF000084FF0000B21F00701AC46ACE87D
:10035000C009ACE8C009ACE8C009ACE8C0098D46EA
:10036000704710B50446AFF300802046BDE810404A
:10037000FFF703BF004870476010002001491820B4
:10038000ABBEFEE72600020070470000014800F007
:10039000C4B800007C00002070B504460068816885
:1003A000C943C90717D1816821F00101816000F0BC
:1003B000FBFD05460AE000BF00F0F6FD401B0228E9
:1003C00004D920688068C043C00706D020688068D0
:1003D000C043C007F0D0002070BDA06A40F01000FC
:1003E000A062E06A40F00100E062012070BDFEE71B
:1003F000014800F00BBC000090020020014800F012
:1004000005BC0000D4020020014800F0FFBB000042
:1004100018030020704772B6FEE77047F8B5002455
:10042000009490F824202546012A12D0012280F859
:1004300024204A681F23072A0DD20668776B521EB4
:1004400002EB820293409F430B6893401F43776304
:1004500019E00220F8BD06680D2A0AD2376BD21FB8
:1004600002EB820293409F430B6893401F43376324
:1004700009E0F76A0D3A02EB820293409F430B6852
:1004800093401F43F7620A68072306680A2A0AD3C3
:10049000F7680A3A02EB420293409F438B6893400D
:1004A0001F43F76008E0376902EB420293409F4325
:1004B0008B6893401F4337610A68102A01D0112AC4
:1004C00020D1124B02689A4217D193681B0219D4AB
:1004D000936843F4000393600968102912D10C4912
:1004E0000C4A0968B1FBF2F101EB8101490000E01F
:1004F000491E00910029FBD104E0816A41F02001EE
:100500008162012480F824502046F8BD0024014077
:100510001800002040420F00704770B50446006884
:1005200006684568A90625D5B10723D5A16AC9067D
:1005300003D4A16A41F40071A1628168C1F3424110
:10054000072910D1217B71B9416821F02001416058
:10055000A06A20F48070A062A06AC00403D4A06ADC
:1005600040F00100A0622046FFF7D6FF21686FF03F
:100570001200086028062ED570072CD5A06AC00688
:1005800003D4A06A40F40050A06220688168C1F3DF
:100590000231072909D04168490515D48168C1F3A2
:1005A0004241072910D1217B71B9416821F08001B6
:1005B0004160A06A20F48050A062A06AC00503D404
:1005C000A06A40F00100A0622046FFF726FF2168E4
:1005D0006FF00C00086068060CD5F0070AD0A06A1E
:1005E00040F48030A062204600F094F821686FF05B
:1005F0000100086070BD00002DE9F0414FF00007D8
:1006000004003D467ED0A06A002628B9E66284F840
:100610002460204600F080F82046FFF7BDFEA16A66
:10062000C90600D420B1A06A40F01000A06269E0C1
:10063000A16A21F4885141F00201A1626268E16976
:10064000237B0A4347EA43010A43A1684FF48077BA
:10065000B94209D0012907D05FF0000194F814C015
:10066000BCF1010F02D00AE03946F7E7F3B1A36A03
:1006700043F02003A362E36A43F00103E3622368CB
:10068000D3F804C02CF4694C4CEA010CC3F804C044
:1006900021688B68DFF870C003EA0C0313438B609A
:1006A000A168B9420BD0012909D00CE0DFF85CC089
:1006B000A3690CEB43330B4343F40061DFE7218A6A
:1006C0000D05A5F580152168CB6A23F470032B4333
:1006D000CB62216889680E4B1940914208D1E662CD
:1006E000A16A21F0020141F00101A162BDE8F0819F
:1006F000A06A20F0020040F01000A062E06A40F022
:100700000100E0620120F1E7FDF7E1FF00E0FFFFFB
:10071000FE0E1FFF7047000000B585B0002100915C
:1007200001910291039100681249884220D1124838
:10073000816941F400718161816901F40071049162
:10074000816941F0040181618069694600F004001B
:1007500004900220009003200190084800F02EFB36
:1007600000220521122000F08DFD122000F07CFDFA
:1007700005B000BD00240140001002400008014007
:1007800070472DE9F05F0546006800244669D0F8FF
:1007900004908768D0F80CB0D0F810A0D0F818807A
:1007A000F10748D0F90714D001218160B80703D5BB
:1007B000284600F0B5F90CE0780702D54FF4006444
:1007C00007E0380702D54FF4805402E0284600F0D5
:1007D000A6F9F80516D529684FF480708860B80529
:1007E00003D5284600F09EF90CE0780502D544F4C4
:1007F000005407E0380502D544F4804402E028465E
:1008000000F08FF9F80316D529684FF4803088601E
:10081000B80303D5284600F087F90CE0780302D529
:1008200044F4004407E0380302D544F4803402E085
:10083000284600F078F9300707D55FEACB6004D589
:100840002968102044F40074C86070074FF008074E
:1008500007D55FEA0B7004D52868C760284600F00A
:1008600059F9B00706D52868C068800702D0284625
:1008700000F051F9700607D55FEACA6004D529680F
:10088000102044F480640861B00607D55FEA0A705E
:1008900004D528680761284600F03EF9F00606D521
:1008A00028680069800702D0284600F036F9B003B6
:1008B00008D55FEAC96005D5296810204860284638
:1008C00000F02CF9F00307D55FEA097004D5286819
:1008D0004760284600F029F9300446D55FEA4970A0
:1008E00040D5F00504D55FEAC87001D044F001049A
:1008F000B00504D55FEA887001D544F002047005A4
:1009000004D55FEA487001D544F00404300529D5C8
:1009100018F0700F26D008F07000402815D006DCC3
:10092000102809D020280AD0302816D10AE05028F3
:100930000ED0602811D10EE044F008040DE044F020
:1009400010040AE044F0200407E044F0400404E00E
:1009500044F0800401E044F480742868816921F047
:1009600070018161296804204860002C05D0686A04
:10097000204368622846FFF703FFBDE8F09F70B58B
:10098000040003D094F8200010B104E0012070BDF1
:10099000204600F081F82068016841F00101016003
:1009A00000F002FB0546052604E000F0FDFA401BBE
:1009B0000A2811D820684068C007F6D0206801686E
:1009C00021F00201016000F0EFFA05460BE000F0B3
:1009D000EBFA401B0A2806D9606A40F400306062D6
:1009E00084F82060D2E7206840688007EFD4207E3A
:1009F0000128206801683DD021F080010160607EFF
:100A000001282068016838D021F040010160A07EF3
:100A100001282068016833D021F020010160E07EC8
:100A20000128206801682ED041F010010160207F6C
:100A300001282068016829D021F008010160607F49
:100A400001282068016824D021F004010160D4E964
:100A500002010843D4E90412114308436168491EA6
:100A600008432168C86100206062012084F82000EA
:100A7000002070BD41F08001C0E741F04001C5E7B2
:100A800041F02001CAE721F01001CFE741F0080151
:100A9000D4E741F00401D9E710B586B000210091F8
:100AA0000191029103910068174988422AD11748A1
:100AB000C16941F00071C161C16901F00071049127
:100AC000816941F0040181618069114C00F00400EA
:100AD00004904FF4006000906946204600F06EF9E3
:100AE000A014009002200190032003906946204644
:100AF00000F064F900220521142000F0C3FB14204B
:100B000000F0B2FB06B010BD0064004000100240CF
:100B10000008014070477047704770477047704742
:100B200070477047704770477047704710B590F82E
:100B300021100022022905D00421816380F82020A1
:100B4000012010BD01680B6823F00E030B600168E3
:100B50000B6823F001030B6090F84030C46B012157
:100B600001FA03F3636080F8211080F8202010461A
:100B700010BD000010B590F821100024022903D008
:100B80000421816301243DE001680A6822F00E021D
:100B90000A6001680A6822F001020A601A4A0168C4
:100BA000914201D1012121E0174A1432914201D131
:100BB00010211BE0144A2832914201D1891515E019
:100BC000114A3C32914201D189140FE00E4A503251
:100BD000914202D14FF4803108E00B4A64329142D5
:100BE00002D14FF4801101E04FF08071064A083ABB
:100BF0005160012180F82110002180F82010416B04
:100C000001B18847204610BD080002402DE9F05F81
:100C1000C16B0C6801680B68D0F840C0042202FA6E
:100C20000CF2494DDFF824A1494E4A4FDFF828B1B4
:100C3000DFF828E122422CD05A072AD50A6892060A
:100C400003D40A6822F004020A600168A94201D1B3
:100C5000042219E0514501D1402215E0B14202D1F0
:100C60004FF4806210E0B94202D14FF480420BE0B1
:100C7000594502D14FF4802206E0714502D14FF46C
:100C8000800201E04FF080622F4908394A60C16A52
:100C90003BE04FF0020808FA0CF818EA040F4FF096
:100CA00000094FF0010235D05FEA837832D50B6836
:100CB0009B0605D40B6823F00A030B6080F8212003
:100CC0000168A94201D1022219E0514501D1202237
:100CD00015E0B14202D14FF4007210E0B94202D1E6
:100CE0004FF400520BE0594502D14FF4003206E0B8
:100CF000714502D14FF4001201E04FF00072124929
:100D000008394A6080F82090816A00291AD0BDE82D
:100D1000F05F0847082505FA0CF5254212D01B079D
:100D200010D50B6823F00E030B6090F84010C36BD6
:100D300002FA01F15960826380F8212080F8209046
:100D4000016BE2E7BDE8F09F080002401C00024092
:100D50003000024044000240580002406C00024053
:100D600030B528B308C8134914221944B1FBF2F175
:100D70008900C16310498163022141771A6843F6F3
:100D8000F0718A43D0E900142143D0E902452C4395
:100D90002143046921434469214384692143114368
:100DA000196000214163012242770177084630BD76
:100DB000012030BDF8FFFDBF000002402DE9F84FD3
:100DC000DFF8B8910024A9F1040B23460F2709F19D
:100DD000040AABF1040EC9E00125A5402A40AA424D
:100DE0007DD1674ED1F804C0ACEB0608B44532D0D3
:100DF00014DCBCF1030F3AD009DCBCF1000F2AD09F
:100E0000BCF1010F1CD0BCF1020F31D11DE0BCF1CF
:100E1000110F17D0BCF1120F2AD119E0B8F5881FB5
:100E200019D006DCB8F5803F15D0B8F5801F1FD16A
:100E300011E0B8F5001F0ED0B8F5041F18D10AE074
:100E4000CB6815E0CB681B1D12E0CB6808330FE0C0
:100E5000CB680C330CE08B682BB1012B4FF00803EF
:100E600003D0456104E0042302E0056100E00023B3
:100E7000FF2A01D8064601E000F104064FEA840586
:100E800001D9A5F12005D6F8008007FA05FC28EA6B
:100E90000C0803FA05F548EA0508C6F800804D6815
:100EA000ED0062D5374DAE6946F00106AE61AD6921
:100EB00024F0030605F001050095334D06EB050C03
:100EC000DCF80850A607360F07FA06F825EA0805E9
:100ED000DFF8B880404503D14FF0000817E044E048
:100EE000DFF8AC80404502D14FF001080FE0DFF899
:100EF000A480404502D14FF0020808E0DFF8988056
:100F0000404502D14FF0030801E04FF0040808FA11
:100F100006F848EA0508CCF808804D68D9F8006062
:100F2000ED024D4601D5164300E096432E604D6814
:100F3000DAF80060AD02554601D5164300E096434D
:100F40002E604D68DBF80060AD035D4601D51643A9
:100F500000E096432E604D68DEF80060ED037546B4
:100F600001D5164300E096432E60641C0D682A46A6
:100F7000E5407FF431AFBDE8F88F00000804014080
:100F80000000111000100240000001400008014064
:100F9000000C014000100140001401400AB1016141
:100FA00070470904FBE700000148806870470000B3
:100FB0000C00002070B5040025D094F83D000025F9
:100FC00020B984F83C50204600F0B8F8242084F87A
:100FD0003D002068016821F001010160206801687E
:100FE00041F4004101602068016821F40041016082
:100FF00000F086FA4D4A6168914201D84C4900E000
:101000004C49884201D2012070BD4B492368B0FB96
:10101000F1F15E6826F03F060E435E60636893421E
:1010200006D94FF4967359434FF47A73B1FBF3F139
:101030002368491C1E6A26F03F0631431962616825
:10104000914210D84900401EB0FBF1F2521CC2F38D
:101050000B02042A01D2042022E0B0FBF1F0401C74
:10106000C0F30B001CE0A268F2B301EBC10303EB79
:101070000116431EB3FBF6F35B1C43F480431B05D0
:1010800049D092B301EBC10202EB0111401EB0FB4B
:10109000F1F0401CC0F30B0040F4804040F40040ED
:1010A0002168CA694CF6FF739A431043C861D4E9BA
:1010B000071001432068026822F0C002114301605A
:1010C000D4E9030101432068826848F2FF339A4360
:1010D00011438160D4E9050108432168CA6822F000
:1010E000FF021043C86001E00EE016E020680168CE
:1010F00041F0010101602564202084F83D00256352
:1011000084F83E50002070BD01EB4106431EB3FB46
:10111000F6F35B1CB3E70120C2E701EB4101401E7F
:10112000B0FBF1F0401CC0F30B00B7E7A086010054
:1011300080841E0000093D0040420F0010B586B0BB
:1011400000210091019102910391006813498842A6
:1011500022D1134CA06940F00800A061A069694643
:1011600000F0080004904FF44070009012200190AD
:10117000032003900B48FFF721FE0B48416841F024
:10118000E06141F002014160E06940F40010E0617B
:10119000E06900F40010049006B010BD0054004057
:1011A00000100240000C014000000140024881682C
:1011B00002781144816070470C000020074810B588
:1011C000016841F010010160032000F07BF80F205E
:1011D00000F006F800F024F8002010BD00200240C6
:1011E00070B50D4D04464FF47A712878B1FBF0F0DC
:1011F0000A490968B1FBF0F000F058FB48B9102C1F
:1012000007D200222146501E00F03CF800206C60FE
:1012100070BD012070BD00000C00002018000020EF
:101220000F4808B5816941F001018161816901F0D0
:1012300001010091C16941F08051C161C069002282
:1012400000F0805000900F21901E00F01BF8054820
:10125000416821F0E06141F00071416008BD00008B
:101260000010024000000140002809DB00F01F02CE
:10127000012191404009800000F1E020C0F80011F8
:1012800070470000F0B40E4B1B680C46C3F30223FA
:10129000C3F10705042D00D90425191D072901D222
:1012A000002300E0DB1E012606FA05F1491E21405D
:1012B00099409E40761E16403143F0BC01F0C9BCF7
:1012C0000CED00E0064900F0070208684FF6FF0346
:1012D000184040EA0220034A1043086070470000AB
:1012E0000CED00E00000FA052DE9F8430546007812
:1012F000354CC00754D0E0690026C00008D4E0692E
:1013000040F08050E061E069012600F080500090DC
:101310002E480168C90512D40168804641F48071E5
:101320000160FFF741FE074605E000BFFFF73CFE06
:10133000C01B642823D8D8F80000C005F6D5206A61
:1013400010F4407021D0A98801F4407181421CD072
:10135000206A1F49012220F440700A6000220A60BE
:101360002062C00711D0FFF71FFE074641F2883800
:1013700008E000BFFFF718FEC11B414502D903205A
:10138000BDE8F883206A8007F4D5206A696820F4F4
:101390004070084320621EB1E06920F08050E06197
:1013A0002878800705D56068A96820F44040084384
:1013B00060602878C00605D56068E96820F4800080
:1013C000084360600020DBE700100240007000402E
:1013D000400442422DE9F0470F46050061D0434EDC
:1013E000306800F00700B84209D2306820F00700EA
:1013F00038433060306800F00700B84251D12868A7
:101400003B4C810712D5400703D5606840F4E0608B
:1014100060602878000703D5606840F46050606021
:101420006068A96820F0F000084360602878C00771
:1014300028D06868012810D02168022810D08907B8
:1014400000292EDA616821F0030101436160FFF792
:10145000ABFD804641F288390DE021688903EFE752
:101460008901EDE7FFF7A0FDA0EB0801494502D98E
:101470000320BDE8F0876068696800F00C00B0EBFD
:10148000810FEFD1306800F00700B8420BD9306807
:1014900020F0070038433060306800F00700B842A1
:1014A00001D00120E5E72878400705D56068E968A4
:1014B00020F4E060084360602878000706D5606883
:1014C000296920F4605040EAC100606000F038F8FB
:1014D0006168084AC1F30311515CC84006490860BD
:1014E00006480068FFF77CFE0020C2E700200240AB
:1014F00000100240D636000818000020100000201E
:101500000448054900684968044AC1F30221515C56
:10151000C84070471800002000100240E63600085E
:101520000448054900684968044AC1F3C221515C76
:10153000C84070471800002000100240E63600083E
:101540000E4A51680E4801F00C03042B11D0082BF1
:101550000FD10C48C1F38343C903C05C0AD551685D
:10156000084AC1F34041921E515C054A5043B0FB0A
:10157000F1F07047044948437047000000100240F2
:1015800000127A00C636000800093D002DE9F84F28
:10159000040070D02078C04DC00749D06868C0F3FF
:1015A0008100012807D06868C0F38100022809D1B2
:1015B0006868C00306D52868800339D560680028AC
:1015C000E7D035E06068B0F5803F0BD010B1B0F5E2
:1015D000A02F11D0286820F480302860286820F4DB
:1015E000802002E0286840F480302860606890B174
:1015F000FFF7DAFC06460AE0286840F480202860FD
:10160000F0E700BFFFF7D0FC801B642873D8286880
:101610008003F7D50CE0FFF7C7FC064605E000BFE6
:10162000FFF7C2FC801B6428F0D828688003F7D439
:1016300020789A4E80074FF001094FF0000839D505
:10164000686810F00C0F07D06868C0F381000228AA
:1016500009D16868C00306D42868800714D52069BA
:10166000012808D110E02069B0B1C6F80090FFF75A
:101670009BFC074605E00AE1FFF796FCC01B022829
:10168000C4D828688007F7D52868616920F0F80079
:1016900040EAC10028600DE0C6F80080FFF784FC36
:1016A000074604E0FFF780FCC01B022823D8286807
:1016B0008007F7D4207800072CD57948A169D9B1E3
:1016C000C0F80090FFF770FC074604E0FFF76CFCE1
:1016D000C01B02280FD8686A8007F7D571484FF4FD
:1016E000FA510068B0FBF1F0009000BF0098411E75
:1016F0000091FAD20EE080E0C0F80080FFF754FCC1
:10170000074604E0FFF750FCC01B022875D8686A42
:101710008007F7D42078400760D5E8690027C0002B
:1017200008D4E86940F08050E861E869012700F0DA
:10173000805000905C480168C90513D40168834655
:1017400041F480710160FFF72FFC824606E000BF84
:10175000FFF72AFCA0EB0A0064284ED8DBF8000053
:10176000C005F5D5E06801280AD008B1052813D0D6
:10177000286A20F001002862286A20F0040002E0B4
:10178000286A40F001002862E06841F2883B98B185
:10179000FFF70AFC82460BE0286A40F0040028624A
:1017A000EEE700BFFFF700FCA0EB0A0159455AD84D
:1017B000286A8007F6D50CE0FFF7F6FB824605E0C5
:1017C000FFF7F2FBA0EB0A0159454CD8286A8007C5
:1017D000F6D41FB1E86920F08050E861E06988B371
:1017E0006968C1F38101022944D00228C6F86080EB
:1017F00004D0FFF7D9FB044638E034E0FFF7D4FB10
:10180000074604E0FFF7D0FBC01B02282BD828684E
:101810008001F7D4206AB0F5803F05D16868A168DF
:1018200020F4003008436860D4E90801084369687F
:1018300021F4741108436860C6F86090FFF7B4FBA8
:10184000044606E025E000BFFFF7AEFB001B0228C0
:1018500009D828688001F7D51BE000BFFFF7A4FB7B
:10186000001B022802D90320BDE8F88F28688001F8
:10187000F4D40EE00128F7D06868226A00F48031C1
:10188000914204D1616A00F47010884201D00120B5
:10189000EAE70020E8E700000010024000004242B2
:1018A00080044242180000200070004010B5401E25
:1018B000B0F1807F01D3012010BD4FF0E0246061C2
:1018C0000F21601701F0C5F90020A06107202061F9
:1018D000002010BD7047704710B590F83C20012AD9
:1018E00022D0012280F83C20CA688C6822F4407221
:1018F00022434C6822F4806222430C6822F4006286
:1019000022430C6922F4805222434C6922F4005293
:101910002243C969002322F480420A4301684A64D1
:1019200080F83C30002010BD022010BD70B590F84A
:101930003C20012A26D0012480F83C40022280F875
:101940003D2003685A689D6822F070060A68324399
:101950005A600D4B02689A4208D0B2F1804F05D010
:101960000A4B9A4202D00A4B9A4204D1496825F0A8
:1019700080031943916080F83D40002180F83C10BD
:10198000084670BD022070BD002C014000040040DC
:101990000008004010B5040003D094F83D0010B1D9
:1019A00007E0012010BD002084F83C00204600F034
:1019B0001FF8022084F83D00211D206800F03CFF44
:1019C000012084F8460084F83E0084F83F0084F843
:1019D000400084F8410084F8420084F8430084F811
:1019E000440084F8450084F83D00002010BD00004C
:1019F00008B50068B0F1804F12D10A48C16941F0C2
:101A00000101C161C069002200F0010000900521C0
:101A10001C20FFF737FCBDE808401C20FFF724BC62
:101A200008BD00000010024070B5044690F83C006C
:101A30000025012817D0012684F83C60022084F894
:101A40003D002068826822F0770222F47F428260A3
:101A50000868502838D00DDC20284FD005DC90B322
:101A6000102811D14AE0022070BD302846D040280D
:101A70000AD13BE060282FD070280DD0B0F5805FF0
:101A800003D0B0F5005F12D0012584F83D6000203E
:101A900084F83C00284670BDCB68D1E9012120685C
:101AA00000F000FF2068816841F0770109E0CB6811
:101AB000D1E90121206800F0F5FE2068816841F439
:101AC00080418160E1E719E0CA684968206800F058
:101AD0009DFF5021206806E0CA684968206800F030
:101AE000A6FF6021206800F0E7FECEE7CA684968DB
:101AF000206800F08BFF40212068F4E7226801464F
:101B00001046F0E72DE9F0410D46040003D094F8AB
:101B10003D0018B108E00120BDE8F081002084F804
:101B20003C00204600F040F8022084F83D00206888
:101B3000816844F2070291438160211D206800F012
:101B40007BFE226890689169166A2B68AF6903432F
:101B500040F20330814341EA0721A868EF69084356
:101B60004FF6FC418843E96840EA072001432869B1
:101B70002F6A000140EA0730084369686D6926F062
:101B8000220646EA0515294393602268906154F8BD
:101B9000460B0162012004F81F09E0752076E0760B
:101BA0002077A0750020B7E700B585B0002100912F
:101BB0000191029103910068114988421ED1114898
:101BC000C16941F00201C161C16901F002010491E2
:101BD000816941F0040181618069694600F0040077
:101BE0000490C02000900848FFF7E8F800220C217C
:101BF0001D20FFF747FB1D20FFF736FB05B000BD9A
:101C0000000400400010024000080140704770B519
:101C10000446006801694FF00005C943890715D4DF
:101C2000C168C943890711D4E91E016101202077E9
:101C3000206880698007204602D0FFF7E7FF04E0B4
:101C400000F01BF9204600F05BF925772068016958
:101C5000C943490717D4C168C943490713D46FF072
:101C600004010161022020772068806910F4407F20
:101C7000204602D0FFF7CAFF04E000F0FEF820463D
:101C800000F03EF9257720680169C943090716D499
:101C9000C168C943090712D46FF00801016104202B
:101CA00020772068C0698007204602D0FFF7AEFF8A
:101CB00004E000F0E2F8204600F022F925772068E1
:101CC0000169C943C90617D4C168C943C90613D4F9
:101CD0006FF010010161082020772068C06910F4BE
:101CE000407F204602D0FFF791FF04E000F0C5F8E6
:101CF000204600F005F9257720680169C943C90726
:101D000008D1C168C943C90704D1891E01612046B1
:101D100000F0F7F820680169C943090609D4C168D1
:101D2000C943090605D46FF0800101612046FFF721
:101D3000D1FD20680169C943490609D4C168C94376
:101D4000490605D46FF040010161204600F0DAF841
:101D500020680169C94389060BD4C168C943890653
:101D600007D46FF0200101612046BDE87040FFF705
:101D7000B2BD70BD30B585B00021009101910291D6
:101D800003910068234A24490224244D904212D131
:101D9000886940F0040088618869694600F00400A1
:101DA00004904FF4C060CDE9000428460394FFF787
:101DB00005F805B030BDB0F1804FFAD1886940F028
:101DC00008008861886900F008000490886940F084
:101DD000040088618869694600F0040004904FF4AB
:101DE0008160CDE900040E480394FEF7E7FF4FF44D
:101DF0000040CDE90004694628460394FEF7DEFF63
:101E00000848416821F4407141F0E06141F44071BB
:101E10004160CEE7002C0140001002400008014064
:101E2000000C01400000014070B5044690F83C00F1
:101E3000002501280FD0012084F83C006AB1042A53
:101E40000FD0082A11D00C2A13D00125002084F8C5
:101E50003C00284670BD022070BD206800F034FDB3
:101E6000F4E7206800F058FDF0E7206800F080FDFE
:101E7000ECE7206800F0A8FDE8E7704710B5040023
:101E800003D094F83D0010B107E0012010BD002000
:101E900084F83C00204600F01FF8022084F83D0042
:101EA000211D206800F0C8FC012084F8460084F859
:101EB0003E0084F83F0084F8400084F8410084F834
:101EC000420084F8430084F8440084F8450084F814
:101ED0003D00002010BD000008B50068064988429A
:101EE00008D10648816941F400618161806900F48C
:101EF0000060009008BD0000002C0140001002406E
:101F0000704770477047704770470000F8B5016828
:101F100004460868CA684B6910F00F0F4FF00005BF
:101F200059D003F0010602F49077374365D0C1071A
:101F300005D0D10503D5616C41F001016164410711
:101F400005D5D90703D0616C41F0020161648107B6
:101F500005D5D90703D0616C41F004016164010724
:101F600007D502F02001314303D0616C41F0080134
:101F70006164616C00293AD0800604D5900602D5D0
:101F8000204600F095FD20684069616CC0F3801028
:101F9000090700D460B3204600F063FD2068406963
:101FA000400621D52068143050E8001F21F0400180
:101FB00040E80012002AF5D1E06BA8B16D494163F9
:101FC000E06BFEF7D7FD002811D0E06B416B01B04C
:101FD000BDE8F040084783060FD593060DD520468F
:101FE000BDE8F84000F064BD2046FFF78DFFF8BD66
:101FF0002046FFF789FF6564F8BD266B2023012E7C
:102000007CD1C6067AD5D60678D50868486800908F
:1020100048694FF00206400640D5E16B0868406809
:102020000004000CE8D0A28D8242E5D9E0858869E1
:1020300020282DD020680C3050E8001F21F480713A
:1020400040E80012002AF5D12068143050E8001F43
:1020500021F0010140E80012002AF5D12068143077
:1020600050E8001F21F0400140E80012002AF5D19D
:1020700084F84230256320680C3050E8001F21F0BE
:10208000100140E80012002AF5D1E06BFEF74EFD8A
:102090006663A08DE18D401A81B22AE0A08DE18DAA
:1020A000401A81B2E08D0028A6D00029A4D0226871
:1020B0000C3252E8000F20F4907042E80007002F25
:1020C000F5D12068143050E8002F22F0010240E8DA
:1020D0000027002FF5D184F84230256320680C30AA
:1020E00050E8002F22F0100240E80023002BF5D129
:1020F00066632046FFF707FFF8BDFFE705062BD50F
:10210000150629D594F841002128F5D1A068B0F52D
:10211000805F01D12069B0B1206A411C2162216831
:1021200000784860E08C401E0004000CE084E3D19D
:102130002068C16821F08001C1602068C16841F059
:102140004001C160D8E7206A0088C0F308004860F9
:10215000206A801C2062E5E74006CDD55006CBD52D
:10216000CA68204622F04002CA6084F8413000F07C
:10217000EEF8C1E7532A000870B5040004D094F8C3
:102180004100002510B106E0012070BD84F84050E8
:10219000204600F023F8242084F841002068C1681C
:1021A00021F40051C160204600F0E4FC2068016980
:1021B00021F4904101612068416921F02A014161C7
:1021C0002068C16841F40051C1606564202084F832
:1021D000410084F842006563002070BDF0B585B011
:1021E0000024009401940294039406464F4D036822
:1021F0004F48022103228027AB423FD1836943F439
:1022000080438361836903F480430493836943F0CB
:10221000080383618069474D00F008000490402066
:10222000CDE90001039269462846FEF7C7FDCDE9D6
:102230000074694628460294FEF7C0FD3E48416896
:1022400041F0E06141F0040141603D4D3B48C5E98A
:102250000004C5E902472C616C61AC612846EC6161
:10226000FEF77EFD08B1FEF7D6F8F56300220C21DB
:1022700025206E62FFF706F8252052E0314DAB4273
:1022800051D1C36943F40033C361C36903F400331C
:102290000493836943F00403836180692A4D00F04D
:1022A000040004900420CDE9000103926946284609
:1022B000FEF784FD0820CDE9000469462846029413
:1022C000FEF77CFD1E4D1D4844351430C5E9000461
:1022D000C5E902472C616C61AC612846EC61FEF7F0
:1022E0003FFD08B1FEF797F8F5636E62144D134891
:1022F0008835283001C5102091C5114845F810498E
:1023000088306C61AC61EC61FEF72AFD08B1FEF724
:1023100082F8B56300220C2126206E62FEF7B2FF20
:102320002620FEF7A1FF05B0F0BD000000380140F7
:1023300000100240000C0140000001405800024023
:1023400090020020004400400008014070477047A0
:10235000FEE700003EB5002410480094019402946A
:102360000D498460016001250573047505614FF412
:1023700060214460C161FEF73FF908B1FEF74BF8F8
:102380000095CDE9015469460448FEF747F8002856
:1023900001D0FEF740F83EBD002401407C00002043
:1023A000104810B50E49016009214160890781601C
:1023B00000214FF48022C0E90312920042610176AD
:1023C000417681760122C27601774177FEF7D7FA0E
:1023D000002803D0BDE81040FEF71DB810BD000076
:1023E00000640040AC000020114808B5416941F08C
:1023F000010141614069002200F0010000900E21BE
:102400000F20FEF73FFF0F20FEF72EFF00220E21C8
:102410001020FEF737FF1020FEF726FF00220521CF
:102420001120FEF72FFFBDE808401120FEF71CBF6A
:102430000010024010B590B0142211496846FDF713
:102440000FFF0021684600F043FC0E4C0C4914229B
:102450002060143105A8FDF703FF002105A800F056
:1024600037FC07496060142228310AA8FDF7F8FEFE
:1024700000210AA800F02CFCA06010B010BD0000E4
:10248000883600080000002070B586B00024184887
:102490000094019402940394816941F020018161C8
:1024A000816901F020010491816941F00401816199
:1024B000816901F004010491816941F008018161A1
:1024C00080690C4E00F008004FF4807504900022E3
:1024D00029463046FEF762FD01200095CDE9010452
:1024E0000220039069463046FEF768FC06B070BDD6
:1024F00000100240000801400D4810B50B49016072
:102500000C49416000214FF480428160C0E9031210
:1025100041618161C1610162FEF74CFD002803D079
:10252000BDE81040FDF777BF10BD0000005400402B
:10253000D4000020A086010010B592B000240F94B2
:102540001C2168461094FDF7BDFE202107A8FDF769
:10255000B9FE23482149C0E9001441F61F41C0E9F2
:102560000241046144618461FFF788FC08B1FDF712
:1025700052FF0F940FA91A481094FFF7D7F908B12A
:10258000FDF749FF00940194029403940494059488
:102590000422694612480694FFF746FC08B1FDF78D
:1025A0003AFF082269460E48FFF73EFC08B1FDF7E6
:1025B00032FF0794089409944FF400500A94CDE92F
:1025C0000B4007A906480E94FFF786F908B1FDF7FE
:1025D00022FF0348FFF7CEFB12B010BD002C0140D4
:1025E0002801002010B58EB00024079408940994A7
:1025F0000A940B941C2168460C94FDF763FE254851
:102600004FF08041C0E9001441F2BF21C0E902410E
:10261000802104618161FFF7BDF908B1FDF7FBFE80
:102620004FF48050079007A91A48FFF7FDF908B149
:10263000FDF7F1FE1748FFF721FC08B1FDF7EBFEAF
:102640000B940BA913480C94FFF770F908B1FDF730
:10265000E2FE009401940294002269460D4804941D
:10266000FFF7E2FB08B1FDF7D6FE042269460948F0
:10267000FFF7DAFB08B1FDF7CEFE082269460548F0
:10268000FFF7D2FB08B1FDF7C6FE0248FFF772FB69
:102690000EB010BD7001002010B58CB0242168462A
:1026A000FDF710FE00241548099413490A94C0E967
:1026B00000144FF6FF71C0E90241046184610120FA
:1026C000CDE90004CDE902040494CDE90540079466
:1026D00069460A480894FFF715FA08B1FDF79BFE12
:1026E000099409A905480A94FFF720F9002801D0A8
:1026F000FDF791FE0CB010BD00040040B8010020B1
:102700000C4810B50A4901604FF4E13141600021E5
:1027100081600C22C160C0E904128161C161FFF7D0
:102720002BFD002803D0BDE81040FDF774BE10BD9E
:1027300000380140000200200C4810B50A49016031
:102740004FF4E1314160002181600C22C160C0E999
:1027500004128161C161FFF70FFD002803D0BDE8BD
:102760001040FDF758BE10BD004400404802002054
:10277000FEE7FEE7012000F09FFAFBE7012000F0F2
:102780009BFAFBE7012000F097FAFBE710B5FEF794
:102790000DFD00F0A5FE012803D0BDE8104000F0BB
:1027A0005DBE10BD30B593B028216846FDF78AFDA7
:1027B00014210AA8FDF786FD002501200F9510952C
:1027C0001195010412958DE8230004904FF4E01058
:1027D000CDE90810022407946846FEF7D7FE08B139
:1027E00072B6FEE70AA90F2081E831004FF480603D
:1027F000CDE90D0502210AA8FEF7ECFD08B172B67D
:10280000FEE74FF4004011900F940FA8FEF76CFD07
:10281000002801D072B6FEE713B030BD704700004B
:102820000148FFF7F4B90000700100200148FFF7EC
:10283000EEB90000B8010020F0B50268164B174C45
:10284000174D4FF08047984205D0B84203D0A042C0
:1028500001D0A84203D122F070064A683243984260
:1028600005D0B84203D0A04201D0A84203D122F43F
:102870004074CA6822434C6922F0800222430260FD
:102880008A68C2620A688262984201D1096901635A
:1028900001214161F0BD0000002C01400004004016
:1028A0000008004010B5846842EA032224F47F4403
:1028B0000A432243826010BD826822F070020A43FC
:1028C00042F007018160704730B5036A026A22F066
:1028D000010202624268846924F073050C682C438B
:1028E00023F002058B682B430A4DA8420BD123F03D
:1028F0000805CB6822F440722B434D6923F0040392
:1029000015438A692A4342608461496841630362CE
:1029100030BD0000002C014030B5026A036A23F08C
:1029200010030362436884690D6824F4E64444EAB2
:1029300005248D6822F0200242EA05120B4DA842C0
:102940000ED1CD6822F0800242EA05124D6923F4CF
:10295000406343EA85038D6922F0400243EA850320
:102960004360846149688163026230BD002C01408C
:1029700030B5036A026A22F4807202624268C46956
:1029800023F4007324F073050C682C438D6843EA2C
:1029900005230C4DA8420ED1CD6823F4006343EA11
:1029A00005234D6922F4405242EA05128D6923F451
:1029B000806342EA05124260C4614968C1630362F0
:1029C00030BD0000002C014030B5046A026A22F4D8
:1029D000805202624268C3690D6823F4E64343EA09
:1029E00005238D6824F4005444EA0534064DA842BA
:1029F00004D14D6922F4804242EA85124260C361EB
:102A000049680164046230BD002C014010B5036ABE
:102A1000046A24F001040462846924F0F00444EAA6
:102A2000021423F00A020A438461026210BD10B549
:102A3000036A046A24F010040462846923F0A0038A
:102A400024F4704444EA023243EA011182610162D3
:102A500010BD10B5406A0021C185C184FFF754FA4A
:102A600010BD01680C3151E8002F22F4907241E84A
:102A70000023002BF5D10168143151E8002F22F01A
:102A8000010241E80023002BF5D1016B012909D196
:102A900001680C3151E8002F22F0100241E80023B8
:102AA000002BF5D1202180F84210002101637047EE
:102AB00008B590F84210222901D0022008BD826892
:102AC0004FF480539A4201D1016921B1816A9A423F
:102AD0001BD04AB10AE00268816A5268C2F3080258
:102AE0000A80816A891C08E0026972B10268526832
:102AF00002F07F020A70816A491C8162C18D491E01
:102B00000904090CC18503D01BE002685268F1E793
:102B10000168CA6822F02002CA600168CA6822F40B
:102B20008072CA6001684A6922F001024A6120216C
:102B300080F8421000214163026B012A03D0FFF7A5
:102B400005FC002008BD016301680C3151E8002F2D
:102B500022F0100241E80023002BF5D101680A6839
:102B6000D20602D50A6849680091818DFFF7CBF93A
:102B7000E7E7000070B5044600680169E26821F4E7
:102B80004051114301612169A0680843616908430C
:102B90002168CA6841F20C639A430243CA60206804
:102BA0004169A26921F44071114341611E492068C5
:102BB000884202D1FEF7B4FC01E0FEF7A1FC00EB75
:102BC000C00101EB0012606864218000B2FBF0F3E9
:102BD000B3FBF1F36FF018067343B2FBF0F5B2FBF1
:102BE000F0F605EB8305322303EB0515B5FBF1F594
:102BF000B6FBF1F605F0F00505EB0615B2FBF0F6B5
:102C0000B2FBF0F0B0FBF1F06FF01802504306EBAE
:102C1000800003EB0010B0FBF1F0216800F00F0022
:102C20002844886070BD0000003801400148FFF76B
:102C30006DB90000000200200148FFF767B90000ED
:102C4000480200200148FDF79CBD0000AC000020B8
:102C5000FEE70907090E002804DB00F1E02080F8F8
:102C60000014704700F00F0000F1E02080F8141D00
:102C70007047FEF7A3FAFFF795FDFFF705FCFFF796
:102C8000B3FBFFF73DFDFFF757FDFFF755FCFFF7DF
:102C9000A9FCFFF785FBFFF72FFCFFF7FDFCFFF713
:102CA00059FBFFF7C7FB00F00EF8FEE701460020D6
:102CB000842900D0C81C704710B500B9012000F06D
:102CC000E9FA002010BD10B500F00AFB002010BD8D
:102CD0003EB504460D46B0F90800FFF7E7FF02A92C
:102CE000CDE90001208A2B4682B2D4E9001000F021
:102CF000CBFB012801D000203EBD02983EBD000064
:102D00002DE9F041184C0F46054666692068001D04
:102D100000F006FA38B9206890F82C10012088409D
:102D2000A1698143A161681C07D137B12168BDE861
:102D3000F0410E48091D00F02CBA20683544B54218
:102D40004560216805D2A068BDE8F041091D00F08A
:102D500008BA6068091D00F004FA206B854200D2B1
:102D60002563BDE8F08100001C0000204C04002019
:102D70002DE9F041054600F019FA2E4C2069401C5F
:102D8000206120682C4F10B1E06940B32DE0256030
:102D90002069012829D1002606EB860007EB800078
:102DA00000F0D1F9761C082EF6D32348A03000F0AD
:102DB000CAF92148B43000F0C6F91F48C83000F005
:102DC000C2F91D48DC3000F0BEF91B48F03000F0BD
:102DD000BAF91948A03060601430A06005E020689E
:102DE000E96AC06A884200D82560E06A401CE06257
:102DF000E96A0120A26988401043A06101EB8100CB
:102E000007EB8000291D00F0C4F900F0EFF9E0693C
:102E100000280CD02068E96AC06A884207D20749B6
:102E20004FF080500860BFF34F8FBFF36F8FBDE846
:102E3000F08100001C0000205C03002004ED00E095
:102E400010B50446006B00F0E5F92046BDE81040DF
:102E500000F0E0B910484FF44061420706D0C01DB1
:102E60000D4920F00700411AC1F540610B4A0023CB
:102E70000144C2E900030839103A21F0070111604A
:102E80004B600B600B1AC0E9001393604FF00040D9
:102E90005360D0607047000060040020680000208C
:102EA000144E154CA6F1DC074FF08058DFF84C901B
:102EB00012E000BF00F07AF9F068C568281D00F044
:102EC0002FF92069401E2061E068401EE06000F09C
:102ED0008DF92846FFF7B4FFE0680028EAD138688A
:102EE0000128F9D9C9F80080BFF34F8FBFF36F8F66
:102EF000F2E70000380400201C00002004ED00E090
:102F00002DE9F0479A46DDE9098481466FF0030315
:102F1000206B03EB82021044089D20F00706700727
:102F200007D0502080F31188BFF34F8FBFF36F8F0E
:102F3000FEE723180A5C83F834200A5C12B1401CB7
:102F40001028F6D3002784F84370082D00D30725F6
:102F5000E562C4E91157201D00F000F904F11800E2
:102F600000F0FCF82461C5F108006462A061E76428
:102F700084F8507052464946304600F0BFF8206051
:102F8000B8F1000F01D0C8F80040BDE8F08700009C
:102F900030B5114900E011460A688242FBD34B6804
:102FA0005C18844203D1406818444860084643686E
:102FB0001C18944209D1084C103C2468A24209D044
:102FC00052681A4442600A6812680260814200D066
:102FD000086030BD0460F9E76800002006484168D9
:102FE000096829B14168C968C968496801637047BF
:102FF0004FF0FF31FAE700001C000020084840684D
:10300000401C4FF0500080F3118804D0BFF34F8F65
:10301000BFF36F8FFEE7BFF34F8FBFF36F8FFEE7F6
:10302000700000202DE9F0410546002700F08CF9E2
:10303000314E306808B9FFF70DFFF06805424BD1FB
:10304000C5B3083568070ED005F00700C0F10800C9
:103050000544680707D0502080F31188BFF34F8FD5
:10306000BFF36F8FFEE72DB37068854234D82248D6
:10307000103001460C6801E020460C466168A94208
:1030800002D221680029F7D131688C4224D0076828
:103090002168016060680837411B10290FD9601949
:1030A000420708D0502080F31188BFF34F8FBFF341
:1030B0006F8FFEE710E041606560FFF769FF6168B0
:1030C0007068401A7060B268904200D2B060F068D8
:1030D00001430020C4E9000100F074FA780707D02A
:1030E000502080F31188BFF34F8FBFF36F8FFEE73F
:1030F0003846BDE8F08100005800002010B5031FDD
:103100004FF080741C601B1F21F001011960191F12
:10311000024B0B60143940380A6010BDFD2F0008C7
:10312000D0E9013201699A60D0E901235A604A6806
:10313000824201D182684A60002202610868401E12
:1031400008600868704700F108014FF0FF32C0E9DD
:103150000112C1600161002101607047002101611D
:10316000704730B50B685A1C02D000F1080202E02B
:10317000026904E02246546825689D42FAD95368E2
:103180004B6099608A60516008610168491C016068
:1031900030BD42684A6093688B6093685960916063
:1031A00008610168491C016070470000502080F3ED
:1031B0001188BFF34F8FBFF36F8F0A494868401CD7
:1031C000486001280CD10848006810F0FF0F07D0B4
:1031D000502080F31188BFF34F8FBFF36F8FFEE74E
:1031E000704700007000002004ED00E008494868C6
:1031F00028B1401E486001D180F3118870475020EB
:1032000080F31188BFF34F8FBFF36F8FFEE700008D
:103210007000002070B5002827D0144DA0F10804DC
:103220006168E868014207D1502080F31188BFF33C
:103230004F8FBFF36F8FFEE722683AB1502080F3C3
:103240001188BFF34F8FBFF36F8FFEE7814361603B
:1032500000F07AF860686968084468602046FFF703
:1032600097FEBDE8704000F0ADB970BD5800002079
:103270004FF0E02000210161816105494FF47A722D
:103280000968B1FBF2F1491E4161072101617047F4
:103290001800002010B5020014D00F48806B38B120
:1032A000502080F31188BFF34F8FBFF36F8FFEE77D
:1032B00000F04AF800211046FFF722FD00F082F9E5
:1032C000002807D105494FF080500860BFF34F8FA9
:1032D000BFF36F8F10BD00001C00002004ED00E064
:1032E0001CB515480024CDE900402346802213A1D7
:1032F000144800F0C9F8012809D0401C1AD1502008
:1033000080F31188BFF34F8FBFF36F8FFEE750201C
:1033100080F31188BFF34F8FBFF36F8F06484FF0D4
:10332000FF31343801630121C1614461BDE81C40B3
:1033300000F040B81CBD00005000002049444C453E
:1033400000000000A12E00080248816B491C816327
:10335000704700001C0000201448816B11B101214E
:1033600041627047002141628169B1FA81F1C1F186
:103370001F0101EB81020E4951F822306BB101EBC4
:10338000820101F108034A6852684A609A4201D1F9
:1033900052684A60D16801607047502080F31188FC
:1033A000BFF34F8FBFF36F8FFEE700001C000020BC
:1033B0005C0300201CB5264908780190FF200870A6
:1033C00008788DF800009DF800009DF8002000F0BE
:1033D000F000904207D0502080F31188BFF34F8F48
:1033E000BFF36F8FFEE79DF800001A4B00F050000E
:1033F00018700720986005E09DF8002052008DF8B5
:103400000020401E9DF800201206F5D49860032885
:1034100007D0502080F31188BFF34F8FBFF36F8F19
:10342000FEE74FF440709860019808700A48016800
:1034300041F470010160016841F070410160FFF7E3
:1034400017FF00205860FCF7B1FE00201CBD0000F3
:1034500000E400E07000002020ED00E010B55020F6
:1034600080F31188BFF34F8FBFF36F8F00F046F8E2
:1034700018B104494FF080500860002080F3118893
:1034800010BD000004ED00E02DE9FF5F8346DDE99B
:103490000E87994616468A469000FFF7C3FD050041
:1034A0001AD05420FFF7BEFD040012D0256300217E
:1034B000CDE90241CDE900874B4632465146584698
:1034C000FFF71EFD2046FFF753FC012004B0BDE8C6
:1034D000F09F2846FFF79EFE4FF0FF30F6E7000012
:1034E0000548C16919B1806B18B1002070470120EF
:1034F00070470220704700001C0000202DE9F041B9
:103500002E4C0027A06B40B1206A401C2062606AEC
:1035100000B101273846BDE8F0816669761C666116
:1035200013D16068006838B1502080F31188BFF370
:103530004F8FBFF36F8FFEE76068A1686160A06086
:10354000A06A401CA062FFF749FD206BDFF8708085
:10355000864209D36068006880B16068C068C56849
:10356000686886420DD220632068C06A00EB800143
:1035700058F821000128CAD90127C8E74FF0FF30C9
:10358000F1E7281DFFF7CCFDA86A18B105F1180076
:10359000FFF7C6FDE86A0121A26981401143A161DC
:1035A00000EB800108EB8100291DFFF7F2FDE86ABE
:1035B0002168C96A8842CDD30127CBE71C000020CF
:1035C0005C0300202DE9F0472C4D00242746A86B12
:1035D00038B1FFF7EBFDA86B401EA863A86B40B1A4
:1035E00046E0502080F31188BFF34F8FBFF36F8FF9
:1035F000FEE72969224E0120D1B3A6F1C809804611
:103600003068E8B1F068C46804F11800FFF788FD7D
:10361000201DFFF785FDE06AAA6908FA00F1114351
:10362000A96100EB800109EB8100211DFFF7B1FDCD
:10363000E06A2968C96A8842E2D3C5F82480DFE7D6
:103640000CB1FFF7CBFC2C6A44B14646FFF756FF9E
:1036500000B16E62641EF9D100202862686A38B138
:103660000849012738070860BFF34F8FBFF36F8FFA
:10367000FFF7BCFD3846BDE8F08700001C000020C5
:103680002404002004ED00E0083700087527000836
:10369000000000000000000080000000F03600087C
:1036A0007D270008FEFF00000000000080000000F1
:1036B000FC36000885270008FEFF0000000000001F
:1036C00080000000010202030405060708090A0B36
:1036D0000C0D0E0F10100000000000000000010291
:1036E00003040607080900000000010203040000AB
:1036F0006D795461736B3032000000006D79546154
:10370000736B30330000000064656661756C74543F
:1037100061736B0034370008000000207C0000005B
:1037200028010008B03700087C0000204416000083
:10373000440100080000000000000000000000003C
:103740000100000010000000000000000024F40050
:103750000000000000000000000000000000000069
:103760000000000000000000000000000000000059
:103770000000000000000000000000000000000049
:103780000000000000000000000000000000000039
:103790000000000000000000000000000000000029
:1037A0000000000000000000AAAAAAAA0000000071
:04000005080000ED02
:00000001FF
