:020000040800F2
:1000000038520020E9020008A92700085B240008F4
:10001000652700087D0500088D3B000800000000F2
:10002000000000000000000000000000290200089D
:100030001D07000800000000850200088D3500083B
:100040000303000803030008030300080303000878
:100050000303000803030008030300080303000868
:100060000303000803030008030300080303000858
:100070000303000803030008030300080303000848
:10008000610600086D060008030300088D050008DE
:1000900081050008030300080303000803030008A8
:1000A0000303000861360008030300080303000887
:1000B0000303000803030008030300080303000808
:1000C00003030008030300080303000803030008F8
:1000D0000303000803030008813B00080303000832
:1000E00003030008030300080303000803030008D8
:1000F00003030008030300080303000803030008C8
:1001000003030008030300080303000803030008B7
:1001100003030008030300080303000803030008A7
:100120000303000803030008030300080303000897
:10013000030300080303000803030008A5050008E3
:1001400003030008990500080303000803030008DF
:100150000303000803030008030300080303000867
:100160000303000803030008030300080303000857
:100170000303000803030008030300080000000055
:10018000030300080303000800F002F800F03CF845
:100190000AA090E8000C82448344AAF10107DA45E2
:1001A00001D100F031F8AFF2090EBAE80F0013F0F8
:1001B000010F18BFFB1A43F0010318470C4700005A
:1001C0002C470000103A24BF78C878C1FAD85207EB
:1001D00024BF30C830C144BF04680C6070470000C1
:1001E0000023002400250026103A28BF78C1FBD840
:1001F000520728BF30C148BF0B6070471FB504F0DD
:100200002DFB1FBD10B510BD00F08AF91146FFF798
:10021000F5FF03F001FD00F0A8F903B4FFF7F2FFCA
:1002200003BC03F0C4FC00002C4B19680868B0E85C
:10023000F04F80F30988BFF36F8F4FF0000080F319
:10024000118870470000000008480068006880F3CB
:1002500008884FF0000080F3148862B661B6BFF3DF
:100260004F8FBFF36F8F00DF00BF00BF08ED00E0CE
:10027000DFF80C00016841F470010160704700BFB5
:1002800088ED00E0EFF30980BFF36F8F134B1A681E
:100290001EF0100F08BF20ED108A20E9F04F10600B
:1002A00009B44FF0500080F31188BFF34F8FBFF3B4
:1002B0006F8F04F005F94FF0000080F3118809BC3E
:1002C00019680868B0E8F04F1EF0100F08BFB0ECD6
:1002D000108A80F30988BFF36F8F70476800002091
:1002E000EFF3058070470000094880470948004740
:1002F000FEE7FEE7FEE7FEE7FEE7FEE7FEE7FEE7D6
:10030000FEE7FEE704480549054A064B7047000032
:100310005136000889010008384C0020385200206E
:10032000384E0020384E0020704753EA020C00F08F
:1003300069802DE9F04B4FF00006002B1FBFB3FA88
:1003400083F503FA05F424FA05F65E4012BF16435E
:10035000B2FA82F502FA05F4C5F120051EBF22FAB1
:1003600005FC44EA0C04203556EA044C4FEA1444D8
:1003700018BF641C4FF000084FF00009904271EB69
:10038000030C39D3002919BFB1FA81F701FA07F636
:10039000B0FA80F700FA07F6C7F120071EBF20FA6F
:1003A00007FC46EA0C062037B6FBF4FCA7EB050772
:1003B000103F07F01F0BCBF120060CFA0BFB2CFAB9
:1003C00006F644BFB3460026202FA4BF5E464FF07A
:1003D000000B5BEA060C08BF4FF0010B19EB0B0991
:1003E000ABFB027C48EB0608C01B06FB02CC0BFBF8
:1003F00003CC71EB0C01C1E70B460246414648466F
:10040000BDE8F08B13B54FF000004FF00001AFF3E3
:100410000080BDE81C40704710B5203AC0F00B804A
:10042000B1E81850203AA0E81850B1E81850A0E8F8
:100430001850BFF4F5AF5FEA027C24BFB1E8185052
:10044000A0E8185044BF18C918C0BDE810405FEAC2
:10045000827C24BF51F8043B40F8043B08BF70473E
:10046000D20728BF31F8023B48BF11F8012B28BF43
:1004700020F8023B48BF00F8012B70474FF0000204
:100480000429C0F0128010F0030C00F01B80CCF1A6
:10049000040CBCF1020F18BF00F8012BA8BF20F814
:1004A000022BA1EB0C0100F00DB85FEAC17C24BF68
:1004B00000F8012B00F8012B48BF00F8012B704712
:1004C0004FF0000200B5134694469646203922BFED
:1004D000A0E80C50A0E80C50B1F12001BFF4F7AF38
:1004E000090728BFA0E80C5048BF0CC05DF804EB1A
:1004F000890028BF40F8042B08BF704748BF20F888
:10050000022B11F0804F18BF00F8012B7047704785
:10051000704770477047000000487047D84B002074
:100520007546FFF7F9FFAE4605006946534620F0D1
:100530000700854618B020B5FFF7E4FEBDE820406F
:100540004FF000064FF000074FF000084FF0000B8F
:1005500021F00701AC46ACE8C009ACE8C009ACE842
:10056000C009ACE8C0098D46704710B50446AFF32A
:1005700000802046BDE81040FFF74FBEFEE70000B8
:10058000014800F04ABA0000480D0020014800F080
:1005900044BA0000480D0020014800F03EBA0000B7
:1005A000700D0020014800F038BA0000700D0020E6
:1005B00030B587B00D4604461C216846FFF780FF22
:1005C00009492068884201D0012100E000212B4622
:1005D0006A46204600F0A7F9029810B1019807B0CA
:1005E00030BD0098FBE700000064004070B588B0A3
:1005F00015460C460646182207496846FFF70CFFC9
:100600000020069006AB2A4669460094304600F06A
:100610009AF808B070BD00006848000830B58BB08B
:1006200000210122CDE906120E23009101910291D1
:1006300009930391084D0468AC4201D105910491DE
:10064000064C0168A14201D1CDE904236946089214
:1006500000F0E2F80BB030BD0064004000680040DC
:10066000014800F029BD0000E00D0020014800F025
:1006700023BD0000400E002001681823CAB2103AC2
:10068000B2FBF3F2054B6FF30901032A9B5CC365D0
:1006900000D9091D81650846704700009C48000884
:1006A00010B5014600208B698A6A4FF0C07453B1BF
:1006B000B3F5005F15D072B1012A0CD0022A0AD01E
:1006C000032A09D104E01AB1012A06D0022A03D173
:1006D000C96AC90100D5012010BDC96AA142FAD07A
:1006E00010BD002AF7D0012AF2D0022AF3D0032A43
:1006F000F3D010BD30B50468256825F48025256049
:10070000046863608368402B036803D099600068C5
:10071000C26030BD9A600068C16030BD704772B67B
:10072000FEE790F82020012A07D0022A05D0416A6E
:1007300041F48021416201207047006842690A4308
:10074000426100207047F0B590F820500468A4681A
:10075000012D05D0022D03D0416A41F4802157E0DC
:1007600014F0406F01D1E5004FD5C4F301640125B9
:10077000A5401D608D684FF4C0739DB1CE683543B0
:100780004E6845EAC605066803EB0417F5514FF4B9
:10079000C275076805EB04150E697E51097D0129B4
:1007A00005D009E00E88CD6845EA4655EBE70168BB
:1007B0004E5946F480764E511179D579567941EAF1
:1007C000056195792D0445EA062529434FF4C6763F
:1007D000056806EB0416A9511178D57841EA056140
:1007E000957852782D0445EA022211434FF4C475DE
:1007F000026805EB04155151006803EB04114258DF
:1008000042F0010242500020F0BD416A41F4001163
:1008100041620120F0BD000010B590F82020012AAF
:1008200007D0022A05D0416A41F4802141620120AB
:1008300010BD3B48D0F8002242F00102C0F800226F
:10084000D0F8002222F47C52C0F80022D0F8002216
:100850004B6A42EA0322C0F800220A7D02F01F031D
:1008600001229A40D0F81C329343C0F81C32CB6965
:10087000B3B9D0F80C329343C0F80C328C894B6872
:1008800064F31F434C6900EBC404C4F840320C8984
:100890000B6864F31F434C6900EBC404C4F8443292
:1008A000CB69012B16D1D0F80C321343C0F80C32AF
:1008B0000C884B6864F31F434C6900EBC404C4F814
:1008C00040320C89CB6864F31F434C6900EBC404CD
:1008D000C4F844328B69002BD0F804320ED0134395
:1008E000C0F804320B69002BD0F8143208D013433F
:1008F000C0F81432096A012904D008E09343EFE7F5
:100900009343F5E7D0F81C121143C0F81C12D0F83D
:10091000001221F00101C0F80012002010BD0000FB
:1009200000640040704770B590F82040012C05D05D
:10093000022C03D0416A41F4802128E0046809B305
:100940002469A40720D04FF4D874056804EB01147F
:100950002D5915F00405956005682D591AD0ED083C
:10096000556005682C5904F00204D4604FF4DA7421
:10097000056804EB01142E5906F00F06082E0CD35F
:1009800008250DE0E468DCE7416A41F400114162AA
:10099000012070BD6D0D1560E3E72D5905F00F05C1
:1009A000156105682D59C5F30725956105682C5912
:1009B000240C54614FF4DC72046802EB0112A45859
:1009C0001C700468A458240A5C700468A458240CA1
:1009D0009C700468A258120EDA704FF4DE7204683C
:1009E00002EB0112A4581C710468A458240A5C711B
:1009F0000468A458240C9C710468A258120EDA7181
:100A0000006829B1016941F020010161002070BD39
:100A1000C16841F02001C160F8E72DE9F05F0546AB
:100A2000006800244669D0F804908768D0F80CB0BC
:100A3000D0F810A0D0F81880F10748D0F90714D0EA
:100A400001218160B80703D5284600F0D4FA0CE0F4
:100A5000780702D54FF4006407E0380702D54FF459
:100A6000805402E0284600F0C5FAF80516D529683A
:100A70004FF480708860B80503D5284600F0BDFAB1
:100A80000CE0780502D544F4005407E0380502D59F
:100A900044F4804402E0284600F0AEFAF80316D58C
:100AA00029684FF480308860B80303D5284600F0E9
:100AB000A6FA0CE0780302D544F4004407E03803BA
:100AC00002D544F4803402E0284600F097FA30075B
:100AD00007D55FEACB6004D52968102044F4007480
:100AE000C86070074FF0080707D55FEA0B7004D5A0
:100AF0002868C760284600F0ADF9B00706D5286819
:100B0000C068800702D0284600F0A6F9700607D515
:100B10005FEACA6004D52968102044F48064086143
:100B2000B00607D55FEA0A7004D528680761284631
:100B300000F0D0F9F00606D528680069800702D0D9
:100B4000284600F0C9F9B00308D55FEAC96005D5A9
:100B5000296810204860284600F01EFAF00307D5E7
:100B60005FEA097004D528684760284600F048FA13
:100B7000300446D55FEA497040D5F00504D55FEAF8
:100B8000C87001D044F00104B00504D55FEA887054
:100B900001D544F00204700504D55FEA487001D520
:100BA00044F00404300529D518F0700F26D008F061
:100BB0007000402815D006DC102809D020280AD063
:100BC000302816D10AE050280ED0602811D10EE04E
:100BD00044F008040DE044F010040AE044F020045E
:100BE00007E044F0400404E044F0800401E044F4F1
:100BF00080742868816921F070018161296804206E
:100C00004860002C05D0686A204368622846FFF7D8
:100C100089FEBDE8F09F70B5040003D094F8200071
:100C200010B104E0012070BD204600F081F820687A
:100C3000016841F00101016000F0AEFC05460526A7
:100C400004E000F0A9FC401B0A2811D82068406885
:100C5000C007F6D02068016821F00201016000F0B1
:100C60009BFC05460BE000F097FC401B0A2806D9C8
:100C7000606A40F40030606284F82060D2E7206847
:100C800040688007EFD4207E0128206801683DD0AD
:100C900021F080010160607E01282068016838D061
:100CA00021F040010160A07E01282068016833D056
:100CB00021F020010160E07E0128206801682ED02B
:100CC00041F010010160207F01282068016829D0CF
:100CD00021F008010160607F01282068016824D0AC
:100CE00021F004010160D4E902010843D4E90412AF
:100CF000114308436168491E08432168C861002008
:100D00006062012084F82000002070BD41F0800165
:100D1000C0E741F04001C5E741F02001CAE721F0FA
:100D20001001CFE741F00801D4E741F00401D9E711
:100D30002DE9F04387B0044614216846FFF7C0FB55
:100D4000404B4148DFF8F8801968D4F800C03E4AAB
:100D5000022503260927DFF8F49010300024491CEF
:100D6000C4452CD11960012907D1016841F00071F7
:100D70000160006800F000700590106840F002000B
:100D80001060106802AB00F0020005904FF4407054
:100D9000CDE9000583E8D0006946484600F0FEFA38
:100DA00000220521132000F08FFC132000F07EFCB0
:100DB00000220521142000F087FC14203AE0DFF81F
:100DC0009080C44538D1D0F800C04CF0806CC0F899
:100DD00000C0D0F800C001290CF0806CCDF814C020
:100DE000196007D1016841F000710160006800F0EE
:100DF00000700590106840F002001060106802ABAF
:100E000000F0020005906020CDE9000583E8D000E5
:100E10006946484600F0C2FA002205213F2000F052
:100E200053FC3F2000F042FC00220521412000F04D
:100E30004BFC412000F03AFC07B0BDE8F083000015
:100E4000006400405400002030380240000402409A
:100E5000006800407047000010B51A491A48FFF7B3
:100E6000A7FB80B2194CA0F5007001380ED0012804
:100E700015D002281CD0032807D11249144802F0CB
:100E80001BFB607840F00800607010BD10480D49F1
:100E9000783802F011FB607840F00100F4E70C486C
:100EA0000849503802F008FB607840F00200EBE798
:100EB00007480449283802F0FFFA607840F004003F
:100EC000E2E7000040000020480D00200000002064
:100ED000E80900207047000070B52A492A48FFF74A
:100EE00067FB80B2294C2A4DA0F50070013816D05E
:100EF000012825D0022835D0032832D1214905F513
:100F0000887001F02DFBD5F81801002829D0B5F81C
:100F10001001002825D0207840F0080020E01C486F
:100F20001849E03001F01CFBD5F8E800002818D083
:100F3000B5F8E000002814D0207840F001000FE060
:100F400013481049F03001F00BFBD5F8F8000028E9
:100F500007D0B5F8F000002803D0207840F0020058
:100F6000207070BD07490B4801F0FAFAD5F8080166
:100F70000028F6D0B5F800010028F2D0207840F023
:100F80000400EDE748000020700D00200000002064
:100F900030090020300A00207047000070B5044678
:100FA00090F82000012804D0606A40F400206062BC
:100FB00018E0022084F820002068016821F0010177
:100FC000016000F0E9FA05460EE000BF00F0E4FA27
:100FD000401B0A2808D9606A40F40030606205208E
:100FE00084F82000012070BD20684068C007EDD162
:100FF000606270BD704770477047704770477047B8
:1010000070472DE9F0410446876D00F0C5FA0646A9
:1010100094F835000025022806D08020606584F809
:1010200034500120BDE8F0812068016821F01601EC
:1010300001602068416921F080014161206C08B99C
:10104000A06C20B12068016821F0080101602068CF
:10105000016821F0010101600CE000F09DFA801BA5
:10106000052807D920206065032084F8350084F81E
:101070003450D7E720680068C007EED194F85C10C0
:101080003F208840B860012084F8350084F834504F
:101090000020C7E790F83510022903D08021416570
:1010A00001207047052180F835100068016821F0A3
:1010B00001010160002070472DE9F84304464FF01C
:1010C0000009CDF8009063484FF41651A56D0068F3
:1010D000B0FBF1F72E6894F85C10082000FA01F1DB
:1010E00031420FD021680A6852070BD50A6822F0F6
:1010F00004020A6094F85C108840A860606D40F0BB
:101100000100606594F85C104FF0010808FA01F0E6
:10111000304208D021684969090604D5A860606D8D
:1011200040F00200606594F85C1004208840304272
:1011300008D021680968890704D5A860606D40F06F
:101140000400606594F85C1010208840304218D08C
:1011500021680968090714D5A86020680168490357
:1011600004D50068000308D5A16C07E00168C90533
:1011700003D4016821F008010160216C09B1204607
:10118000884794F85C1020208840304231D0216894
:101190000968C9062DD5A86094F83500052820688F
:1011A000016806D0490347D5006800031DD4616C6F
:1011B0001CE021F0160101602068416921F08001E6
:1011C0004161206C08B9A06C20B12068016821F051
:1011D0000801016094F85C103F208840A86084F802
:1011E000358084F83490216D1FE0E16B09B1204611
:1011F0008847606D00282BD0606DC00714D0052093
:1012000084F835002068016821F001010160009830
:10121000401C0090B84203D820680068C007F6D18F
:1012200084F8358084F83490E16C002910D001B046
:101230002046BDE8F04308470168C905D5D40168D8
:1012400021F01001016084F8358084F83490CCE7F7
:10125000BDE8F883640000202DE9F041044600F069
:101260009BF906465CB1022084F83500002584F81D
:1012700034502068016821F0010101600DE0012077
:10128000BDE8F08100F088F9801B052805D92020F1
:101290006065032084F83500F2E720680068C00725
:1012A000F0D12268116820480140D4E901031843B5
:1012B000D4E903363343184363691843A3691843D9
:1012C000E3691843236A18430843616A042903D178
:1012D000D4E90B1319430843106020684069666A1B
:1012E00020F0070130460E43012704280CD1A06AE4
:1012F0000643E06A40B12046FFF7D2F920B1402012
:10130000606584F83570BAE7206846612046FFF7CB
:10131000B3F994F85C203F2191408160656584F8C1
:1013200035700020ACE700003F8010F02DE9F0415F
:101330000446866D90F83400002501280DD0012068
:1013400084F8340094F835700020012F07D084F819
:10135000340002252846BDE8F0810220FBE7022781
:1013600084F8357060652046FFF7C4F994F85C1086
:101370003F208840B0602068016841F0160101609C
:10138000206C20B12068016841F0080101602068EC
:10139000016841F001010160DCE700002DE9F84F30
:1013A000DFF8BCA10022012503264FF00F090AF146
:1013B000040BAAF1040E00BF0B6805FA02F42340E7
:1013C000A34270D10F7907F00307012F01D0022F3C
:1013D00016D187684FEA420806FA08FC27EA0C078C
:1013E000D1F80CC00CFA08FC4CEA070CC0F808C095
:1013F0004768A7430C79C4F3001494403C4344600D
:101400000C79E443A4070AD0C4684FEA420C06FAF8
:101410000CF7BC438F6807FA0CF72743C7600C79B9
:1014200004F00304022C12D1D40800EB840CDCF885
:1014300020405707FF0E09FA07F824EA0804D1F8FC
:10144000108008FA07F848EA0408CCF820800468FD
:101450004FEA420C06FA0CF7BC430F7907F003077A
:1014600007FA0CF7274307604C6814F4403F70D02C
:101470003C4C276847F480472760246822F0030724
:1014800004F480440094384C07EB040CDCF8084862
:1014900097074FEA177809FA08F7BC43334FB84269
:1014A00002D1002724E054E0314FB84201D1012796
:1014B0001EE0304FB84201D1022719E02E4FB8424A
:1014C00001D1032714E02D4FB84201D104270FE0CA
:1014D0002B4FB84201D105270AE02A4FB84201D16B
:1014E000062705E0284FB84201D1072700E008276A
:1014F00007FA08F72743CCF80878DAF8004057468F
:10150000D1F804C09C435FEACC2C00D51C433C605E
:10151000DBF800405F46D1F804C09C435FEA8C2CA6
:1015200000D51C433C60DEF800407746D1F804C08B
:101530009C435FEA8C3C00D51C433C60084F083F4D
:101540003C68D1F804C09C435FEACC3C00D51C4306
:101550003C60521C102AFFF42FAFBDE8F88F00004A
:10156000083C014044380240003001400000024085
:101570000004024000080240000C0240001002403B
:101580000014024000180240001C02400AB18161B0
:1015900070470904FBE700000148806870470000BD
:1015A0005800002002488168027811448160704729
:1015B000580000200B4810B5016841F4007101602B
:1015C000016841F480610160016841F4807101604B
:1015D000032000F099F80F2000F006F800F04AF818
:1015E000002010BD003C024030B505461C4887B0C5
:1015F0000024016841F001010160006806A900F0C3
:101600000100009001A800F02BF900F059F91549EC
:101610004000B0FBF1F11548134A491E026040F248
:10162000E732C0E90324C0E90114846100F042FB01
:10163000040012D10D4800F06BFB04000DD11920FD
:1016400000F034F8102D07D200222946192000F0AE
:101650003BF80748056000E0012407B0204630BD94
:101660004438024040420F0000000140A00E00201C
:101670005C0000200C4882B0016841F480410160A8
:10168000006800F4804000900748001F016841F0A6
:10169000805101600068002200F0805000900F210E
:1016A000901E02B000F010B844380240002809DB58
:1016B00000F01F02012191404009800000F1E0206C
:1016C000C0F8001170470000F0B40E4B1B680C46C8
:1016D000C3F30223C3F10705042D00D90425191D06
:1016E000072901D2002300E0DB1E012606FA05F1DE
:1016F000491E214099409E40761E16403143F0BC61
:1017000002F045BA0CED00E0064900F00702086857
:101710004FF6FF03184040EA0220034A10430860D6
:10172000704700000CED00E00000FA052DE9F047DD
:101730000E46050065D0DFF81481D8F80000F7B236
:1017400000F00700B04207D288F80070D8F8000017
:1017500000F00700B04254D128683D4C810712D5F3
:10176000400703D5206840F4E05020602878000747
:1017700003D5206840F4604020602068A96820F00C
:10178000F000084320602878C0072DD030496868F1
:101790000839012812D0022813D0032811D0096873
:1017A000890700292DDA216821F003010143216016
:1017B000FFF7F2FE814641F2883A0EE0096889039C
:1017C000EFE709688901ECE7FFF7E6FEA0EB090106
:1017D000514502D90320BDE8F0872068696800F010
:1017E0000C00B0EB810FEFD1D8F80010404601F0AB
:1017F0000701B14207D90770006800F00700B04246
:1018000001D00120E7E72878400705D52068E9687E
:1018100020F4E050084320602878000706D52068AF
:10182000296920F4604040EAC100206000F058F8C7
:101830002168084AC1F30311515CC8400649086099
:1018400006480068FFF7D0FE0020C4E7003C0240D5
:1018500008380240A4480008640000205C00002012
:101860000F2202600C4A136803F0030343601368FD
:1018700003F0F0038360136803F4E053C36012685D
:101880004FF4E05303EAD20202610448006800F01A
:10189000070008607047000008380240003C024022
:1018A0000448054900680968044AC1F38221515C73
:1018B000C84070476400002008380240B44800085F
:1018C0000448054900680968044AC1F34231515C83
:1018D000C84070476400002008380240B44800083F
:1018E000154810B5006810F00C02144813D01449C4
:1018F000042A0FD0082A0ED10F4C241F2268236817
:1019000002F03F025B0207D52068C0F38810A0FBFD
:10191000010106E0084610BD2168C1F38811A1FB52
:1019200000010023FEF701FD2168C1F30141491CBC
:101930004900B0FBF1F010BD083802400024F4006B
:1019400040787D012DE9F84F04006ED02078DFF853
:101950004C93C007A9F104054AD009F104000168BD
:10196000C1F38101012908D00068C0F38100022879
:101970000AD1D9F80000400206D52868800337D57F
:1019800060680028E1D033E06068B0F5803F10D097
:10199000B0F5A02F286810D020F480302860286887
:1019A00020F4802028606068A8B1FFF7F5FD0646A6
:1019B0000DE0286840F48030F4E740F4802028608F
:1019C000F7E700BFFFF7E8FD801B642873D828689D
:1019D0008003F7D50CE0FFF7DFFD064605E000BF0A
:1019E000FFF7DAFD801B6428F0D828688003F7D45D
:1019F0002078DFF8AC8280074FF0000A3ED5A74878
:101A0000001D016811F00C0F08D00068C0F38100C0
:101A100002280BD1D9F80000400207D428688007BB
:101A200016D5E068012800D112E033E1E068B8B1D2
:101A30000120C8F80000FFF7AFFD064605E000BF33
:101A4000FFF7AAFD801B0228C0D828688007F7D5B9
:101A50002868216920F0F80040EAC10028600DE004
:101A6000C8F800A0FFF798FD064604E0FFF794FDD4
:101A7000801B02281FD828688007F7D42078000729
:101A800022D5864F87486169703771B101210160A5
:101A9000FFF782FD064604E0FFF77EFD801B02286B
:101AA00009D838688007F7D50EE0C0F800A0FFF726
:101AB00073FD064605E082E0FFF76EFD801B0228FD
:101AC0007DD838688007F7D42078400768D5DFF8DC
:101AD000CCB100270BF13C0BDBF80000C0000BD4AD
:101AE000DBF8001041F08051CBF80010DBF800006B
:101AF000012700F0805000906B4E3068C00510D474
:101B0000306840F480703060FFF746FD009005E0DB
:101B1000FFF742FD0099401A022850D83068C005EE
:101B2000F6D55E4EA0686C3601280FD005283068C7
:101B300010D020F001003060306820F004003060E8
:101B4000A068B8B1FFF728FD00900FE0306840F0C2
:101B50000100F4E740F004003060F7E7FFF71CFDF8
:101B60000099411A41F28830814266D83068800776
:101B7000F4D50EE0FFF710FD009007E0FFF70CFD35
:101B80000099411A41F28830814256D83068800766
:101B9000F4D42FB1DBF8001021F08051CBF8001005
:101BA000A069C8B33D49091D0968C1F38101022933
:101BB0004AD00228504607D0C8F8600000E03CE058
:101BC000FFF7EAFC04463BE04746C8F86000FFF731
:101BD000E3FC064605E000BFFFF7DEFC801B0228A1
:101BE0002BD828688001F7D4D4E907010843A16AFB
:101BF0002E4A490802EB0141626A41EA8211084318
:101C000094F82C1040EA0161C9F8001001203866F0
:101C1000FFF7C2FC044606E03EE000BFFFF7BCFC55
:101C2000001B022809D828688001F7D534E000BFDE
:101C3000FFF7B2FC001B022802D90320BDE8F88F91
:101C400028688001F4D427E00128F7D0D9F80000F3
:101C5000E26900F4800191421CD1226A00F03F0148
:101C6000914217D147F6C071626A0140B1EB821F01
:101C700010D1A26A4FF0FF3300F4403103EB52025F
:101C8000B1EB024F06D194F82C1000F07060B0EB6D
:101C9000016F01D00120D1E70020CFE704380240D6
:101CA00000004742800E4742007000400000FFFFE6
:101CB0007047704710B5040003D094F83D0010B190
:101CC00007E0012010BD002084F83C00204600F011
:101CD0001EF8022084F83D00211D206801F0C6FC9A
:101CE000012084F8460084F83E0084F83F0084F820
:101CF000400084F8410084F8420084F8430084F8EE
:101D0000440084F8450084F83D00002010BD704771
:101D100090F83D10012901D001207047022180F880
:101D20003D100168CA6842F00102CA6000681149AA
:101D3000884214D0B0F1804F11D00F4988420ED0A4
:101D40000E4988420BD00E49884208D00D4988427E
:101D500005D00D49884202D00C49884204D18168DF
:101D600001F00701062903D0016841F0010101607B
:101D700000207047000001400004004000080040BF
:101D8000000C0040000401400040014000180040E9
:101D900070472DE9F04104460068C66805694FF0B8
:101DA0000007A90713D5B10711D5F91E016101205C
:101DB0002077206880698007204602D0FFF7E8FF7F
:101DC00004E000F07EF8204600F07CF827776807F2
:101DD00016D5700714D521686FF004000861022041
:101DE00020772068806910F4407F204602D0FFF7FA
:101DF000CFFF04E000F065F8204600F063F8277795
:101E0000280715D5300713D521686FF00800086141
:101E1000042020772068C0698007204602D0FFF7A1
:101E2000B7FF04E000F04DF8204600F04BF82777AC
:101E3000E80616D5F00614D521686FF01000086189
:101E4000082020772068C06910F4407F204602D027
:101E5000FFF79EFF04E000F034F8204600F032F86F
:101E60002777E80708D0F00706D021686FF0010057
:101E70000861204600F028F8280608D5300606D567
:101E800021686FF0800008612046FFF711FF6806A7
:101E900008D5700606D521686FF04000086120461D
:101EA00000F01CF8A8060AD5B00608D521686FF026
:101EB000200008612046BDE8F041FFF7FABEBDE80A
:101EC000F08170477047000000680349884201D1E3
:101ED000FFF768BB7047000000000140704738B54D
:101EE000044690F84200202801D0022038BD61B19C
:101EF0005AB10120206300206063204601F0BEFD3E
:101F00000028F3D1216B012901D0012038BD2168BF
:101F10000A684968009121680C3151E8002F42F0AD
:101F2000100241E80023002BF5D138BD70B50C46F6
:101F300000681C49884234D14FF6FF7322461A4983
:101F40001A4800F039FA642C1AD8174A1078AA28CF
:101F500016D15078A04213D100210846631E03E039
:101F6000155C401C2944C9B29842F9DB101910F8DD
:101F7000010C884204D1022000E0C01C9842FCDB26
:101F8000642209490948FFF7AAFF09480068016867
:101F900021F008010160BDE8704064210248FEF7AD
:101FA0006DBA70BD00440040900A0020980D0020DA
:101FB000E00D002010B500680A49884210D1642263
:101FC00009490A48FFF78BFF09480068016821F0BA
:101FD00008010160BDE8104064210348FEF74EBAD5
:101FE00010BD000000440040900A0020980D002021
:101FF000E00D0020F8B5016804460868CA684B691E
:1020000010F00F0F4FF0000559D003F0010602F455
:102010009077374365D0C10705D0D10503D5616CF2
:1020200041F001016164410705D5D90703D0616C16
:1020300041F002016164810705D5D90703D0616CC5
:1020400041F004016164010707D502F0200131432A
:1020500003D0616C41F008016164616C00293AD0E1
:10206000800604D5900602D5204601F01FFC2068AA
:102070004069616CC0F38010090700D460B320464A
:1020800001F0DFFB20684069400621D5206814304C
:1020900050E8001F21F0400140E80012002AF5D16D
:1020A000E06BA8B16E490165E06BFEF7F3FF002815
:1020B00011D0E06B016D01B0BDE8F0400847830628
:1020C0000FD593060DD52046BDE8F84001F0EEBBD4
:1020D0002046FFF76FFFF8BD2046FFF76BFF6564F2
:1020E000F8BD266B2023012E7DD1C6067BD5D606F2
:1020F00079D508684868009048694FF002064006A4
:1021000041D5E16B086840680004000CE8D0A28D5E
:102110008242E5D9E085C869B0F5807F2DD020687E
:102120000C3050E8001F21F4807140E80012002AB2
:10213000F5D12068143050E8001F21F0010140E87B
:102140000012002AF5D12068143050E8001F21F059
:10215000400140E80012002AF5D184F8423025639E
:1021600020680C3050E8001F21F0100140E80012F8
:10217000002AF5D1E06BFEF744FF6663A08DE18D88
:10218000401A81B22AE0A08DE18D401A81B2E08D23
:102190000028A5D00029A3D022680C3252E8000FF5
:1021A00020F4907042E80007002FF5D12068143029
:1021B00050E8002F22F0010240E80027002FF5D15F
:1021C00084F84230256320680C3050E8002F22F05C
:1021D000100240E80023002BF5D166632046FFF78C
:1021E000A5FEF8BDFFE705062BD5150629D594F801
:1021F00041002128F5D1A068B0F5805F01D12069A8
:10220000B0B1206A411C2162216800784860E08CEE
:10221000401E0004000CE084E3D12068C16821F076
:102220008001C1602068C16841F04001C160D8E709
:10223000206A0088C0F308004860206A801C206281
:10224000E5E74006CDD55006CBD5CA68204622F03A
:102250004002CA6084F8413000F0FEF8C1E7000097
:102260004537000870B5040004D094F841000025FB
:1022700010B106E0012070BD84F84050204600F007
:1022800023F8242084F841002068C16821F400511B
:10229000C160204601F06CFB2068016921F4904187
:1022A00001612068416921F02A0141612068C1680B
:1022B00041F40051C1606564202084F8410084F835
:1022C00042006563002070BD2DE9F04186B00646EE
:1022D00014216846FEF7F4F83149306888425BD132
:1022E00030480025016841F400310160006800F4C5
:1022F000003005902B481038016841F0080101605A
:102300000068012100F00800059060200090022084
:10231000CDE9010103900720049069462248FFF7A8
:102320003DF8234C21484FF000672060C4E9017557
:102330004FF48068C4E9035865614FF44030A561EB
:10234000C4E9075020466562FEF786FF08B1FEF734
:10235000E6F9F463A663164C144860341830E4E8D8
:1023600002074020A4E82101C00244F81459A561E5
:10237000C4E907500E4865626030FEF76DFF08B192
:10238000FEF7CDF9B463002205212620A663FFF7EE
:102390009BF92620FFF78AF906B0BDE8F08100001E
:1023A0000044004040380240000C02408860024077
:1023B000E00D0020704770472DE9F843044690F87F
:1023C0004100984616460D46202802D00220BDE85E
:1023D000F88385B17EB100206064212084F841003B
:1023E000FFF7DAF8A6848146E684A0682027B0F5D6
:1023F000805F02D003E00120E9E7206910B12E469A
:1024000000250EE000260CE08021204601F07EFB36
:10241000A8B9C6B116F8010B21684860E08C401ECF
:10242000E084E08C4B464FF00002CDF8008000289D
:10243000EAD14FF04001204601F068FB40B184F83A
:1024400041700320C3E735F8020BC0F30800E3E74F
:1024500084F841700020BAE77047FEE73E4C3F4DDC
:102460004FF400566278042A01D30120A0707AB19B
:10247000A07878B1207840082070521EC0B26270F7
:10248000042835D00BDC01280ED002282CD112E014
:102490000020A070207840002070521CEEE7082831
:1024A00032D0102820D140E0002208212846FFF732
:1024B0006DF8012205E0012208212846FFF766F8A1
:1024C000002204212846FFF761F801220221284654
:1024D000FFF75CF8012201212846FFF757F8012297
:1024E00031462846FFF752F8642001F02FFFB9E784
:1024F000012208212846FFF749F801220421284635
:10250000FFF744F80022E1E7012208212846FFF7FF
:102510003DF8012204212846FFF738F80122022164
:102520002846FFF733F80022D5E701220821284684
:10253000FFF72CF8012204212846FFF727F8012293
:1025400002212846FFF722F8012211462846FFF70C
:102550001DF80022C4E700003800002000080240F7
:102560000A8852BA0280498849BA41808188511A42
:1025700009B2B1F57A6F02DDC3885B1EC38011F525
:102580007A6F02DAC188491CC180B0F90610DFED0C
:10259000070A02EB413100EE101A8160B8EEC00A62
:1025A00020EE200A80ED030A828070470000343D4F
:1025B0000F4810B50D4901600621416000214FF41C
:1025C00000328160C0E90312120142610176417656
:1025D0008176C17601774177FEF71DFB002803D095
:1025E000BDE81040FEF79BB810BD0000006400403D
:1025F000480D00200F4810B50D49016006214160CB
:1026000000214FF400328160C0E9031212014261DF
:10261000017641768176C17601774177FEF7FBFA44
:10262000002803D0BDE81040FEF779B810BD0000C7
:1026300000680040700D00200D4808B5016841F4A5
:10264000001101600068002200F4001000900521D4
:102650001020FFF739F81020FFF728F80022052195
:102660001120FFF731F8BDE808401120FFF71EB830
:102670003038024000B587B01C2206496846FDF795
:10268000CBFE0021684601F0FDFA0349086007B05F
:1026900000BD0000804800085000002070B586B0E2
:1026A00014216846FDF70CFF1E480024016841F024
:1026B00004010160016801F004010591016841F025
:1026C00080010160016801F080010591016841F01D
:1026D00001010160016801F001010591016841F00B
:1026E00008010160016801F008010591016841F0ED
:1026F0000201016000680C4E00F0020042F20F057A
:102700000590012229463046FEF740FF0120009542
:10271000CDE90104694630460394FEF73FFE06B05A
:1027200070BD000030380240000802400C4810B56F
:102730000A4901604FF4E1314160002181600C22BF
:10274000C160C0E904128161C161FFF78BFD0028FF
:1027500003D0BDE81040FDF7E2BF10BD00440040CB
:10276000980D0020FEE71CB513881B0A8DF8003079
:1027700013788DF8013053881B0A8DF80230937856
:102780008DF8033093881B0A8DF8043013798DF887
:102790000530D3881B0A8DF8063092798DF8072012
:1027A0006A46FDF723FF1CBDFEE7000080ED0D0A21
:1027B000C0ED100A30EEC01A70EEC00A80ED051AA6
:1027C000B5EEC01AF1EE600AF1EE10FA02DDF0EE9D
:1027D000411A01E0F0EE601A90ED032AF4EEC21AFD
:1027E000F1EE10FA7EDDD0ED001A21EE813A80ED97
:1027F000083AD0ED011A21EE812A80ED092A90EDE8
:10280000062A90ED024A71EE422A62EE842AC0ED59
:102810000B2A90F860104A0709D531EE022AF6EE2D
:10282000003A22EE232A62EE211AC0ED091A8A0626
:10283000DFED6D1A42D590ED0A2A21EE022AB5EE9F
:10284000C02AF1EE10FA39DDB5EEC01AF1EE10FA39
:1028500002DDB0EE412A01E0B0EE602AD0ED153A7B
:10286000B4EEE32AF1EE10FA28DD90ED142AB5EE6D
:10287000C01A32EE235AF1EE10FA02DDF0EE414AB0
:1028800001E0F0EE604AB4EEE45AF1EE10FA13DB28
:10289000B5EEC01AF1EE10FA01DDF0EE410A72EE6B
:1028A000600A70EEA30AC0EE823AD0ED090A63EE28
:1028B000A00AC0ED090A01E0C0ED091ACA0738D024
:1028C00090ED0A2AD0ED090A72EE203A73EE020A60
:1028D00070EEA20AF5EEC00AF1EE10FA01DCF1EE9C
:1028E000600A00E073E0D0ED0C2AF4EEE20AF1EEAB
:1028F00010FA08DD61EE020AF5EEC00AF1EE10FAF8
:1029000001DDC0ED091AD0ED040AF4EEE30AF1EEA0
:1029100010FA03D2C0ED091AC0ED0A0AF1EE600AFE
:10292000F4EEE30AF1EE10FA03DDC0ED091AC0ED92
:102930000A0A8A0707D5D0ED0E0A70EEC00A60EECB
:10294000840AC0ED0B0A4A06B7EE002A0DD5D0ED79
:102950000B1AD0ED170AD0ED122A61EEA01A72EE12
:10296000600A42EEA01AC0ED0B1AD0ED0A0AD0EDB3
:10297000091AC90670EEA10AC0ED0A0A73EE200A10
:10298000D0ED0B1A70EEA11AC0ED071A0BD5D0EDE1
:10299000160AD0ED112A61EEA01A72EE600A42EE1C
:1029A000A01AC0ED071AD0ED0C0AF4EEE01AF1EE11
:1029B00010FA01DDC0ED070AD0ED071AF1EE600A4A
:1029C000F4EEE01AF1EE10FA01D2C0ED070A80ED44
:1029D0000E0A90ED070A80ED110AD0ED0B0AC0ED4A
:1029E000120A80ED061A70470000000080ED0D0A03
:1029F000C0ED100A70EEC01A70EEC00AC0ED051AE4
:102A0000F5EEC01AF1EE600AF1EE10FA02DDB0EE5A
:102A1000612A01E0B0EE602AD0ED032AB4EEE22A8A
:102A2000F1EE10FA7EDD90ED002A22EE213A80EDE3
:102A3000083A90ED012A62EE212AC0ED092AD0ED74
:102A4000022A62EE813AC0ED0B3A90F860104A0714
:102A50000BD590ED061AF6EE002A31EE811A21EE22
:102A6000221A21EE021A80ED091A8A069FED681AD1
:102A700042D590ED0A2A21EE822AB5EEC02AF1EE67
:102A800010FA39DDF5EEC01AF1EE10FA02DDB0EE03
:102A9000612A01E0B0EE602A90ED154AB4EEC42A36
:102AA000F1EE10FA28DDD0ED142AF5EEC01A72EE20
:102AB000844AF1EE10FA02DDB0EE612A01E0B0EED8
:102AC000602AF4EEC24AF1EE10FA13DBF5EEC01AFA
:102AD000F1EE10FA01DDF0EE610A72EEE00A70EE3E
:102AE000840A80EEA22AD0ED090A62EE200AC0ED27
:102AF000090A01E080ED091ACA0738D090ED0A2AC8
:102B0000D0ED090A72EE202A73EE020A70EEA30AD3
:102B1000F5EEC00AF1EE10FA01DCF1EE600A90ED7C
:102B20000C4A00E067E0F4EEC40AF1EE10FA08DDAA
:102B300061EE820AF5EEC00AF1EE10FA01DD80EDD9
:102B4000091AD0ED040AF4EEE20AF1EE10FA03D20B
:102B500080ED091AC0ED0A0AF1EE600AF4EEE20A0D
:102B6000F1EE10FA03DD80ED091AC0ED0A0A4A06FB
:102B7000B7EE001A0BD5D0ED170AD0ED122A23EECE
:102B8000A02A71EE600A02EEA02A80ED0B2AD0ED99
:102B90000A0A90ED092AC90670EE820AC0ED0A0AF7
:102BA00073EE200A90ED0B2A70EE820AC0ED070A40
:102BB0000BD590ED162AD0ED112A60EE820A31EE87
:102BC000421A42EE810AC0ED070AB0EE601AD0ED5B
:102BD0000C0AB4EEE01AF1EE10FA01DDC0ED070ABE
:102BE00090ED071AF1EE600AB4EEE01AF1EE10FA79
:102BF00001D2C0ED070A80ED0E0A90ED070A80EDC4
:102C0000110AD0ED0B0AC0ED120AC0ED061A70478A
:102C10000000000030B41446094A8267094AB0EE49
:102C2000614AC267F0EE411A0A46B0EE601A2146C8
:102C3000F0EE400A30BCB0EE440A00F0B9BF00002C
:102C4000B13B0008FD3B00082DED088B90B001F072
:102C500037FD27239FEDFE8AF0EE483AB0EE483A62
:102C6000F0EE482ADFEDFB9A4FF480454FF4FA74FA
:102C7000B0EE692A2A46F1EE041A2146DFEDF68A03
:102C8000B0EE681A9FEDF59AB0EE000AF448F0EE47
:102C9000490AFFF7BFFFF24827238030F0EE483A99
:102CA000B0EE483AF0EE482AB0EE692A2A46F1EE34
:102CB000041A2146B0EE681AF0EE490AB0EE000A96
:102CC0000D90FFF7A7FFE7482723F0EE483AB0EE54
:102CD000483AF0EE482AB0EE692A2A46F1EE041A84
:102CE0002146B0EE681AF0EE490AB0EE000A0C90E8
:102CF000FFF790FFDB4827238030F0EE483AB0EE34
:102D0000483AF0EE482AB0EE692A2A46F1EE041A53
:102D10002146B0EE681AF0EE490AB0EE000A0B90B8
:102D2000FFF778FF2723F0EE483AB0EE483A9FEDE0
:102D3000CE9AF0EE492A9FEDCDAA2A46B0EE4A2A55
:102D4000DFEDCBAA2146B8EE041AF0EE6A1AF0EED7
:102D5000680AB0EE000AC748FFF75CFFC5482723A2
:102D60008030F0EE483AB0EE483AF0EE492AB0EE44
:102D70004A2A2A46F0EE6A1A2146B8EE041AF0EE04
:102D8000680AB0EE000A0490FFF744FFBA48272310
:102D9000F0EE483AB0EE483AF0EE492AB0EE4A2A50
:102DA0002A46F0EE6A1A2146B8EE041AF0EE680AD6
:102DB000B0EE000A0A90FFF72DFFA94827238038BC
:102DC000F0EE483AB0EE483AF0EE492AB0EE4A2A20
:102DD0002A46F0EE6A1A2146B8EE041AF0EE680AA6
:102DE000B0EE000A0990FFF715FF42F21075272395
:102DF000F0EE483AB0EE483AF0EE482AB0EE692AD2
:102E00002A46F1EE041A2146B1EE041A9FED9BBA50
:102E1000B0EE040A9A48F0EE4B0AFFF7FBFE984822
:102E200027238030F0EE483AB0EE483AF0EE482AD8
:102E3000B0EE692A2A46F1EE041A2146B1EE041AD0
:102E4000F0EE4B0AB0EE040A0890FFF7E3FE8D485F
:102E50002723F0EE483AB0EE483AF0EE482AB0EEBA
:102E6000692A2A46F1EE041A2146B1EE041AF0EE60
:102E70004B0AB0EE040A0790FFF7CCFE81482723E7
:102E80008030F0EE483AB0EE483AF0EE482AB0EE24
:102E9000692A2A46F1EE041A2146B1EE041AF0EE30
:102EA0004B0AB0EE040A0690FFF7B4FE2723F0EEBB
:102EB000483AB0EE483AF0EE492AB0EE4A2A2A469D
:102EC000F0EE6A1A0021B8EE081AF0EE680AB0EEC9
:102ED000080A6D48FFF79EFE6B4827238030F0EE0E
:102EE000483AB0EE483AF0EE492AB0EE4A2A2A466D
:102EF000F0EE6A1A0021B8EE081AF0EE680AB0EE99
:102F0000080A0590FFF786FE60482723F0EE483A4E
:102F1000B0EE483AF0EE492AB0EE4A2A2A46F0EEE0
:102F20006A1A0021B8EE081AF0EE680AB0EE080A34
:102F30000390FFF76FFE524827238038F0EE483A9F
:102F4000B0EE483AF0EE492AB0EE4A2A2A46F0EEB0
:102F50006A1A0021B8EE081AF0EE680AB0EE080A04
:102F60000290FFF757FEDFF8F8B0DFF824A10BF569
:102F7000C0640AF10406A4F5066504F5A8779AF87A
:102F800000105046CA0709D0C278D30606D4D4F838
:102F9000E83042F01002C4F84031C2708A0709D507
:102FA000C278930606D4D4F8F83042F02002C4F870
:102FB0004431C2704A0709D5C278530606D4D4F802
:102FC000083142F04002C4F84831C270090709D5FF
:102FD000C278110606D4D4F81811C4F84C1142F086
:102FE0008001C1704178CA0708D0C278D30705D1E3
:102FF000236D42F00102C4F83031C2708A0708D54F
:10300000C278930705D4A36F42F00202C4F83431AA
:10301000C2704A0709D5C3785A0706D4D4F8A0204D
:10302000C4F8382143F00402C27008070BD59AF89F
:1030300003100A0707D4D4F8C82041F00801C4F8E7
:103040003C218AF80310326995ED0C0A22E0000059
:103050000000C84200004843000000006F12833A9D
:10306000300300203004002000401C4600409C46F5
:103070000000204230010020300200200AD7233C0B
:1030800030070020300800203005002030060020E6
:1030900000000020BDEEC00A10EE101A95ED080ADF
:1030A000BDEEC00A10EE100A00F0DAF900EE100AC8
:1030B000F8EEC00AC5ED0C0AD4F83011206D401AA4
:1030C00000EE100AB4F94200543401EE100AB8EED2
:1030D000C00ADF48B8EEC11AFFF788FC34F9120CB9
:1030E000DFF86C8300EE100A08F50070D8ED070ACF
:1030F000B8EEC00AFFF75AFB9BED070AD946BDEEB2
:10310000C00A10EE100A388095ED0D0A7269BDEE06
:10311000C00A10EE101A95ED090ABDEEC00A10EEB5
:10312000100A00F09DF900EE100AF8EEC00AC5ED95
:103130000D0AD4F8E010606A401A00EE100AB4F9E3
:10314000160001EE100AB8EEC00A0498B8EEC11AD3
:10315000FFF74CFCB4F91600D8ED270A00EE100A70
:103160000D98B8EEC00AFFF721FB99ED270ABDEED6
:10317000C00A10EE100A788095ED0E0AB269BDEE15
:10318000C00A10EE101A95ED0A0ABDEEC00A10EE44
:10319000100A00F065F900EE100AF8EEC00AC5ED5D
:1031A0000E0AD4F8E410E06C401A00EE100AB4F9EC
:1031B0003E0001EE100AB8EEC00A0A98B8EEC11A35
:1031C000FFF714FCB4F93E00D8ED470A00EE100AF0
:1031D0000C98B8EEC00AFFF7E9FA99ED470ABDEE80
:1031E000C00A10EE100AB88095ED0F0AF269BDEE24
:1031F000C00A10EE101A95ED0B0ABDEEC00A10EED3
:10320000100A00F02DF900EE100AF8EEC00AC5ED24
:103210000F0AD4F8E810606F401A00EE100AB4F9F3
:10322000660001EE100AB8EEC00A0998B8EEC11A9D
:10323000FFF7DCFBB4F96600D8ED670A00EE100A70
:10324000543C0B98B8EEC00AFFF7B0FA99ED670A44
:10325000BDEEC00A10EE100AF8809AF8010030B1F5
:1032600008F515624FF400717A48FFF77CFA95ED86
:10327000140A326ABDEEC00A10EE101A95ED100A5B
:10328000BDEEC00A10EE100A00F0EAF800EE100AD7
:10329000F8EEC00AC5ED140A54F8E80FA16D401A03
:1032A00000EE100A34F9060C01EE100AB8EEC00A5E
:1032B0006948B8EEC11AFFF799FB34F9060CDFF83C
:1032C000989100EE100A09F50070D9ED070AB8EEE2
:1032D000C00AFFF76BFA09F5007898ED070ABDEE12
:1032E000C00A10EE100A388195ED150A726ABDEE1B
:1032F000C00A10EE101A95ED110ABDEEC00A10EECC
:10330000100A00F0ADF800EE100AF8EEC00AC5EDA4
:10331000150AE16D2069401A00EE100AB4F90A009E
:1033200001EE100AB8EEC00A0598B8EEC11AFFF710
:103330005DFBB4F90A00D9ED270A00EE100A0898DF
:10334000B8EEC00AFFF732FA98ED270ABDEEC00AC0
:1033500010EE100A788195ED160AB26ABDEEC00A29
:1033600010EE101A95ED120ABDEEC00A10EE100A0A
:1033700000F076F800EE100AF8EEC00AC5ED160A65
:10338000216E206A401A00EE100AB4F91A0001EE0C
:10339000100AB8EEC00A0398B8EEC11AFFF726FB70
:1033A000B4F91A00D9ED470A00EE100A0798B8EEF2
:1033B000C00AFFF7FBF998ED470ABDEEC00A10EE10
:1033C000100AB88195ED170AF26ABDEEC00A10EE38
:1033D000101A95ED130ABDEEC00A10EE100A00F0A7
:1033E0003FF800EE100AF8EEC00AC5ED170A616E4C
:1033F000206B401A00EE100AB4F92A0001EE100A00
:10340000B8EEC00A0298B8EEC11AFFF7EFFAB4F9A5
:103410002A00D9ED670A00EE100AE83C0698B8EEDB
:10342000C00AFFF7C3F998ED670ABDEEC00A10EEB7
:10343000100AF8819AF8000030B108F556724FF47E
:1034400000710648FFF78FF9022000F07FFF96E534
:1034500030010020480D002030050020700D0020B4
:10346000401A00EE100AB8EEC00AB5EEC00AF1EE3E
:1034700010FA15DD00EE902AF8EEE00AB4EEE00A4C
:10348000F1EE10FA01DD8818704700EE901AF8EEA0
:10349000E00A30EE800ABDEEC00A10EE100A704756
:1034A000504200EE900AF8EEE00AB4EEE00AF1EEC7
:1034B00010FAEAD2881A704730B50A8854BA0480E4
:1034C0004A8852BA12B242808B885BBA1BB28380A0
:1034D000897981718189611A09B2B1F57A6F02DD4A
:1034E000C5896D1EC58111F57A6F02DAC189491C43
:1034F000C181B0F90E10DFED1F0A04EB413100EE7F
:10350000101A0161B8EEC00A20EE200A80ED050A0B
:1035100000EE102AD0ED060A90ED071AB8EEC00AA8
:1035200060EE800A00EE102AB8EEC00A60EE800A53
:1035300000EE102AB8EEC00A21EE001A00EE103A92
:10354000B8EEC00A41EE000A00EE103A90ED081AFB
:10355000B8EEC00A21EE001A00EE103AB8EEC00A2A
:1035600041EE000A90ED090A30EE800A80ED020A71
:10357000848130BD0000343D00F0D8FD002000F013
:103580000BFF012000F072FBFBE7000010B550209C
:1035900080F31188BFF34F8FBFF36F8F01F096F860
:1035A00018B104494FF080500860002080F3118862
:1035B00010BD000004ED00E030B593B03021684646
:1035C000FCF77EFF14210CA8FCF77AFF1E480025AB
:1035D000016841F080510160006800F08050119056
:1035E0001A48016841F4804101600068022400F437
:1035F0008040119001200090000401908001CDE9ED
:103600000640192008904FF4A870CDE90904042061
:103610000B906846FEF796F908B172B6FEE70CA962
:103620000F2081E831004FF4A0500F904FF48050EC
:10363000109005210CA8FEF779F8002801D072B689
:10364000FEE713B030BD000040380240007000407B
:103650000248016841F470010160704788ED00E0A4
:103660000148FEF796BB0000A00E0020F0B50268EE
:10367000294C2A4D2A4E2B4F2B4B4FF0804CA04209
:1036800009D0604507D0A84205D0B04203D0B84267
:1036900001D0984204D122F0700E4A6842EA0E022C
:1036A000A0421BD0604519D0A84217D0B04215D017
:1036B000B84213D0984211D01C4DA8420ED01C4DD8
:1036C000A8420BD01B4DA84208D01B4DA84205D0E4
:1036D0001A4DA84202D01A4DA84203D122F44075D7
:1036E000CA682A434D6922F080022A4302608A6830
:1036F000C2620A688262A04201D0984201D109697F
:103700000163012141610169C90703D0016921F009
:1037100001010161F0BD0000000001400004004013
:1037200000080040000C004000040140004001403F
:10373000004401400048014000180040001C0040C7
:103740000020004010B5806B0021C185C184FEF7C8
:1037500031FC10BD70B5846B2068406994F841104D
:10376000C0F3C0100025212904D118B1E5842046FA
:1037700000F08EF82068406994F84210C0F3801081
:10378000222904D118B1E585204600F05AF8606C72
:1037900040F0100060642046FEF70CFC70BD10B5D0
:1037A0000146806B096809684FF00002C9052ED4F4
:1037B000C28501680C3151E8003F23F4807341E871
:1037C0000034002CF5D10168143151E8003F23F09A
:1037D000010341E80034002CF5D10168143151E8AF
:1037E000003F23F0400341E80034002CF5D12021B4
:1037F00080F84210016B012909D101680C3151E8B0
:10380000003F23F0100341E80034002CF5D142635F
:10381000016B012902D0FEF7CDFD10BD818DFEF7B1
:1038200085FB10BD10B5806B01214163016B01293F
:1038300002D0FEF7C0FD10BD818D4908FEF776FB72
:1038400010BD01680C3151E8002F22F4907241E85C
:103850000023002BF5D10168143151E8002F22F02C
:10386000010241E80023002BF5D1016B012909D1A8
:1038700001680C3151E8002F22F0100241E80023CA
:10388000002BF5D1202180F8421000210163704700
:1038900001680C3151E8002F22F0C00241E80023FA
:1038A000002BF5D1202180F84110704708B590F821
:1038B0004210222901D0022008BD82684FF48053B3
:1038C0009A4201D1016921B1816A9A421BD04AB161
:1038D0000AE00268816A5268C2F308020A80816ABB
:1038E000891C08E0026972B10268526802F07F0226
:1038F0000A70816A491C8162C18D491E0904090C44
:10390000C18503D01BE002685268F1E70168CA680C
:1039100022F02002CA600168CA6822F48072CA607C
:1039200001684A6922F001024A61202180F84210B0
:1039300000214163026B012A03D0FEF73BFD00200A
:1039400008BD016301680C3151E8002F22F010021C
:1039500041E80023002BF5D101680A68D20602D5A0
:103960000A6849680091818DFEF7E0FAE7E70000F8
:1039700070B5044600680169E26821F440511143C2
:1039800001612169A068E269084361691143084344
:103990002168CA6849F20C639A430243CA602068EE
:1039A0004169A26921F440711143416131492068A4
:1039B000884202D03049884202D1FDF781FF01E000
:1039C000FDF76EFFE2690023192164253226B2F566
:1039D000004F626828D0A0FB0101930F9200FCF712
:1039E000A4FC0146B0FBF5F06FF01802504301EB68
:1039F000800006EB0010B0FBF5F000F0F002B1FB28
:103A0000F5F002EB0012B1FBF5F06FF0180358432C
:103A100001EB800006EB0010B0FBF5F000F00F00AA
:103A200021681044886070BDA0FB010192185B41C1
:103A3000FCF77BFC0146B0FBF5F00201B1FBF5F0B1
:103A40006FF01803584301EB800006EBC000B0FB99
:103A5000F5F000F0F80002EB4002B1FBF5F058433E
:103A600001EB800006EBC000B0FBF5F000F00700B2
:103A7000D6E70000001001400014014038B5816213
:103A800004468285002013466064222284F8422086
:103A9000E56B1B4AEA63E56B1A4A2A64E56B1A4A2E
:103AA000EA64E26B10650A462168E06B091DFDF7C8
:103AB0003DFC2068016840680090206948B120689A
:103AC0000C3050E8001F41F4807140E80012002AD9
:103AD000F5D12068143050E8001F41F0010140E8A2
:103AE0000012002AF5D12068143050E8001F41F080
:103AF000400140E80012002AF5D1002038BD000046
:103B00009F37000825380008553700082DE9F8438D
:103B1000984617460D460446089E24E0701C22D0A5
:103B2000FDF73AFDA0EB0800B0421AD8CEB12068EC
:103B3000C168490717D5802D15D0402D13D00168D5
:103B4000C94309070FD4016800254068009020464A
:103B5000FFF777FE0820606484F840500120BDE83C
:103B6000F8830320FBE72068006835EA000004D0F2
:103B70000020B842D2D00020F1E70120F9E7000090
:103B80000148FEF737BA0000980D0020FEE709074C
:103B9000090E002804DB00F1E02080F800147047D3
:103BA00000F00F0000F1E02080F8141D704770470E
:103BB00080ED030A00EE102A00F1500CB8EE400A26
:103BC00080ED040A00EE101A0021B8EE400A80EDE4
:103BD0000C0A9FED090A80ED100A80ED090AC0EC7D
:103BE000030A8CEC042A80F86030C0E91A1180F8CE
:103BF000701080ED070A704700000000F5EEC00A63
:103C000080EC030AF1EE10FA03D19FED020A80ED79
:103C10000A0A704700000000FDF7CCFCFFF7CCFC5F
:103C2000FEF73CFDFEF708FDFEF7C2FCFEF7E2FCE6
:103C3000FEF77CFD642207490748FEF750F9074864
:103C40000068016821F008010160FEF713FD00F033
:103C500014F8FEE7900A0020980D0020E00D0020E7
:103C600001460020842900D0C81C704710B500B957
:103C7000012000F06BFB002010BD10B500F0E2FB4E
:103C8000002010BD7FB50D4604464169B0F908001B
:103C900081B1A16971B1FFF7E3FFD4E905128DE8A5
:103CA0000700D4E900102B46226900F0DEFC0390E7
:103CB00004B070BDFFF7D4FF03A9CDE90001208A4D
:103CC0002B4682B2D4E9001000F0A2FC012801D0FA
:103CD0000020EDE70398EBE72DE9F041184C0F4683
:103CE0000546E6682068001D00F068FA38B92068CB
:103CF00090F82C1001208840216981432161681CC3
:103D000007D137B12168BDE8F0410E48091D00F028
:103D100099BA20683544B5424560216805D2A06B48
:103D2000BDE8F041091D00F075BA606B091D00F097
:103D300071FAA06A854200D2A562BDE8F081000058
:103D400068000020C40F00202DE9F041054600F076
:103D500085FA2E4CA068401CA06020682C4F10B142
:103D6000606940B32DE02560A068012829D10026B4
:103D700006EB860007EB800000F03EFA761C072E6B
:103D8000F6D323488C3000F037FA2148A03000F0F9
:103D900033FA1F48B43000F02FFA1D48C83000F045
:103DA0002BFA1B48DC3000F027FA19488C3060638E
:103DB0001430A06305E02068E96AC06A884200D830
:103DC0002560606A401C6062E96A012022698840BF
:103DD0001043206101EB810007EB8000291D00F0FA
:103DE00031FA00F05BFA606900280CD02068E96ABB
:103DF000C06A884207D207494FF080500860BFF37D
:103E00004F8FBFF36F8FBDE8F08100006800002086
:103E1000E80E002004ED00E010B5044690F85100D3
:103E200058B101280CD002280FD0502080F31188FF
:103E3000BFF34F8FBFF36F8FFEE7206B00F042FAA6
:103E40002046BDE8104000F03DBA10BD10484FF4C8
:103E50007051420706D0C01D0D4920F00700411ADD
:103E6000C1F570510B4A00230144C2E9000308392F
:103E7000183A21F0070111604B600B600B1AC0E982
:103E8000001393604FF00040536050617047000092
:103E9000D80F0020BC000020144E154CA6F1C80716
:103EA0004FF08058DFF84C9012E000BF00F0D6F9D8
:103EB000F068C568281D00F081F9A068401EA06068
:103EC0006068401E606000F0E9F92846FFF7A4FF33
:103ED00060680028EAD138680128F9D9C9F800805B
:103EE000BFF34F8FBFF36F8FF2E70000B00F0020DA
:103EF0006800002004ED00E02DE9F0479A46DDE976
:103F0000098481466FF00303206B03EB82021044A7
:103F1000089E20F00707780707D0502080F311880B
:103F2000BFF34F8FBFF36F8FFEE7002561B1002015
:103F300023180A5C83F834200A5C12B1401C102854
:103F4000F6D384F8435001E084F83450072E00D3B0
:103F50000626E662C4E91165201D00F058F904F157
:103F6000180000F054F92461C6F107006462A061F2
:103F7000E56484F8505052464946384600F0C0F88F
:103F80002060B8F1000F01D0C8F80040BDE8F0870C
:103F900030B5114900E011460A688242FBD34B68F4
:103FA0005C18844203D1406818444860084643685E
:103FB0001C18944209D1084C183C2468A24209D02C
:103FC00052681A4442600A6812680260814200D056
:103FD000086030BD0460F9E7BC0000200648416B72
:103FE000096829B1416BC968C9684968816270472D
:103FF0004FF0FF31FAE700006800002008484068F1
:10400000401C4FF0500080F3118804D0BFF34F8F55
:10401000BFF36F8FFEE7BFF34F8FBFF36F8FFEE7E6
:10402000C40000202DE9F0410546002700F040FAC9
:10403000324E306808B9FFF709FF706905424ED16A
:10404000C5B3083568070ED005F00700C0F10800B9
:104050000544680707D0502080F31188BFF34F8FC5
:10406000BFF36F8FFEE72DB37068854237D82348C2
:10407000183001460C6801E020460C466168A942F0
:1040800002D221680029F7D131688C4227D0076815
:104090002168016060680837411B10290FD9601939
:1040A000420708D0502080F31188BFF34F8FBFF331
:1040B0006F8FFEE713E041606560FFF769FF61689D
:1040C0007068401A7060B268904200D2B060706947
:1040D00001430020C4E90001F068401CF06000F0DA
:1040E0005BFB780707D0502080F31188BFF34F8F18
:1040F000BFF36F8FFEE73846BDE8F081A4000020D3
:1041000010B5031F4FF080741C601B1F21F00101CC
:104110001960191F044B0B6014390A60091F6FF0F6
:10412000020244380A6010BDFD3F00081CB5174864
:10413000FCF774FA1548FCF731FF02211348FCF72D
:10414000F0FA1348FCF76AFA1148FCF727FF102130
:104150000F48FCF7E6FA00F081F80E480224CDE99A
:10416000004000234FF496720BA10E4800F050FA65
:104170000D480023CDE9004064220CA10E4800F058
:1041800047FABDE81C4000F089B80000480D002047
:10419000700D0020340000205049445F7461736B3F
:1041A00000000000492C00083C0000204C45445F02
:1041B0007461736B000000005D240008D0E90132D7
:1041C00001699A60D0E901235A604A68824201D1AC
:1041D00082684A60002202610868401E0860086820
:1041E00070470000034B036003F154000860802017
:1041F00010607047F40A002000F108014FF0FF3210
:10420000C0E90112C1600161002101607047002115
:104210000161704730B50B685A1C02D000F10802EA
:1042200002E0026904E02246546825689D42FAD9FA
:1042300053684B6099608A60516008610168491C4D
:10424000016030BD42684A6093688B609368596032
:10425000916008610168491C01607047502080F33B
:104260001188BFF34F8FBFF36F8F0A494868401C16
:10427000486001280CD10848006810F0FF0F07D0F3
:10428000502080F31188BFF34F8FBFF36F8FFEE78D
:1042900070470000C400002004ED00E008494868B1
:1042A00028B1401E486001D180F31188704750202A
:1042B00080F31188BFF34F8FBFF36F8FFEE70000CD
:1042C000C400002070B500282AD0164DA0F10804C3
:1042D00060686969084207D1502080F31188BFF3F4
:1042E0004F8FBFF36F8FFEE722683AB1502080F303
:1042F0001188BFF34F8FBFF36F8FFEE78843606075
:1043000000F0D6F860686968084468602046FFF7E6
:104310003FFE2869401C2861BDE8704000F03CBAAF
:1043200070BD0000A40000204FF0E02000210161DA
:10433000816105494FF47A720968B1FBF2F1491EB7
:1043400041610721016170476400002010B502003F
:1043500014D00F48006B38B1502080F31188BFF3A0
:104360004F8FBFF36F8FFEE700F0A2F800211046D9
:10437000FFF7B2FC00F010FA002807D105494FF012
:1043800080500860BFF34F8FBFF36F8F10BD0000E8
:104390006800002004ED00E070B50546FFF75EFF01
:1043A000254C05B92568281DFFF708FF58B9E86AAC
:1043B000224A00EB800152F8211021B901218140ED
:1043C000206988432061A86A18B105F11800FFF739
:1043D000F5FE606A401C60622068854208D117487B
:1043E000291DC830FFF72EFF6068401C606007E0A1
:1043F000A068401EA0602846FFF70EFDFFF7EEFD07
:10440000FFF74CFF6069002814D02068854211D165
:10441000206B38B1502080F31188BFF34F8FBFF36A
:104420006F8FFEE706494FF080500860BFF34F8F53
:10443000BFF36F8F70BD000068000020E80E002001
:1044400004ED00E010B586B00024039405AA04A989
:1044500003A80494FFF7C6FEDDE903010094CDE94B
:10446000011000230EA11048059A00F0FEF80F4934
:104470000028C86211D0502080F31188BFF34F8FFD
:10448000BFF36F8F4FF0FF30886201204861CC602E
:1044900006B0BDE8104000F041B806B010BD000005
:1044A00049444C4500000000993E00086800002087
:1044B0000248016B491C016370470000680000203E
:1044C0001448016B11B10121C16170470021C16124
:1044D0000169B1FA81F1C1F11F0101EB81020E49BD
:1044E00051F822306BB101EB820101F108034A68F7
:1044F00052684A609A4201D152684A60D1680160AC
:104500007047502080F31188BFF34F8FBFF36F8F38
:10451000FEE7000068000020E80E00201CB53748C8
:104520000168374A914207D1502080F31188BFF3C8
:104530004F8FBFF36F8FFEE700683149491E8842F5
:1045400007D1502080F31188BFF34F8FBFF36F8FD7
:10455000FEE72C4908780190FF20087008788DF854
:1045600000009DF800009DF8002000F0F00090424F
:1045700007D0502080F31188BFF34F8FBFF36F8FA8
:10458000FEE79DF80000204C00F05000207007204E
:10459000A06005E09DF8002052008DF80020401E2C
:1045A0009DF800201206F5D4A060032807D0502003
:1045B00080F31188BFF34F8FBFF36F8FFEE74FF487
:1045C0004070A060019808700C482030016841F4E8
:1045D00070010160016841F070410160FFF7A4FEC5
:1045E00000206060FBF744FE0848016841F040414C
:1045F0000160FBF729FE00201CBD000000ED00E07B
:1046000071C20F4100E400E0C400002034EF00E07C
:104610002DE9FF5F8346DDE90E87994616468A46F7
:104620009000FFF7FFFC05001CD05420FFF7FAFCB8
:10463000040014D00020256384F85100CDE9024025
:10464000CDE900874B46324651465846FFF754FCA9
:104650002046FFF779FB012004B0BDE8F09F284613
:10466000FFF730FE4FF0FF30F6E7F0B585B0DDE93B
:104670000B640A9DA6B1DCB154270097266302267D
:1046800084F85160002604AFCDE90246CDE9005719
:10469000FFF732FC2046FFF757FB049805B0F0BD4A
:1046A000502080F31188BFF34F8FBFF36F8FFEE769
:1046B000502080F31188BFF34F8FBFF36F8FFEE759
:1046C0000148C06870470000680000202DE9F041F3
:1046D0002F4C0026206B28B1A069401CA0613046F9
:1046E000BDE8F081E5686D1CE56013D1606B006882
:1046F00038B1502080F31188BFF34F8FBFF36F8F15
:10470000FEE7606BA16B6163A063206A401C2062BE
:10471000FFF764FCA06ADFF87C80854209D3606BF8
:104720000068A0B1606BC068C7687868854211D224
:10473000A0622068C06A00EB800158F821000128BF
:1047400000D90126E0690028C9D00126C7E74FF04B
:10475000FF30EDE7381DFFF731FDB86A18B107F1FA
:104760001800FFF72BFDF96A0120226988401043E9
:10477000206101EB810108EB8100391DFFF762FD2B
:10478000F86A2168C96A8842C9D30126C7E70000D0
:1047900068000020E80E00202DE9F0472C4D002491
:1047A0002746286B38B1FFF759FD286B401E286358
:1047B000286B40B146E0502080F31188BFF34F8F43
:1047C000BFF36F8FFEE7A968224E0120D1B3A6F197
:1047D000B40980463068E8B1F068C46804F1180094
:1047E000FFF7ECFC201DFFF7E9FCE06A2A6908FAF4
:1047F00000F11143296100EB800109EB8100211DCB
:10480000FFF720FDE06A2968C96A8842E2D3C5F84B
:104810001C80DFE70CB1FFF7E1FBAC6944B1464611
:10482000FFF754FF00B1EE61641EF9D10020A861CA
:10483000E86938B10849012738070860BFF34F8F8E
:10484000BFF36F8FFFF72AFD3846BDE8F087000001
:10485000680000209C0F002004ED00E04FF0407045
:10486000E1EE100A704700000000000000000000A8
:104870000000000000000000080000000000000030
:10488000BC48000879350008000000000000000066
:10489000800000000000000000000000000610166C
:1048A00000061016000000000000000001020304D2
:1048B0000607080900000000010203046465666140
:1048C000756C745461736B00E848000800000020A8
:1048D000D0000000C4010008B8490008D000002042
:1048E00068510000E001000800000000C80000005E
:1048F000C8000000C8000000C8000000C800000098
:10490000C8000000C8000000C80000006F010000DF
:104910006F0100006F0100006F0100000000000047
:104920000100000000000000000000000000000086
:104930000000000000000000000000000000000077
:104940000100000010000000000000000024F4003E
:104950000000000000000000000000000000000057
:104960000000000000000000000000000000000047
:104970000000000000000000000000000000000037
:104980000000000000000000000000000000000027
:104990000000000000000000000000000000000017
:1049A0000000000000000000000000000000000007
:0849B000AAAAAAAA0000000057
:040000050800018965
:00000001FF
