:020000040800F2
:10000000A867002059020008352F0008312B00088E
:10001000F52E0008110A00088944000800000000BD
:10002000000000000000000000000000313D00085A
:10003000E10B000800000000F13B0008693D0008EA
:1000400073020008730200087302000873020008BC
:1000500073020008730200087302000873020008AC
:10006000730200087302000873020008730200089C
:10007000730200087302000873020008730200088C
:10008000050B0008150B000873020008250A00087C
:10009000150A0008730200087302000873020008C2
:1000A00073020008553E000873020008730200083E
:1000B000653E00087302000873020008730200081E
:1000C000730200087302000873020008730200083C
:1000D00073020008730200087944000873020008E4
:1000E000730200087302000873020008730200081C
:1000F000730200087302000873020008730200080C
:1001000073020008730200087302000873020008FB
:1001100073020008730200087302000873020008EB
:1001200073020008730200087302000873020008DB
:10013000730200087302000873020008450A0008F1
:1001400073020008350A00087302000873020008F1
:1001500073020008730200087302000873020008AB
:10016000730200087302000873020008730200089B
:100170007302000873020008730200080000000008
:10018000730200087302000800F002F800F055F84E
:100190000AA090E8000C82448344AAF10107DA45E2
:1001A00001D100F04AF8AFF2090EBAE80F0013F0DF
:1001B000010F18BFFB1A43F00103184750660000F7
:1001C000706600000A4410F8014B14F00F0508BFD8
:1001D00010F8015B240908BF10F8014B6D1E05D013
:1001E00010F8013B6D1E01F8013BF9D1641E03D0EC
:1001F000641E01F8015BFBD19142E4D3704700001B
:100200000023002400250026103A28BF78C1FBD81F
:10021000520728BF30C148BF0B607047732900F0F8
:10022000EC82002070471FB506F038FA9DE8030005
:1002300000F07EFA1FBD10B510BD00F04CFB11465A
:10024000FFF7F1FF05F000F900F06AFB03B4FFF7D8
:10025000F2FF03BC00F038FB09488047094800471B
:10026000FEE7FEE7FEE7FEE7FEE7FEE7FEE7FEE766
:10027000FEE7FEE704480549054A064B70470000C3
:10028000413E000889010008A8610020A8670020FD
:10029000A8630020A863002070B5064600F02CFA81
:1002A000056806F10B0020F00704B4429CBF002053
:1002B00070BD2B466A68BAB11068A04210D304F131
:1002C000080188423CBF5068586007D35168101934
:1002D00041601168091B016058601460101D70BDF9
:1002E00013465268002AE7D12146284600F00CFA4E
:1002F0000028DED170BD70B50446051F00F0FCF982
:100300000068002C14BF446870BD002C18BFAC42BC
:100310003CBF20466468F8D301680A18AA4218BF97
:10032000456003D12A6805461144016028684119D7
:10033000A1421CBF6C6070BD61686960216808449F
:10034000286070BD70B50D460646041F00F0D4F954
:100350000268BDB1DEB105F10B0020F00701A94232
:100360003CBF002070BD23688B4238BF506813D358
:100370005A1A082A36D3601840F8042B2160FFF778
:10038000BAFF2FE03046FFF7B6FF002070BD2846C9
:10039000BDE87040FFF780BF002818BFA0423CBFF7
:1003A00002464068F8D303EB040C84451CD1D0F816
:1003B00000C06344994217D8A3EB010CBCF1080FAD
:1003C0000DD3D0F804C06318C3F804C0D4F800C03B
:1003D00000686044401A18602160536002E02360A6
:1003E00040685060201D70BD2846FFF755FF05008E
:1003F00008D031462068021F284600F002FA201D6E
:10040000FFF779FF284670BD53EA020C00F06980BF
:100410002DE9F04B4FF00006002B1FBFB3FA83F518
:1004200003FA05F424FA05F65E4012BF1643B2FA49
:1004300082F502FA05F4C5F120051EBF22FA05FC7B
:1004400044EA0C04203556EA044C4FEA144418BF21
:10045000641C4FF000084FF00009904271EB030C50
:1004600039D3002919BFB1FA81F701FA07F6B0FABA
:1004700080F700FA07F6C7F120071EBF20FA07FC35
:1004800046EA0C062037B6FBF4FCA7EB0507103F45
:1004900007F01F0BCBF120062CFA06F60CFA0BFB2B
:1004A00044BFB3460026202FA4BF5E464FF0000B8A
:1004B0005BEA060C08BF4FF0010B19EB0B0948EB88
:1004C0000608ABFB027C06FB02CC0BFB03CCC01B7B
:1004D00071EB0C01C1E70B46024641464846BDE8B8
:1004E000F08B13B5084318BF4FF0FF300146AFF350
:1004F0000080BDE81C4070470FB41CB5074B06AA2E
:100500007B4469460090059800F04DF9002069464B
:1005100000F05CF91CBC5DF814FB0000C90200008F
:100520002DE9F0410E460446002020622046E16895
:10053000884730B3252805D0D4E901219047206AA7
:10054000401CF2E7E168204600278847050018D0E4
:10055000A5F14100192802D820354FF40067324632
:10056000294620462760FFF759FE40B1012804D0F4
:10057000F61D26F007060836D8E7361DD6E72846CA
:10058000DAE7206ABDE8F08170B50C460546012A1D
:1005900005D02878800600D5EA69002302E001230F
:1005A00005E05B1C934202D2E05C0028F9D1A86907
:1005B000E618C01AA861286A184428622846AFF3D2
:1005C000008004E0D5E9012114F8010B9047B44202
:1005D000F8D32846AFF3008070BD10B5431C02E08D
:1005E00010F8011B71B18107FAD14FF0013202C836
:1005F0008C1A8C4314EAC211F9D0C01A0A0603D02F
:10060000C01E10BDC01A10BD0A0401D0801E10BD4E
:100610000902FCD0401E10BD032A40F2308010F0C9
:10062000030C00F0158011F8013BBCF1020F62448D
:1006300098BF11F801CB00F8013B38BF11F8013B1E
:10064000A2F1040298BF00F801CB38BF00F8013BCB
:1006500011F0030300F0D580083AC0F0088051F88B
:10066000043B083A51F804CBA0E80810F5E7121D46
:100670005CBF51F8043B40F8043BAFF30080D20765
:1006800024BF11F8013B11F801CB48BF11F8012B31
:1006900024BF00F8013B00F801CB48BF00F8012B54
:1006A00070474FF0000200B5134694469646203935
:1006B00022BFA0E80C50A0E80C50B1F12001BFF41B
:1006C000F7AF090728BFA0E80C5048BF0CC05DF881
:1006D00004EB890028BF40F8042B08BF704748BFCF
:1006E00020F8022B11F0804F18BF00F8012B704743
:1006F000704770477047000000487047C0150020E1
:10070000704770477047704738B504460A46002066
:100710006946AFF30080002808BF38BD0246009943
:10072000204600F0A5F8012038BD012000F0C5B832
:10073000F8B5AFF30080054600200C46102000BF3E
:100740000646A819A0420DD9324669460020AFF3EB
:100750000080070008BF00F0B0F80098A04218BF62
:100760000546C419FFF7C8FF05600746F01D20F0D5
:1007700007004619284600F00AF8B44208BFF8BD41
:10078000A21B31463868BDE8F84000F071B800217E
:100790000160C0E9011070471020704701694A1CD0
:1007A00002610878704700B58FB0CDE901310021B2
:1007B000059105497944CDE9031011466846FFF7D4
:1007C000AFFE0FB000BD0000E5FFFFFF0A6802F8B2
:1007D000010B0A60704710B5436913B1AFF3008095
:1007E00001E0FFF7D1FE012010BD127800F12401D5
:1007F0000A7000224A700122EDE711684FF0FF32C3
:10080000E9E710B5203AC0F00B80B1E81850A0E835
:100810001850B1E81850A0E81850203ABFF4F5AFCE
:100820005FEA027C24BFB1E81850A0E8185044BF2A
:1008300018C918C0BDE810405FEA827C24BF51F897
:10084000043B40F8043B08BF7047D20728BF31F88B
:10085000023B48BF11F8012B28BF20F8023B48BFDC
:1008600000F8012B7047000000487047B8150020C1
:10087000034640688C46002818BF88423CBF0346A8
:100880004068F8D318681844884207D00CF1030078
:1008900020F00700001D411A521A0146081D0A6087
:1008A000FFF729BD10B5002000F048F8FFF7C3FCA2
:1008B000BDE81040012000F007B810B500F046F880
:1008C000BDE8104000F035B801491820ABBEFEE786
:1008D0002600020070477546FFF7C6FFAE460500CA
:1008E0006946534620F00700854618B020B5FFF74B
:1008F000C1FCBDE820404FF000064FF000074FF06C
:1009000000084FF0000BAC46ACE8C009ACE8C009E9
:10091000ACE8C009ACE8C00921F007018D4670477A
:1009200010B50446AFF300802046BDE81040FFF745
:100930008DBC002801D0FFF7C7BF704710B500F08D
:1009400047F8BDE81040FFF7F4BF000010B50128DC
:1009500005D0002103A000F021F8012010BD09A15D
:10096000F8E7000053494752544D454D3A204F7522
:1009700074206F662068656170206D656D6F727997
:10098000000000003A2048656170206D656D6F724F
:100990007920636F727275707465640070B5054676
:1009A0000C460A2000E06D1C00F02AF835B12878CA
:1009B0000028F8D102E0641C00F022F814B120787D
:1009C0000028F8D1BDE870400A2000F019B80000F6
:1009D00010B5002102A0FFF7E1FF012010BD0000CB
:1009E000534947414252543A2041626E6F726D61E1
:1009F0006C207465726D696E6174696F6E000000C1
:100A000008B569468DF800000320ABBE08BD0000A4
:100A1000FEE7000080B541F64060C2F2000000F041
:100A20006BFA80BD80B541F64060C2F2000000F074
:100A300063FA80BD80B541F66860C2F2000000F044
:100A40005BFA80BD80B541F66860C2F2000000F03C
:100A500053FA80BD10B588B00B4600210791CDE94F
:100A60000511CDE90311CDE90111016846F20042FB
:100A700001ACC4F20002891A224618BF012100F01D
:100A8000A9F90398002818BF0434206808B010BDE5
:100A900080B588B0029100210823CDE903110591AA
:100AA00006938DF81C10019102A901AB00F0D6F855
:100AB00008B080BD80B58AB001220792026846F274
:100AC0000043C4F2000300219A424FF00E03069146
:100AD000CDE90011CDE90211099308D046F60001D5
:100AE000C4F200018A4205D101220E2100E0002259
:100AF000CDE9042101210891694600F0F9F80AB016
:100B000080BD000080B541F69060C2F2000000F0A8
:100B100071FD80BD80B541F6F060C2F2000000F0CA
:100B200069FD80BDD0F800C06FF00F024AF6AB231C
:100B300052FA8CF2CAF6AA230146A2FB033000093E
:100B400005A31B5C40F2FF302CEA00005F2A88BF3F
:100B50000430C1E91603704700061016000610168F
:100B60008269816AB2F5005F06D06AB9022912D0A3
:100B7000012914D0D1B90EE0032917D8DFE801F01C
:100B8000020B020F0120704703293CBF0120704770
:100B90001CBF00207047C06AC0F300607047C06A85
:100BA000A0F1C070B0FA80F0400970470020704793
:100BB00080B5D0F800C0D0F808E0DCF80000BEF145
:100BC000400F20F48020CCF800000846CCF8043018
:100BD00004BF10460A46CCF80800CCF80C2080BDB3
:100BE0007047000072B600BFFEE7000000EE100A7A
:100BF00092ED001AB8EEC00A92ED012A21EE001A19
:100C000021EE001A22EE000A02EE101A92ED023ACC
:100C1000B8EEC22A20EE020A31EE000A23EE021AD2
:100C200092ED034A21EE021A30EE010A34EE000A78
:100C30007047000090F82020013A012A04D800688B
:100C400000F11402002004E000F1240201204FF41E
:100C500080211368194311607047000010B590F8A7
:100C600020E0D0F800C0AEF1010EBEF1010FDCF8BB
:100C700008E00ED81EF0E05F11D0CEF3016E012027
:100C800000FA0EF018608B687BB1486843EAC00335
:100C90000DE000F1240101204FF4802223E000F157
:100CA000240101204FF400121DE008684305D1E93A
:100CB000030403430CEB0E10C0F88031C0F88441EC
:100CC000097D012905D100F5C2710B6843F48073D9
:100CD0000B605168C0F88C11126800F5C071C0F843
:100CE0008821002001220B681A430A6010BD000011
:100CF000B0B590F82020013A012A2FD846F20060C2
:100D0000C4F20000026842F001020260026822F4AC
:100D10007C520260D1F814E0CC694A6A0368012C65
:100D200043EA022202600EF01F024FF0010303FAB1
:100D300002F2C3696FEA020C23EA0203C36113D013
:100D40002CBBC36803EA0C03C360CB688C8844EAFD
:100D5000034300EBCE0423640B4611E0416A41F4E7
:100D6000802141620120B0BDC3681343C3600B689A
:100D70008C8844EA034300EBCE04236401F10C03A6
:100D80008C681B8843EA044300EBCE046364436829
:100D90008D6943EA0204D1F810E0096A002D08BF0A
:100DA00003EA0C0444604369BEF1000F43EA020405
:100DB00008BF03EA0C040129446102D1C16911434F
:100DC000C161016821F0010101600020B0BD000097
:100DD0007047000010B590F82040013C012C0AD863
:100DE000046871B12469A4070ED100F12401012027
:100DF0004FF4001276E000F1240101204FF480222C
:100E000070E0E468A40771D0046804EB011CDCF80E
:100E1000B0410CF5D87E14F004049460DCF8B041C5
:100E200019BFE4085460640D1460DEF800400CF54E
:100E3000DA7E04F00204D460DCF8B44124075ABF1F
:100E4000DEF8004004F00F0408241461DEF80040CE
:100E50000029C4F307249461DEF800404FEA1444EB
:100E60005461DCF8B8211A70026802EB0112D2F862
:100E7000B8214FEA12225A70026802EB0112D2F82E
:100E8000B8214FEA12429A70026802EB0112D2F8BE
:100E9000B8214FEA1262DA70026802EB0112D2F84E
:100EA000BC211A71026802EB0112D2F8BC214FEA90
:100EB00012225A71026802EB0112D2F8BC214FEAE9
:100EC00012429A71026802EB0112D2F8BC214FEA79
:100ED0001262DA71006814BF00F1100100F10C0118
:100EE000002020220B681A430A6010BD00F1240183
:100EF00001204FF40012F5E72DE9F04F81B00446D0
:100F000000684669D0F804908768D0F80CB0D0F833
:100F100010A0D0F81880F10703D1002530071CD4A9
:100F200023E0F90710D00121BA07816009D47807BE
:100F300000F1AA80380700F1B080204600F0FAFAEC
:100F400002E0204600F0F8FA0025F80500F1848060
:100F5000F80300F1AA80300707D51BF0100004D079
:100F6000206845F400751021C160700708D51BF09A
:100F7000080005D020680821C160204600F0E8F98B
:100F8000B00706D52068C068800702D0204600F070
:100F9000E1F9700607D51AF0100004D0206845F476
:100FA000806510210161B00608D51AF0080005D04F
:100FB000206808210161204600F002FAF00606D5FB
:100FC00020680069800702D0204600F0FBF9B003DA
:100FD00008D519F0100005D0206810214160204686
:100FE00000F078FAF00308D519F0080005D0206861
:100FF00008214160204600F0A9FA300440F18F80BA
:101000005FEA497040F1888006F4807008EA102099
:1010100028435FEA8871014648BF41F00201B205EA
:1010200058BF01465FEA48700D4648BF45F00405C9
:10103000700558BF0D4630056ED518F070006BD0A6
:1010400010380009052862D8DFE800F0035356592C
:101050005C5F45F008055AE020684FF48071BA05DE
:1010600081600AD4780512D4380519D4204600F0DE
:1010700065FAF8037FF56FAF17E0204600F060FADD
:10108000F8037FF568AF10E04FF400655DE705F504
:101090000055F8037FF55FAF07E04FF4805554E744
:1010A00005F58045F8037FF556AF20684FF4803191
:1010B000BA0381600AD478030FD4380313D42046CE
:1010C00000F040FA30073FF548AF4EE7204600F009
:1010D0003BFA30073FF541AF47E705F500453007DC
:1010E0003FF53BAF41E705F5803530073FF535AFBC
:1010F0003BE745F010050AE045F0200507E045F024
:10110000400504E045F0800501E045F48075206865
:10111000816921F0700181612068042141602DB155
:10112000606A284360622046FFF752FE01B0BDE8C6
:10113000F08F0000B0B5C8B1044690F8200010B997
:10114000204600F071F82068016841F0010101605B
:1011500000F084FC054600BF20684168C90707D13C
:1011600000F07CFC401B0B28F6D312E00120B0BD40
:10117000016821F00201016000F070FC054600BF2B
:101180002068416889070DD500F068FC401B0B28DA
:10119000F6D3606A052140F400306062012084F8D3
:1011A0002010B0BD217E0268012922F0800208BF14
:1011B00080320260617E0268012922F0400208BF8D
:1011C00040320260A17E0268012922F0200208BF9D
:1011D00020320260E17E0268012922F0100218BF6D
:1011E00010320260217F0268012922F0080208BF44
:1011F00008320260617F0268012922F0040208BF00
:1012000004320260D4E901C2D4E9033561691A43AA
:101210002A431143ACF101021143C16100200121B5
:10122000606284F82010B0BDB0B586B0006846F6A4
:101230000002C4F2000200219042CDE90411CDE980
:10124000021101912FD046F20041C4F20001884200
:101250007BD141F62821C2F200010A6843F6400022
:10126000C4F20200531C0B6052B9002100910168C6
:1012700041F000710160016801F000710091009976
:101280000021009150F8101C142441F0020140F894
:10129000101C50F8100C132500F00200009000986C
:1012A0004FF4407031E043F64000C4F20200009178
:1012B000016841F080610160016801F08061009186
:1012C000009941F62821C2F200010A68531C0B6004
:1012D00052B900210091016841F00071016001687C
:1012E00001F00071009100990021009150F8101C4C
:1012F000412441F0020140F8101C50F8100C3F2529
:1013000000F00200009000986020019002200290FE
:1013100000200390032004900920059040F2004033
:10132000C4F2020001A900F0C5FA284605210022F6
:1013300000F03EFC284600F037FC20460521002244
:1013400000F036FC204600F02FFC06B0B0BD0000D7
:101350007047000010B541F6406041F21861C2F2DA
:101360000000C2F20001FFF775FB6FF4007111FA83
:1013700080F2032A88BF10BD42F24801C2F2000188
:1013800001F140000124DFE802F00D02060A01F13C
:101390006800022406E001F19000042402E001F15B
:1013A000B800082441F21861C2F2000102F07CFC8E
:1013B00042F24200C2F2000041782143417010BD68
:1013C0007047000010B541F6686041F22061C2F23A
:1013D0000000C2F20001FFF73DFB6FF4007111FA4B
:1013E00080F0032874D8DFE800F0021F3C5742F277
:1013F0004804C2F2000441F2206104F1E000C2F2AC
:10140000000101F01BFCD4F8E800002860D0B4F81B
:10141000E00000285CD042F24200C2F200000178F5
:1014200041F00101017010BD42F24804C2F2000413
:1014300041F2206104F1F000C2F2000101F0FEFB74
:10144000D4F8F800002843D0B4F8F00000283FD0CA
:1014500042F24200C2F20000017841F00201017044
:1014600010BD42F24804C2F2000441F2206104F5CA
:101470008070C2F2000101F0E1FBD4F8080138B33A
:10148000B4F8000120B342F24200C2F20000017839
:1014900041F00401017010BD42F24804C2F20004A0
:1014A00041F2206104F58870C2F2000101F0C6FB30
:1014B000D4F8180160B1B4F81001002808BF10BDBD
:1014C00042F24200C2F20000017841F008010170CE
:1014D00010BD000070470000B0B5044690F8200031
:1014E00001281DD1022084F820002068016821F025
:1014F0000101016000F0B2FA054600BF20684068B3
:10150000C00713D000F0AAFA401B0B28F6D3606A7C
:1015100040F400306062052084F820000120B0BD56
:10152000606A40F4002060620120B0BD002060626B
:10153000B0BD000070470000704700007047000019
:1015400070470000704700007047000070470000BF
:1015500070B5866D044600F081FA94F835100229C2
:1015600025D105462068216C026822F0160202602F
:10157000426922F08002426109B9A16C19B1016887
:1015800021F008010160016821F00101016000BF44
:1015900020680068C0070ED000F060FA401B0628E3
:1015A000F6D320206065032084F835000CE080200D
:1015B0006065012008E0E06D3F2101FA00F0B060B5
:1015C000012084F835000020002184F8341070BD1B
:1015D00090F83510022909D1052180F835100068EE
:1015E000016821F001010160002070478021416500
:1015F00001207047F0B581B004460020009040F211
:101600000000C2F200000268D4E9166048F2B51387
:1016100037680821C1F64E3381403942A2FB0325C9
:101620000CD0226813685B0708D5136823F0040305
:101630001360B160616D41F001016165012181407C
:10164000394208D022685269120604D5B160616D32
:1016500041F00201616504218140394208D02268CD
:101660001268920704D5B160616D41F004016165B3
:1016700010218140394215D020680268120711D527
:10168000B16002680168520306D4C90506D4016836
:1016900021F00801016001E0080342D4216C09B186
:1016A00020468847E16D202000FA01F23A4244D0FA
:1016B00020680368DB0640D5B26094F835300268D4
:1016C000052B1ED122F016020260426922F0800230
:1016D0004261226C0AB9A26C1AB1026822F00802B7
:1016E00002603F208840B060012084F83500216D01
:1016F0000020002984F8340040D02046884701B0FB
:10170000F0BD0168520310D4C90512D4016821F05C
:1017100010010160012084F83500002084F83400B5
:1017200007E0A16C0029BBD1BCE7080301D4616CC0
:1017300000E0E16B09B120468847606DF0B1606D53
:10174000C00717D0052084F835002068A90A026870
:1017500022F00102026000BF009A01328A42009228
:1017600002D80268D207F7D1012084F835000020A2
:1017700084F83400E16C09B12046884701B0F0BD1F
:101780002DE9F041044600F069F9C4B10546022094
:1017900084F835000020216884F83400086820F0BF
:1017A0000100086026683068C0070BD000F056F9C9
:1017B000401B0528F6D903212022032042E0012006
:1017C000BDE8F081306848F23F01CFF21001251DDD
:1017D00000EA010C2ECDD4E9050E41EA0C011143BB
:1017E00019432943D4E90778084340EA0E01606AA7
:1017F0003943042841EA080103D1D4E90B231143FA
:10180000194331607169042821F0070141EA00059C
:101810000CD1D4E90A1045EA010538B12046FFF79A
:101820009FF918B10121402201200BE0204675618B
:10183000FFF778F9E16D3F2202FA01F181600022A1
:1018400001210020626584F83510BDE8F0810000B8
:10185000B0B5044690F83400012828D0012084F85F
:101860003400A56D94F8350001281DD1022084F8BC
:101870003500002060652046FFF79AF9E26D3F23AE
:10188000206803FA02F2216CAA60026842F0160294
:10189000026019B1016841F008010160016841F07E
:1018A000010101600020B0BD002084F83400022056
:1018B000B0BD00002DE9F04F83B000F13E4202F1CF
:1018C000FF724FEAB22241F600470192C4F20207CA
:1018D00008224FF0010E00254FF0000A4FF00008DB
:1018E000B84208BF072200920AE000BF08F10108D1
:1018F0000AF1040AB8F1100F05F1020500F0A48006
:101900000C680EFA08FB14EA0B09EFD04C6804F0DF
:10191000030CACF1010EBEF1010F11D80322876850
:1019200002FA05F6CA68B743AA403A4382604268A1
:10193000C4F3001722EA0B0207FA08F73A434260A1
:10194000BCF1030F1CD0C26803238E6803FA05F7AD
:10195000BA4306FA05F73A43BCF1020FC2600FD151
:101960006FF0030202EA580202440AF01C060F2339
:10197000176A03FA06F40B69A743B3403B431362AB
:10198000026803234F68AB409A4307F00303AB4060
:101990001A4317F4403F4FF0010E0260A6D0002218
:1019A00043F644030292C4F202031A6843F6004469
:1019B00042F480421A601A68C4F2010402F48042C0
:1019C0000292029A28F003024FF6084B2244CFF607
:1019D000FF7B52F80B300AF00C070F26BE4023EABB
:1019E000060C019B009E072B38BF1E4606FA07F720
:1019F00047EA0C0342F80B30A2684B6842EA090739
:101A000043F60C4CDE0258BF22EA0907A760C4F275
:101A1000010CDCF800209E0242EA090758BF22EAC6
:101A20000907CCF8007062689E0342EA090758BFB4
:101A300022EA090767602268DB0342EA090358BF0C
:101A400022EA0903236051E703B0BDE8F08F0000EC
:101A5000002A08BF090481617047000045F69C60B8
:101A6000C2F200000068704741F2AC5045F69C613C
:101A7000C2F20000C2F2000100780A681044086057
:101A80007047000080B543F60040C4F202000168D0
:101A900041F400710160016841F4806101600168F6
:101AA00041F480710160032000F092F80F2000F0F3
:101AB00005F800F055F8002080BD0000B0B586B0F4
:101AC000002543F644010195C4F202010A68044668
:101AD00042F001020A60096801A801F001010191C8
:101AE0000199694600F028F900F05EF94DF683612E
:101AF0004000C4F21B31A0FB01014FF0FF3000EBAE
:101B0000914141F650700022C2F20000C4F201027D
:101B100040F2E733C0E90021C0E902530561856165
:101B200000F08CFB0546C0B941F65070C2F20000CF
:101B300000F0D4FB054680B9192000F035F80F2CD1
:101B40000AD819202146002200F032F841F2B050A4
:101B5000C2F20000046000E00125284606B0B0BDD6
:101B600080B582B0002043F640010190C4F202012A
:101B70004A6842F480424A604A6802F48042019214
:101B8000019A00900868002240F0805008600868C0
:101B90000F2100F08050009000986FF0010000F0DD
:101BA00007F802B080BD000080B503F0D1FB80BD16
:101BB00070B514460D46064603F0DAFB2946224668
:101BC00001F0BAF90146304603F0DAFB70BD0000BF
:101BD00080B503F0E7FB80BD2DE9F041002800F05F
:101BE0008B8043F60808C4F202080446D8F8F803CC
:101BF0000D4600F00700884207D288F8F853D8F85D
:101C0000F80300F00700A84276D12068810717D5B5
:101C1000410705D5D8F8001041F4E051C8F800108C
:101C2000010705D5D8F8001041F46041C8F800104C
:101C3000D8F80010A26821F0F0011143C8F8001094
:101C4000C0073FD1D8F8F80300F00700A84207D931
:101C500088F8F853D8F8F80300F00700A8424BD1F1
:101C60002068410707D5D8F80010E26821F4E05158
:101C70001143C8F80010000708D5D8F80000216902
:101C800020F4604040EAC100C8F8000000F09EF86F
:101C9000D8F8001046F2D462C1F30311C0F6000276
:101CA000515C40F2000220FA01F141F2B050C2F260
:101CB00000000068C2F200021160FFF7FFFE002082
:101CC000BDE8F0816068811E022907D258F8081C1F
:101CD00089015CBF0120BDE8F08110E0012807D137
:101CE00058F8081C89035CBF0120BDE8F08106E0BC
:101CF00058F8081C890702D40120BDE8F081D8F803
:101D0000001021F003010843C8F80000FFF7A6FE09
:101D1000064641F2883700BFD8F80000616800F03D
:101D20000C00B0EB810F8DD0FFF798FE801BB842FE
:101D3000F2D90320BDE8F0810F22026043F60802C9
:101D4000C4F20202136803F003034360136803F054
:101D5000F0038360136803F4E053C360D2F800C05B
:101D60004FF4E05303EADC030361D2F8F80300F018
:101D7000070008607047000040F20000C2F2000057
:101D80000068704780B5FFF7F7FF43F60801C4F21B
:101D90000201096846F2E462C1F38221C0F6000242
:101DA000515CC84080BD000080B5FFF7E5FF43F6F9
:101DB0000801C4F20201096846F2E462C1F342314B
:101DC000C0F60002515CC84080BD000010B543F66B
:101DD0000404C4F20204606800F00C0008280AD071
:101DE000042819BF42F20040C0F2F40047F6400058
:101DF000C0F27D1010BD206821682368490247F6B3
:101E00004001C0F27D1100F03F02C3F388105CBFB7
:101E100042F20041C0F2F401A1FB00010023FEF7F1
:101E2000F3FA21680222C1F3014102EB4101B0FB48
:101E3000F1F010BD2DE9F04182B0002800F0A28041
:101E40000446007843F60006C007C4F2020643D0F9
:101E5000B06800F00C00042805D1306880033BD541
:101E60006068C8BB8EE0B06800F00C00082802D1A2
:101E700070684002F1D46568B5F5A02F0AD0B5F5B9
:101E8000803F0BD0306820F480303060306820F420
:101E9000802006E0306840F480203060306840F4F4
:101EA00080303060FFF7DAFD002D054611D000BF0D
:101EB0003068800310D4FFF7D1FD401B6428F7D9A8
:101EC00022E100BFFFF7CAFD401B64284FF003006A
:101ED00055D830688003F5D4207880071AD5B068CB
:101EE00010F00C0F09D0B06800F00C00082840F08A
:101EF0008A807068400200F186803068800702D5D1
:101F0000E06801283ED13068216920F0F80040EAFD
:101F1000C10030602078000738D4207840074CD4C6
:101F2000A5695DB3B06800F00C00082840F09E8001
:101F3000012D27D07068E16900F480028A4221D126
:101F4000216A00F03F028A421CD147F6C071626AE2
:101F50000140B1EB821F15D1A26A0023CFF6FF73B7
:101F600003EBC23200F440316FF30F02914209D10A
:101F7000E16A00F07060B0EB016F03D1002002B0A5
:101F8000BDE8F081012002B0BDE8F0816069002861
:101F900040F20000C4F2472057D00121C0F8801E53
:101FA000FFF75CFD054600BF706F8007B5D4FFF7F3
:101FB00055FD401B0228F7D9A6E0306C10F0805880
:101FC0000AD100200190306C40F080503064306CB9
:101FD00000F080500190019847F20007C4F200071A
:101FE0003868C00524D4386840F480703860FFF742
:101FF00035FD05463868C0051AD4FFF72FFD401B94
:102000000228F7D980E0E068002851D00020C4F20F
:10201000472001210160FFF721FD05463068800758
:102020003FF571AFFFF71AFD401B0228F6D96BE0B0
:10203000A568052D50D0012D52D0306F20F0010041
:102040003067306F20F004004DE00021C0F8801EA2
:10205000FFF704FD054600BF706F80077FF55DAF99
:10206000FFF7FCFC401B0228F6D94DE00027C4F224
:10207000472700203866FFF7F1FC022D05460BD1FB
:102080003068800158D5FFF7E9FC401B02284FF06B
:102090000300F5D973E700BF306880017FF56EAFAC
:1020A000FFF7DCFC401B02284FF00300F4D966E781
:1020B0000020C4F2472000210160FFF7CFFC054655
:1020C000306880077FF526AFFFF7C8FC401B022869
:1020D0004FF00300F4D952E7306F40F0040030674E
:1020E000306F40F001003067FFF7B8FC002D054667
:1020F00041F2883714D000BF306F800713D4FFF748
:10210000ADFC401BB842F7D9032002B0BDE8F08116
:10211000FFF7A4FC401BB8424FF003003FF62FAF7F
:10212000306F8007F4D4B8F1000F7FF4F9AE306C53
:1021300020F080503064F3E604F11C052FCD0843F5
:102140000021CFF6FF7140EA821001EBC3316FF33B
:102150000F0140EA05600843706001203866FFF710
:102160007DFC0446306880013FF508AFFFF776FC40
:10217000001B02284FF00300F4D900E7704700006D
:102180007047000010B590F83C20012A4FF0020281
:1021900052D0012380F83C3080F83D200268D2F80C
:1021A00004E0D2F808C00C682EF07003234341F21B
:1021B000FF74C4F20004A24253600DDC40F2FF73CE
:1021C000C4F200039A4215DCB2F1804F29D040F2EC
:1021D0000043C4F2000322E040F2FF33C4F20103E3
:1021E0009A4212DC41F60003C4F200039A4218D06E
:1021F000002312E040F60003C4F200039A4210D01C
:1022000040F60043C4F2000309E044F20003C4F2C4
:1022100001039A4205D040F20043C4F201039A42FE
:1022200004D149682CF080031943916001210022F8
:1022300080F83D1080F83C20104610BD002804BFF7
:102240000120704710B5044690F83D0028B90020E1
:1022500084F83C00204600F01FF8022084F83D007E
:102260002068211D01F006FE012084F8460084F854
:102270003E0084F83F0084F8400084F8410084F870
:10228000420084F8430084F8440084F8450084F850
:102290003D00002010BD000080B582B00068B0F1A4
:1022A000804F01D002B080BD0020019043F6400075
:1022B000C4F202000168002241F0010101600068DF
:1022C000052100F00100019001981C20FFF770FC2F
:1022D0001C20FFF769FC02B080BD000090F83D10A3
:1022E00001291CBF01207047022180F83D100068C1
:1022F00041F2FF72C168C4F20002904241F0010154
:10230000C1600DDC40F2FF71C4F20001884215DCAF
:10231000B0F1804F29D040F20041C4F2000122E028
:1023200040F2FF31C4F20101884212DC41F60001A3
:10233000C4F20001884218D0002112E040F60001EA
:10234000C4F20001884210D040F60041C4F20001FE
:1023500009E044F20001C4F20101884205D040F2D4
:102360000041C4F20101884206D1816801F00701F1
:10237000062904BF00207047016841F00101016097
:102380000020704710B5044690F83C0001284FF03B
:10239000020008BF10BD012284F83C2084F83D00F3
:1023A00020684FF6777382689A4382600A684F2AE2
:1023B0000FDC1F2A22DD202A23D0302A21D0402AF8
:1023C0004DD14B68CA68194601F002FE20684021D1
:1023D0003BE06F2A17DDB2F5005F20D0B2F5805FD9
:1023E0002AD0702A3BD1D1E9012CCB68614601F09B
:1023F000DBFD2068816841F077011AE00AB1102AFC
:102400002DD1114621E0502A18D0602A27D14B68DF
:10241000CA68194601F0EEFD2068602115E0D1E997
:10242000012CCB68614601F0BFFD2068816841F452
:102430008041816000200BE0002009E04B68CA6801
:10244000194601F0C5FD2068502101F0B9FD0020BA
:10245000012184F83D10002184F83C1010BD0120BA
:10246000F6E7000070470000B0B504460068C16898
:10247000026902EA0105A9071DD4680731D42807BB
:1024800047D4E8065CD4E80773D128067BD46806F5
:1024900006D520686FF040010161204600F08CF8FD
:1024A000A80658BFB0BD20686FF02001016120462A
:1024B000FFF766FEB0BD6FF00201016101212177D7
:1024C0008069800703D02046FFF7CCFF05E0204657
:1024D00000F064F8204600F063F8002020776807D9
:1024E000CDD520686FF00401016102212177806958
:1024F00010F4407F03D02046FFF7B4FF05E02046EC
:1025000000F04CF8204600F04BF800202077280718
:10251000B7D520686FF00801016104212177C069F7
:10252000800703D02046FFF79DFF05E0204600F01E
:1025300035F8204600F034F800202077E806A2D5D0
:1025400020686FF01001016108212177C06910F443
:10255000407F03D02046FFF785FF05E0204600F0CE
:102560001DF8204600F01CF800202077E8073FF413
:102570008CAF20686FF001010161204600F012F875
:1025800028067FF584AF20686FF080010161204646
:10259000FFF7F4FD68067FF583AF7AE77047000028
:1025A0007047000080B500680021C4F20101884234
:1025B00008BFFFF759FA80BD7047000070B582B0C0
:1025C000044690F84200202822D100294FF001054E
:1025D00018BF002A1DD0012500262046256366630A
:1025E00001F0D4FE206B012813D101962068016808
:1025F0000191406801900198206850E8030F21681C
:1026000040F0100041E80302002AF5D1002500E067
:102610000225284602B070BDB0B582B004460268FB
:1026200044F20040C4F20000824201D002B0B0BDCA
:102630000D46A18DA94227D140F24004C2F2000408
:10264000204602F09BF90546204602F097F92846FD
:102650004FF4006101F05AFF41F63860C2F2000009
:10266000006801A903F0E2FC01980028DED04EF6D4
:102670000450CEF200004FF080510160BFF34F8F45
:10268000BFF36F8F02B0B0BDC068C006CED440F2B9
:102690004000C2F2000002F071F9A18D491B89B21D
:1026A00001F034FF41F63860C2F20000006869466C
:1026B00003F0BCFC00980028B8D04EF60450CEF2CF
:1026C00000004FF080510160BFF34F8FBFF36F8F59
:1026D00002B0B0BD70470000B0B582B003680446D8
:1026E0001868D9685A6900F02F05202D01F02005DF
:1026F00005D125B1204601F077FD02B0B0BD5FEAFB
:10270000007C1EBF02F0010E01F4907212EB0E026B
:102710004AD1226B0840C1063DD5012A3BD1002099
:102720000190186801905868019001985869400616
:1027300042D4A08DE18DE28D002A1CBF401A5FEAD1
:10274000004101D102B0B0BD216851E8031F2268E9
:1027500021F4907142E80313002BF5D1216851E870
:10276000051F226821F0010142E80513002BF5D175
:10277000202184F842100021216300BF216851E824
:10278000031F226821F0100142E80313002BF5D14A
:102790000221616354E0010658D44006D2D5204698
:1027A00001F008FD02B0B0BDC20718BF11F480727D
:1027B00051D1420755D45BE0E06B016849688AB2A9
:1027C000002ABFD0A38D9A42BCD2E185C069B0F582
:1027D000807F30D0206850E8030F216820F480709B
:1027E00041E80302002AF5D1206850E8050F21686E
:1027F00020F0010041E80502002AF5D1206850E8E8
:10280000050F216820F0400041E80502002AF5D1BB
:10281000202084F842000020206300BF206850E898
:10282000030F216820F0100041E80302002AF5D1CF
:10283000E06BFEF78DFE02206063A08DE18D401AF3
:1028400081B22046FFF7E8FE02B0B0BD204601F09D
:10285000E9FD02B0B0BD626C42F001026264420761
:1028600006D5BEF1000F03D0626C42F00202626432
:10287000820706D5BEF1000F03D0626C42F004025D
:102880006264BCF1000F06D55EEA050203D0626CFB
:1028900042F008026264626C002A3FF453AF0840C1
:1028A000800602D5204601F09FFC20684069616CDB
:1028B00000F0400001F00801401827D0204601F048
:1028C00051FC2068406940061BD500BF206850E8D5
:1028D000050F216820F0400041E80502002AF5D1EB
:1028E000E06B70B144F21901C0F600010165FEF71A
:1028F0006FFE00283FF426AFE06B016D884702B001
:10290000B0BD2046FFF7E6FE02B0B0BD2046FFF79F
:10291000E1FE0020606402B0B0BD0000002804BFEA
:102920000120704710B5044690F8410028B90020F6
:1029300084F84000204600F021F8242084F841006B
:102940002068C16821F40051C160204601F0B0FC4C
:102950002068016921F490410161416921F02A0157
:102960004161C16841F40051C160002020216064D0
:1029700084F8411084F84210606310BD2DE9F043E3
:1029800087B0044644F200402168C4F200000026EB
:1029900081420696CDE904660396029602D007B0FE
:1029A000BDE8F08343F630010196C4F202010A69E2
:1029B00046F2880842F400320A610A6900F5E43000
:1029C00002F400320192019A01960A68C4F20208E8
:1029D00042F008020A600968012201F00801019131
:1029E00001996021029102210391CDE9042107217F
:1029F000069102A9FEF75EFF41F69065C2F200055E
:102A00004FF440304FF000674FF48069C5E9080685
:102A10002846C5E90087C5E90266C5E90496C5E907
:102A20000666FEF7ADFE002818BFFEF7DBF8E5638B
:102A3000AC6341F6F06508F11800C2F200054021D0
:102A4000C5E9000705F10800002280E806024FF4FE
:102A50000030C5E908022846C5E90522EA61FEF70B
:102A60008FFE002818BFFEF7BDF8262005210022A2
:102A7000A563AC63FFF79CF82620FFF795F807B035
:102A8000BDE8F0837047000070470000B0B5044611
:102A900090F8410020281CBF0220B0BD4FF001007B
:102AA00089B3002A134608BFB0BD4FF0000C2120A7
:102AB0002162A384E384C4F844C084F84100A06B7D
:102AC00044F2191E44F259152268C0F6000EC0F6F1
:102AD0000005C0E90FE544F22905C0F600050432FF
:102AE000C0E9135CFEF7B4FE20686FF0400101609E
:102AF000206850E8050F216840F0800041E8050299
:102B0000002AF5D10020B0BD80B5006844F2004134
:102B1000C4F20001884218BF80BD40F24000C2F2FA
:102B2000000001F02BFF01F01DFD80BD704700008B
:102B3000FEE7000040F6000442F2280A42F23009A3
:102B400040F2040BC4F20204C2F2000AC2F200090D
:102B5000C2F2000B9AF80000411EC9B2032905D346
:102B60000146002818BF012189F800109BF80010C9
:102B700099F800204E08002A08BF4E004FF0FF31A0
:102B800008BF012101444FF0FF3050FA86F00F28B2
:102B90008BF800608AF800101ED80022B046374635
:102BA0003546DFE800F01D380F3D0F0F0F440F0FC3
:102BB0000F0F0F0F0F080025012201264FF001080B
:102BC00001270DE0FFE7FFE7FFE7FFE7FFE7FFE78C
:102BD000FFE7FFE7FFE7FFE7642003F085F9B9E7C8
:102BE00020460821FEF734FFF2B220460421FEF70A
:102BF0002FFF5FFA88F220460221FEF729FFFAB282
:102C000020460121FEF724FFEAB220464FF400518E
:102C1000FEF71EFFE0E7002601224FF0010803E067
:102C20004FF000080122012601270125D8E70027DF
:102C3000012201264FF001080125D1E70A8813BAC5
:102C40004FEA134CA0F800C082884988C2EB1342B7
:102C500009BA0B0C11B2B1F57A6F438002DDC2885C
:102C6000013AC28011F57A6F02DAC1880131C18060
:102C7000B0F906109FED071A0CEB413100EE101A67
:102C8000B8EEC00A20EE010A816080ED030AA0F8C8
:102C900004C070470000343D80B541F6406046F204
:102CA0000041C2F20000C4F200010622002380E8C5
:102CB0000E0000F10C014FF4003C4FF4001E81E8BF
:102CC000085083618383FEF735FA002818BFFDF7AB
:102CD00089FF80BD80B541F6686046F60001C2F20A
:102CE0000000C4F200010622002380E80E0000F17B
:102CF0000C014FF4003C4FF4001E81E80850836142
:102D00008383FEF717FA002818BFFDF76BFF80BD1D
:102D100080B582B00020019043F63000C4F202007A
:102D20000168002241F4001101600068052100F4EF
:102D30000010019001981020FEF73AFF1020FEF7D6
:102D400033FF112005210022FEF732FF1120FEF78C
:102D50002BFF02B080BD000010B588B046F2B8600D
:102D6000C0F6000090E80E50D0E905400191CDE991
:102D7000064001A8002102920393CDF810C0CDF8BF
:102D800014E002F0D9FB41F63C61C2F20001086098
:102D900008B010BDF0B587B0002543F630000695A9
:102DA000CDE90455CDE902550195C4F20200016850
:102DB00040F6000441F0040101600168C4F202041D
:102DC00001F004010191019901950168012241F08E
:102DD00080010160016842F20F0601F0800101915B
:102DE000019901950168012741F001010160016825
:102DF00001F00101019101990195016841F008017B
:102E00000160016801F008010191019901950168D3
:102E100041F002010160006842F20F0100F002007F
:102E2000019001982046FEF713FE02A92046CDE945
:102E30000267CDE90455FEF73DFD07B0F0BD000087
:102E400080B586B041F6987040F63F5C0021C2F232
:102E500000004FF080425323C0F2030CCDE904116F
:102E6000CDE90211CDE90011C0E90023C0E9021C3F
:102E700001618161FFF7E2F9002818BFFDF7B2FE9A
:102E80004FF48050029041F69870C2F2000002A9FF
:102E9000FFF778FA002818BFFDF7A4FE0020CDE95F
:102EA000000041F69870C2F200006946FFF76AF927
:102EB000002818BFFDF796FE06B080BD80B541F62C
:102EC000E07044F20041C2F20000C4F200010023AD
:102ED0004FF00C0C4FF4E13280E80E00C0E90333F0
:102EE000C0E905C3C361FFF719FD002818BFFDF74E
:102EF00079FE80BDFEE7000080B582B013881BBA62
:102F00004FEA134C5388ADF800C01BBA4FEA134C7C
:102F10009388D2881BBA12BA120C1B0CADF806208B
:102F20006A46ADF802C0ADF80430FDF7B1FD02B05D
:102F300080BD0000FEE7000000F0070080F00703FE
:102F4000042B28BF04234FF0FF3C03380CFA03F393
:102F500038BF0020994381400CFA00F022EA0000BB
:102F60000843704730EEC01A90ED032AB0EEC15A04
:102F7000B4EE425AF1EE10FA80ED0D0AC0ED100ADF
:102F800080ED051A40F39F8090ED016A90ED067A7E
:102F900090ED002A90ED023A21EE064A90F860107A
:102FA00080ED094A31EE474A21EE022A23EE044A17
:102FB0004A0780ED082A80ED0B4A09D531EE077AE1
:102FC000F6EE000A27EE207A26EE076A80ED096AFF
:102FD0008A0627D590ED0A6A21EE066AB5EE406AA8
:102FE000F1EE10FA1EDD90ED156AB4EE465AF1EEE0
:102FF00010FA17DD90ED147A76EE070AB4EE605AF7
:10300000F1EE10FA02DD002242620BE037EE455A83
:1030100036EE055A85EE075A90ED096A25EE065AF6
:1030200080ED095ACA0759D18A0700F18C804A06F7
:1030300011D590ED0B3A90ED174A90ED125AB7EE7C
:10304000006A23EE043A36EE444A25EE044A33EE93
:10305000043A80ED0B3A90ED093A90ED0A4A90ED72
:103060000B5A33EE043A32EE032A32EE052AC90631
:1030700080ED0A3A80ED072A0FD590ED163A90EDD3
:10308000114AB7EE005A22EE032A35EE433A24EEF7
:10309000033A32EE032A80ED072A90ED073A90EDCD
:1030A0000C2AB4EE423AF1EE10FAC8BF80ED072ABE
:1030B00090ED073AB1EE422AB4EE423AF1EE10FA40
:1030C000B8BF80ED072A80ED0E0A90ED070AC16AAD
:1030D00080ED110A816480ED061A704790ED0A6A4E
:1030E00090ED095A21EE067AB5EE407AF1EE10FA2B
:1030F00036EE055A0EDD32EE066A90ED0C7A34EEAD
:10310000064AB0EEC44AB4EE474AF1EE10FAC4BF24
:103110000022426290ED044AB4EE445AF1EE10FAF5
:10312000C2BF0022426280ED0A4AB1EE444AB4EEC8
:10313000445AF1EE10FABEBF0022426280ED0A4A04
:103140008A077FF574AF90ED0E4A34EE404A23EEC5
:10315000043A80ED0B3A4A063FF56BAF7BE700007F
:1031600030EEC02A90ED033AB0EEC24AB4EE434AC4
:10317000F1EE10FA80ED0D0AC0ED100A80ED052A7F
:1031800040F3CA8090ED003A90ED015A90ED026A4A
:1031900090F8601022EE033A22EE057A26EE011A2C
:1031A0004A0780ED083A80ED097A80ED0B1A0BD5BD
:1031B00090ED066AB6EE007A32EE066A26EE076AEF
:1031C00025EE065A80ED095A8A0627D590ED0A5A4F
:1031D00022EE055AB5EE405AF1EE10FA1EDD90EDE2
:1031E000155AB4EE454AF1EE10FA17DD90ED146A67
:1031F00035EE067AB4EE474AF1EE10FA02DD00220F
:1032000042620BE036EE444A35EE044A84EE064A4A
:1032100090ED095A24EE054A80ED094ACA0731D0DB
:1032200090ED0A5A90ED094A22EE056AB5EE406A21
:10323000F1EE10FA35EE044A0EDD33EE055A90ED4C
:103240000C6A31EE055AB0EEC55AB4EE465AF1EEAC
:1032500010FAC4BF0022426290ED045AB4EE454A0F
:10326000F1EE10FAC2BF0022426280ED0A5AB1EEBE
:10327000455AB4EE454AF1EE10FABEBF0022426252
:1032800080ED0A5A4A060FD590ED174A90ED125A72
:10329000B7EE006A21EE041A36EE444A25EE044ADF
:1032A00031EE041A80ED0B1A90ED091A90ED0A4ADE
:1032B00090ED0B5A31EE041A80ED0A1A33EE011A22
:1032C00031EE051AC90680ED071A0FD590ED163AB2
:1032D00090ED114AB7EE005A21EE031A35EE433A4B
:1032E00024EE033A31EE031A80ED071A90ED073A07
:1032F00090ED0C1AB4EE413AF1EE10FAC8BF80ED31
:10330000071A90ED073AB1EE411AB4EE413AF1EEE8
:1033100010FAB8BF80ED071A80ED0E0A90ED070A8B
:10332000C16A80ED110A816480ED062A70470000B1
:1033300080B594460A4645F2F13E45F23141B0EE81
:10334000414AC0F6000EC0F60001B0EE601AF0EE81
:10335000400AC0E91EE16146B0EE610AF0EE441A8F
:1033600002F046F880BD00008CB003F053F841F63F
:1033700028049FEDEBCA9FEDEB9A9FEDEBBA9FED12
:10338000EB8AC2F20004B0EE00FAB1EE04AA2046C5
:10339000B0EE4F0AF0EE4C0AB0EE491A4FF4FA7153
:1033A000F0EE4A1A4FF48042B0EE4B2AF0EE482A73
:1033B000B0EE483AF0EE483A2723FFF7B9FF04F1A0
:1033C00080004FF4FA714FF480422723B0EE4F0A89
:1033D000F0EE4C0AB0EE491AF0EE4A1AB0EE4B2A63
:1033E000F0EE482AB0EE483AF0EE483A0B90FFF77C
:1033F0009FFF04F580704FF4FA714FF48042272349
:10340000B0EE4F0AF0EE4C0AB0EE491AF0EE4A1A4E
:10341000B0EE4B2AF0EE482AB0EE483AF0EE483AC9
:103420000A90FFF785FF04F5C070F0EE4C0A4FF4E8
:10343000FA714FF480422723B0EE4F0AB0EE491ADA
:10344000F0EE4A1AB0EE4B2AF0EE482AB0EE483AB7
:10345000F0EE483A0990FFF76BFF41F228649FEDC8
:10346000B4EA9FEDB4CA9FEDB4DAC2F20004F8EEFC
:10347000048A2046B0EE4F0AF0EE490AB0EE681A10
:103480004FF4FA71F0EE4E1A4FF48042B0EE4C2A2F
:10349000F0EE4D2AB0EE483AF0EE483A2723FFF717
:1034A00047FF04F180004FF4FA714FF48042272364
:1034B000B0EE4F0AF0EE490AB0EE681AF0EE4E1A7E
:1034C000B0EE4C2AF0EE4D2AB0EE483AF0EE483A13
:1034D0000890FFF72DFF04F580704FF4FA714FF458
:1034E00080422723B0EE4F0AF0EE490AB0EE681A88
:1034F000F0EE4E1AB0EE4C2AF0EE4D2AB0EE483AFD
:10350000F0EE483A0790FFF713FF04F5C070B0EEF5
:103510004F0AB0EE681A4FF4FA714FF48042272335
:10352000F0EE490AF0EE4E1AB0EE4C2AF0EE4D2ABB
:10353000B0EE483AF0EE483A0690FFF7F9FE41F651
:103540003024DFED7E8AC2F20004B0EE04FA204699
:10355000B0EE4F0AF0EE680AB0EE4A1A4FF4FA7174
:10356000F0EE4A1A42F21072B0EE4B2AF0EE482A00
:10357000B0EE483AF0EE483A2723FFF7D9FE04F1BF
:1035800080004FF4FA7142F210722723B0EE4F0A16
:10359000F0EE680AB0EE4A1AF0EE4A1AB0EE4B2A84
:1035A000F0EE482AB0EE483AF0EE483A0590FFF7C0
:1035B000BFFE04F580704FF4FA7142F210722723B7
:1035C000B0EE4F0AF0EE680AB0EE4A1AF0EE4A1A70
:1035D000B0EE4B2AF0EE482AB0EE483AF0EE483A08
:1035E0000490FFF7A5FE04F5C070B0EE4F0AF0EEB0
:1035F000680AB0EE4A1A4FF4FA71F0EE4A1A42F233
:103600001072B0EE4B2AF0EE482AB0EE483AF0EED7
:10361000483A27230390FFF78BFE41F63047C2F26A
:103620000007B0EE08AAB8EE08BA3846002142F208
:1036300010722723B0EE4A0AF0EE490AB0EE4B1A98
:10364000F0EE4E1AB0EE4C2AF0EE4D2AB0EE483AAB
:10365000F0EE483AFFF76CFE07F18000002142F2DD
:1036600010722723B0EE4A0AF0EE490AB0EE4B1A68
:10367000F0EE4E1AB0EE4C2AF0EE4D2AB0EE483A7B
:10368000F0EE483A0290FFF753FE07F580700021F4
:1036900042F210722723B0EE4A0AF0EE490AB0EE69
:1036A0004B1AF0EE4E1AB0EE4C2AF0EE4D2AB0EE68
:1036B000483AF0EE483A0190FFF73AFE07F5C0703D
:1036C000B0EE4A0AF0EE490AB0EE4B1A0021F0EED5
:1036D0004E1A42F21072B0EE4C2AF0EE4D2AB0EEC5
:1036E000483AF0EE483A27230090FFF721FE42F2D5
:1036F000420642F2480942F2981A40F2080442F2A5
:10370000320B41F22868C2F20006C2F20009C2F28E
:10371000000AC2F20004C2F2000BC2F2000812E07A
:103720006F12833A00000000000048430000C842C6
:103730000000204200409C4600401C460AD7233C23
:10374000022002F0D1FB3078C10709D0F178CA0617
:1037500006D4D9F8E82041F01001C9F84021F170F1
:10376000810709D5F1788A0606D4D9F8F82041F006
:103770002001C9F84421F170410709D5F1784A06C2
:1037800006D4D9F8082141F04001C9F84821F17068
:1037900000070AD596F90300002806D4D9F81811B5
:1037A00040F08000C9F84C11F0707078C10709D062
:1037B000F178CA0706D1D9F8502041F00101C9F8C3
:1037C0003021F170810709D5F1788A0706D4D9F83C
:1037D000782041F00201C9F83421F170410709D580
:1037E000F1784A0706D4D9F8A02041F00401C9F8BD
:1037F0003821F170000709D5F078010706D4D9F80F
:10380000C81040F00800C9F83C11F0709AED080AA1
:103810009AED0C1ABDEEC00A10EE100ABDEEC10AF8
:10382000226910EE101A00F015FA00EE100AD9F80D
:103830005000D9F83011F8EEC00A401A00EE100A14
:10384000B9F94200B8EEC00A01EE100AB8EEC11A8A
:103850004046CAED0C0AFFF783FCB9F9420041F675
:10386000280500EE100AD8ED070AC2F20005B8EEEE
:10387000C00A2846FFF776FB95ED070A9AED0D1A68
:10388000BDEEC00A10EE100A9AED090AABF800006E
:10389000BDEEC00A10EE100ABDEEC10A626910EE5C
:1038A000101A00F0D7F900EE100AD9F87800D9F80C
:1038B0003411F8EEC00A401A00EE100AB9F96A0095
:1038C000B8EEC00A01EE100A0898B8EEC11ACAEDA7
:1038D0000D0AFFF745FCB9F96A00D8ED270A00EE9A
:1038E000100A0B98B8EEC00AFFF73CFB95ED270ACB
:1038F0009AED0E1ABDEEC00A10EE100A9AED0A0AF1
:10390000ABF80200BDEEC00A10EE100ABDEEC10A0F
:10391000A26910EE101A00F09DF900EE100AD9F815
:10392000A000D9F83811F8EEC00A401A00EE100ACB
:10393000B9F99200B8EEC00A01EE100A0798B8EE85
:10394000C11ACAED0E0AFFF70BFCB9F99200D8EDC7
:10395000470A00EE100A0A98B8EEC00AFFF702FB09
:1039600095ED470A9AED0F1ABDEEC00A10EE100A47
:103970009AED0B0AABF80400BDEEC00A10EE100A77
:10398000BDEEC10AE26910EE101A00F063F900EE14
:10399000100AD9F8C800D9F83C11F8EEC00A401A4C
:1039A00000EE100AB9F9BA00B8EEC00A01EE100A2A
:1039B0000698B8EEC11ACAED0F0AFFF7D1FBB9F9A4
:1039C000BA00D8ED670A00EE100A0998B8EEC00AEE
:1039D000FFF7C8FA95ED670A7078BDEEC00A10EEE1
:1039E000101AABF8061040B141F64060C2F2000078
:1039F0004FF400715A46FFF77FFA9AED100A9AEDDC
:103A0000141ABDEEC00A10EE100ABDEEC10A226AF9
:103A100010EE101A00F01EF900EE100AD9F8E800B6
:103A2000D9F84011F8EEC00A401A00EE100AB9F9B0
:103A3000E200B8EEC00A01EE100AB8EEC11A38462C
:103A4000CAED140AFFF78CFBB9F9E20041F6302504
:103A500000EE100AD7ED070AC2F20005B8EEC00A60
:103A60002846FFF77FFA95ED070A9AED151ABDEE85
:103A7000C00A10EE100A9AED110AABF80800BDEE6C
:103A8000C00A10EE100ABDEEC10A626A10EE101AEA
:103A900000F0E0F800EE100AD9F8F800D9F8441167
:103AA000F8EEC00A401A00EE100AB9F9F200B8EEBA
:103AB000C00A01EE100A0298B8EEC11ACAED150A42
:103AC000FFF74EFBB9F9F200D7ED270A00EE100A16
:103AD0000598B8EEC00AFFF745FA95ED270A9AED6A
:103AE000161ABDEEC00A10EE100A9AED120AABF8D3
:103AF0000A00BDEEC00A10EE100ABDEEC10AA26AAD
:103B000010EE101A00F0A6F800EE100AD9F808011D
:103B1000D9F84811F8EEC00A401A00EE100AB9F9B7
:103B20000201B8EEC00A01EE100A0198B8EEC11AFF
:103B3000CAED160AFFF714FBB9F90201D7ED470ADF
:103B400000EE100A0498B8EEC00AFFF70BFA95EDE4
:103B5000470A9AED171ABDEEC00A10EE100A9AED48
:103B6000130AABF80C00BDEEC00A10EE100ABDEE51
:103B7000C10AE26A10EE101A00F06CF800EE100AAA
:103B8000D9F81801D9F84C11F8EEC00A401A00EE25
:103B9000100AB9F91201B8EEC00A01EE100A009835
:103BA000B8EEC11ACAED170AFFF7DAFAB9F912012D
:103BB000D7ED670A00EE100A0398B8EEC00AFFF7C7
:103BC000D1F995ED670A3078BDEEC00A10EE101AF3
:103BD0000028ABF80E103FF4B3AD41F668600BF16E
:103BE0000802C2F200004FF40071FFF785F9A7E563
:103BF000EFF30980BFF36F8F154B1A681EF0100F9B
:103C000008BF20ED108A20E9F04F10602DE909006F
:103C10004FF0500080F31188BFF34F8FBFF36F8FC9
:103C200002F0BAFA4FF0000080F31188BDE80900F5
:103C300019680868B0E8F04F1EF0100F08BFB0EC2C
:103C4000108A80F30988BFF36F8F704700BF00BFF1
:103C5000F8210020401A00EE100A0128B8EEC00A30
:103C600015DB01EE102AB8EEC11AB4EE410AF1EEEE
:103C700010FAC4BF5018704701EE101AB8EEC11AFE
:103C800031EE000ABDEEC00A10EE100A7047504235
:103C900001EE100AB8EEC11AB4EE410AF1EE10FAC4
:103CA000BCBF881A7047E7E7B0B50A88044612BA65
:103CB000150C05804888A38900BA4FEA104CA4F877
:103CC00002C08888C3EB124300BA020CA280887934
:103CD00019B2B1F57A6FA07102DDE0890138E08197
:103CE00011F57A6F02DAE0890130E081B4F90E0053
:103CF0009FED0B1A05EB403000EE100AB8EEC00A3B
:103D0000206120EE010A0FFA8CF011B204F11802C2
:103D100084ED050AFCF76AFF84ED020AA581B0BDB7
:103D20000000343D00000000000000000000000022
:103D3000074B19680868B0E8F04F80F30988BFF3B3
:103D40006F8F4FF0000080F31188704700BF00BFF5
:103D5000F821002001F00CFF002002F0EFF800BF76
:103D6000012001F0DBFBFBE780B54FF0500080F352
:103D70001188BFF36F8FBFF34F8F02F051FB30B14B
:103D80004EF60450CEF200004FF08051016000204A
:103D900080F3118880BD000070B592B006AC20465B
:103DA0003021FCF77EFC002543F640000595CDE967
:103DB0000355CDE901550095C4F2020001680226C1
:103DC00041F080510160006800F080500090009840
:103DD00047F200000095C4F20000016841F4804100
:103DE0000160006800F48040009000980120069077
:103DF0004FF4803007904FF480000D9019200E9002
:103E00004FF4A870CDE90F060420119020460C96BF
:103E1000FEF710F888B90F20CDE901064FF4A05045
:103E200004904FF48050059001A805210395FDF7FB
:103E3000D3FE002804BF12B070BDFCF7D3FE000013
:103E40004EF68850CEF20000016841F47001016026
:103E50007047000080B541F65070C2F20000FEF7D6
:103E600003FB80BD80B541F69870C2F20000FEF7FA
:103E7000FBFA80BD10B540F6FF3E0368C4F2000EA9
:103E800040F2004C7045C4F2010C0FDCB0F1804FE1
:103E900019D040F20042C4F20002904213D040F622
:103EA0000002C4F2000290420DD010E040F6004241
:103EB000C4F20002904206D0604504D00022C4F251
:103EC0000102904203D14A6823F07003134341F684
:103ED000FF72C4F2000290420DDC70451FDCB0F1AD
:103EE000804F41D040F20042C4F2000290423BD0E9
:103EF00040F6000221E043F6FF72C4F20102904254
:103F000020DC42F20002C4F2000290422CD00022D7
:103F1000C4F20102904227D0604525D028E040F647
:103F20000042C4F2000290421ED041F60002C4F2E8
:103F30000002904218D041F60042C4F200029042C2
:103F400012D015E044F20002C4F2010290420BD0FC
:103F500044F60002C4F20102904205D044F200424D
:103F6000C4F20102904203D1CA6823F440731343A0
:103F700023F080024B69D1F800E08C681A4302609C
:103F8000C46240F48062C0F828E0624504BF096959
:103F90000163012141610169C90708BF10BD0169C1
:103FA00021F00101016110BDD0F808C011432CF4CB
:103FB0007F4C41EA032141EA0C0181607047000017
:103FC000826822F07002114341F00701816070475E
:103FD000D0F820C0036A23F001030362836923F051
:103FE000F00343EA02122CF00A03194382610162D2
:103FF00070470000D0F820C0036A23F0100303626A
:10400000836923F4704343EA02322CF0A00343EAAD
:10401000011182610162704780B5806B0021C1850A
:10402000C184FEF757FB80BD10B5846B20684069E2
:1040300094F84110212907D110F0800004D000200D
:10404000E084204600F0C2F82068406994F84210ED
:10405000222907D110F0400004D00020E08520463E
:1040600000F080F8606C40F0100060642046FEF7BD
:1040700031FB10BD80B50168806B0968C9052FD47C
:104080000021C185016851E8031F026821F4807195
:1040900042E80313002BF5D1016851E8051F0268BF
:1040A00021F0010142E80513002BF5D1016851E828
:1040B000051F026821F0400142E80513002BF5D1ED
:1040C000202180F84210016B012909D1016851E8D3
:1040D000031F026821F0100142E80313002BF5D101
:1040E00000214163016B012903D1818DFEF794FA10
:1040F00080BDFEF7C7FC80BD80B5806B01214163A8
:10410000016B012904D1818D4908FEF785FA80BD34
:10411000FEF7BAFC80BD000080B50168806B0968BD
:10412000C90516D40021C184016851E8051F026841
:1041300021F0800142E80513002BF5D1016851E818
:10414000031F026841F0400142E80313002BF5D140
:1041500080BDFEF7D9FC80BD80B5806BFEF7E6FC24
:1041600080BD0000016851E8031F026821F49071CE
:1041700042E80313002BF5D1016851E8051F0268DE
:1041800021F0010142E80513002BF5D1016B012953
:104190000AD100BF016851E8031F026821F0100135
:1041A00042E80313002BF5D1202180F842100021B2
:1041B0000163704780B50168CA6822F04002CA6096
:1041C000202180F84110FEF79FFC80BD016851E876
:1041D000031F026821F0C00142E80313002BF5D150
:1041E000202180F84110704780B582B090F84210CD
:1041F00022291ED18268B2F5805F02D101690029AF
:104200004AD0816AB2F5805F07D00AB9026922B14B
:104210000268526802F07F0201E0026852680A7088
:104220000121826A11448162C18D01390A04C1856C
:1042300001D002B080BD0168CA6822F02002CA60C5
:10424000CA6822F48072CA604A6922F001024A6197
:10425000202180F8421000214163026B012A23D102
:10426000016300BF016851E8031F026821F01001DB
:1042700042E80313002BF5D101680A68D20606D57F
:10428000002201920A680192496801910199818D89
:10429000FEF7C2F902B080BD0168826A49686FF317
:1042A0005F2111800221BCE7FEF7ECFB02B080BD6C
:1042B00010B504460068D4E902C22369016921F4FB
:1042C000405111430161626943EA0C01E369114302
:1042D000C268194349F20C639A431143C1604169B2
:1042E000A26921F4407141F20043114340F480621D
:1042F000C4F201039A42416102D1FDF755FD01E08C
:10430000FDF740FDE16963681922B1F5004FA0FB9C
:1043100002011CD15A00DB0FFCF776F848F21F515E
:10432000C5F2EB11A0FB01235A096FF0630302FBF6
:104330000300322303EBC000A0FB01014FF4F8702F
:1043400000EA111000EB0210C1F342111AE09A00CA
:104350009B0FFCF759F848F21F51C5F2EB11A0FB77
:1043600001235A096FF0630302FB0300322303EBBE
:104370000010A0FB0101F02000EA511000EB021038
:10438000C1F3431122680843906010BD70B582B03C
:10439000134600260446816283854664222084F801
:1043A00042000A462168E06B44F2750C44F2F90EB3
:1043B00044F22905C0F6000CC0F6000EC0F6000558
:1043C0000431C0E90FCEC0E91356FDF741FA01965A
:1043D000206801680191406801900198206948B106
:1043E000206850E8030F216840F4807041E8030220
:1043F000002AF5D1206850E8050F216840F001003F
:1044000041E80502002AF5D1206850E8050F21682F
:1044100040F0400041E80502002AF5D1002002B03A
:1044200070BD000090F84110212923D18168B1F5B9
:10443000805F01D1016931B1016A02684B1C0362DE
:104440000978516007E0016A036831F8022B6FF3C5
:104450005F225A600162C18C01390A04C18418BF0D
:1044600070470068C16821F08001C160C16841F0F7
:104470004001C1607047000080B541F6E070C2F2B3
:104480000000FEF729F980BDFEE7000010B58EB0F0
:1044900042680DF1060406A12046FCF72DF840F213
:1044A0004000C2F20000214600F02CFB0EB010BD0F
:1044B0005B73746D33325D3A20737562206461748E
:1044C000613A25730000000040F24004C2F200048B
:1044D00001204FF0FF3101F09DFB204600F09CFBD6
:1044E000F6E7000040F24004C2F20004204600F06B
:1044F00093FB4FF4C87001F0F7FCF7E70068C06B5E
:104500000068406840426FF3DF20704780B5036861
:10451000401A0A4600F604011846FEF74FF880BD1F
:1045200080B54FF40061FFF7F1FF80BDB0B5D0F862
:1045300004580446FFF7E2FF854204BF4FF0FF3006
:10454000B0BDD4F80408411CC4F804182044007914
:104550006FF3DF21C4F80418B0BD000080B5FDF78B
:104560007DFA80BD70B50146006890F84120202A90
:1045700023D141F63464C2F200042278002A18BF25
:1045800070BD41F208028D18D5E900324FF0010CE0
:10459000934284F800C00ED098BF4FF400639E1A77
:1045A000114401F60801B2B2FEF770FA68683044AF
:1045B0006FF3DF2068600020207070BD2DE9F043AC
:1045C00081B041F20808044650F808001546B2F5DB
:1045D000006FA8BF4FF40065C0F500662F46204469
:1045E000B54288BF374600F608003A468946FCF7D0
:1045F00013F854F80800B54228446FF3DF2044F85C
:10460000080006D904F6080009EB0701EA1BFCF7CD
:1046100003F82046FFF7A6FF01B0BDE8F0830000D5
:104620002DE9F04782B005460E6840680C46864288
:1046300004D9E868B100FBF785FEE8606E60EEB172
:1046400000206FF0030100BF621804EB80035F7964
:10465000167A9B79D27A46EA072747EA034343EA68
:104660000262EB68AA6043F820206A680130904239
:1046700001F10401E8D301F1080700E00427E6593D
:104680002869864204D9A869B100FBF75BFEA861DE
:104690002E617EB1E1190020002200BF0B185B687B
:1046A000AE696B6133502B6901329A4200F104000C
:1046B000F4D30744381D2658E8690837864204D9E0
:1046C000686AB100FBF73EFE6862EE615EB3A4F17A
:1046D000010A4FF000090DF1040800260DE000BFAB
:1046E000021902F8019C6A6A5144296242F82610B4
:1046F000E96901368E42074612D2E119404600F0C0
:1047000045FC0198391D08448142E9D201980844CA
:10471000E2191379D3707A1D01378242F8D3DFE7AB
:1047200002B0BDE8F087384602B0BDE8F08700006F
:1047300000A07047396630653938626461363539B2
:1047400038313938366464663533616661376134CF
:10475000306534390000000046F2EC60C0F600001D
:1047600070470000F0B581B00C4611F8012B0746E8
:104770000271684600F00AFC0099481D06280FD314
:104780000099251D481D0246062898BF0622053AB5
:104790002B4600BF13F8016F013A2E701D46F9D168
:1047A000214400220A71211DB96001B0F0BD000052
:1047B00000A070473131616264373331633235397B
:1047C00033333236316364363138336264313264C4
:1047D000363239350000000000A07047726F7373E5
:1047E000657269616C5F6D7367732F4C6F67000052
:1047F00080B500F0E7FB46F22071C0F600010831F9
:1048000001600021017146F2FF71C0F60001816074
:1048100080BD00002DE9F04184B00D4609780446C2
:104820008180687841EA0020A080A91C03A800F0DC
:10483000ADFB039EB01D07280ED3039E6A1DB01D5D
:104840000146072898BF07210639134613F8017F50
:10485000013917701A46F9D171194FF0000881F823
:104860000580691DA160291802A800F08FFB02993C
:1048700006F10A000F18B8420AD202990F1800BFB9
:10488000A9198A7A4A7206F10B010136B942F7D3A7
:104890002844E919013801F8018CE06001A800F012
:1048A00075FB0198391D0844814208D201980844DB
:1048B000EA191379D3707A1D01378242F8D329445B
:1048C0002A180023013902F8013C216129580430DB
:1048D000616104B0BDE8F08100A0704730616435CB
:1048E000316638386663343438393266386331308B
:1048F0003638343037373634363030350000000043
:1049000000A07047726F7373657269616C5F6D733D
:1049100067732F546F706963496E666F0000000003
:1049200080B500F04FFB46F23871C0F60001083147
:1049300046F2FF7201600021C0F600028180C0E9EA
:104940000222C0E9042180BD80B50C3000F0CEFB0E
:1049500080BD000080697047B0B500F10C050446C9
:10496000284600F08DFB616928468847B0BD0000ED
:1049700080B50C3000F0A6FB80BD0000043070470D
:104980002DE9F04186B0E84604464046FFF7C8FFEF
:1049900041F22440261800274FF4007503E000BFC1
:1049A0000137192F20D056F827000028F8D0826848
:1049B000D0E90010ADF804200291016889688847A9
:1049C00056F82710039048680168C9688847049022
:1049D00056F82700059500F001FB216842460B6858
:1049E000014620469847DBE741F288402618002719
:1049F0004FF400786D4602E00137192F21D056F8A8
:104A000027000028F8D08268D0E900130292896854
:104A1000ADF80430884756F8271003900868C2683C
:104A200008469047049056F82700CDF81480016896
:104A30004968884721682A460B68014620469847FE
:104A4000DAE74FF4A8500121215406B0BDE8F08107
:104A500070B584B001AD0446284600F0FFFA264642
:104A600056F8040B0A21036820462A469847304628
:104A7000FFF774FD41F21401605004B070BD0000F6
:104A8000F0B583B06F460646384614460D46FFF72C
:104A9000AFFE30688DF80450029403683046072159
:104AA0003A46984703B0F0BDF0B581B041F218071F
:104AB0000546C61904300C46FFF750FD44F6D351A5
:104AC000C1F26201A0FB0112D4E9003491096FEA3E
:104AD00092121A44EA514FF47A7201FB12004BF61B
:104AE000C051CFF6F07100FB01404CF60021C3F637
:104AF0009A310844314641F8040F304600F02EFA4E
:104B000001B0F0BD80B50A460121FFF7B9FF80BDB5
:104B100070B5044641F224200E46642904EB0005DA
:104B200003DB95F8DC02002842D0106841F22B210B
:104B300003682144104698474FF6FF612980010A17
:104B4000E97000EB1021C9432971310AB0F1FF3F30
:104B500000F1070CA8706E71A97110DB6246BCF100
:104B6000060FD8BF062241F22823053AE618002393
:104B700016F8011F013A0B44FAD1DA4300E0FF2294
:104B800004EB0C0141F22423B0F5FC7FCA5408DC8D
:104B900000F10806201D29463246FFF70FFD30467A
:104BA00070BD04A1204600F031F84FF0FF3070BD19
:104BB000002070BD4D6573736167652066726F6D0F
:104BC000206465766963652064726F707065643A0D
:104BD000206D657373616765206C61726765722013
:104BE0007468616E206275666665722E0000000052
:104BF00010B504460430FFF793FC41F2EC40211855
:104C000000222250C1E90122CA6010BD80B50A46C7
:104C10000321FFF735FF80BD2DE9F04F81B0061D60
:104C2000044600F581573046FFF798FC41F20851E1
:104C300061580546401A42F6F921884224BF0020F7
:104C400087F8E004D7F8CC0430B1D7F8EC048542FB
:104C500084BF0020C7F8CC0441F2145041F2240B69
:104C6000204404EB0B0905F11408009004E000BF98
:104C70000021002940F0E080386838B13046FFF765
:104C80006DFC3968401B884200F2EA803046FFF72D
:104C90004DFC002820D4D7F8DC14D7F8CC340A18FF
:104CA000082BC7F8DC24E3D8DFE803F00D181F2A2F
:104CB0003405404F6200591CC7F8D404C7F8CC141F
:104CC000C7F8DC04D4E7FF2840F078800120C7F85B
:104CD000CC04C7F8EC84CBE70321CAE7FE2840F0F8
:104CE0007D800220C7F8CC04C2E700215A1CC7F817
:104CF000CC24C7F8D004C7F8D814C7F8DC04B8E748
:104D0000D7F8D01401EB0020591CC7F8CC14C7F811
:104D1000D004ADE7D01702EB106020F0FF00101AAE
:104D2000FF2867D10520C7F8CC04A1E7D7F8D41431
:104D3000D7F8D02401EB0020C7F8D4040720002ABC
:104D400008BF0820C7F8CC0492E7D7F8D8144A1C4B
:104D50002144C7F8D82401F80B00D7F8D004013853
:104D6000C7F8D0047FF484AF0820C7F8CC047FE7ED
:104D7000D01702EB106020F0FF00101A0021FF286E
:104D8000C7F8CC147FF475AFD7F8D4040B2835D806
:104D9000DFE800F006343434343441343434494EDE
:104DA0002046FFF755FE2046FFF7EAFDC7F8E4541A
:104DB000C7F8E8544FF0FF3A01215AE73046FFF7B1
:104DC000CDFB401B41F289318842FFF451AF0020F6
:104DD00087F8E0046FF0010A01214AE797F8E00440
:104DE00000210028C7F8CC147FF443AF2046FFF71A
:104DF0002FFE3DE70021C7F8CC143AE704EB800012
:104E000041F2F821405800283FF432AF01680A68A7
:104E1000494690472CE700984946FFF701FC0120DE
:104E200087F8F00424E72046494600F025F81FE7FC
:104E3000002187F8E0141CE7032919D197F8E00452
:104E400088B1D7F8E40440F6C511281A88420DD37A
:104E50002046FFF7FDFD4FF0000AC7F8E45407E0D5
:104E60006FF0010A04E04FF0000A01E04FF0000A81
:104E7000504601B0BDE8F08F2DE9F04784B041F213
:104E800014090DF1040A044600EB090850460E46C9
:104E900000F0E4F8251D2846FFF760FB54F80910E0
:104EA000471A5046314600F09BF844F6D350C1F201
:104EB0006200DDE90236A7FB0002900903EB9212C3
:104EC00002924FF47A7200FB127043F6095250437B
:104ED00006EB80100AF1040103902046FFF7E4FD81
:104EE0002846FFF73BFBC8F8F40404B0BDE8F087A0
:104EF000844641F224400CEB0003002053F82020AC
:104F00002AB10130192804BF00207047F6E70CEBE6
:104F100080027D3041F2244388600120D150C1F8E5
:104F20000CC070474FF4A851405C704741F2884272
:104F300000EB020C002200BF5CF822302BB10132E2
:104F4000192A04BF00207047F6E700EB820041F207
:104F50008843C150643201204A60704710B5D1F8CF
:104F600000E044F683334FEA5E2CC0F20403ACFB4E
:104F700003324CF6002CD309C3F69A3C046803FBB9
:104F80001CE304EBD21202600B6010BD80B500225E
:104F90000139026011F801CFD0F800E00CFA02F3F9
:104FA000083243EA0E03202A0360F3D180BD0000DB
:104FB0000138002221FA02F30832202A00F8013FCA
:104FC000F8D1704746F27C71C0F6000108310160EB
:104FD000704700000021C0E9001170470069704768
:104FE0000B7802464360487843EA002050608B7893
:104FF00040EA03405060CB7840EA03605060087993
:1050000090604B7940EA032090608B7940EA03403E
:105010009060C97940EA0161082091607047000002
:1050200000A07047636437313636633734633535F3
:10503000326333313166626363326665356137628C
:10504000633238390000000000A070477374645F59
:105050006D7367732F54696D6500000010B50446C9
:10506000FFF7B0FF46F29470C0F6000000F10801AF
:10507000204640F8041BFFF7ADFF204610BD00009E
:10508000F0B581B0074668460D46FFF77FFF0099EF
:10509000081D05280ED30099EC1C081D02460528A2
:1050A00098BF0522043A234613F8016F013A26708F
:1050B0001C46F9D129440022CA70E91C796001B06C
:1050C000F0BD000000A070473939326365386131A6
:1050D00036383763656338633862643838336563FC
:1050E00037336361343164310000000000A0704741
:1050F0007374645F6D7367732F537472696E6700A6
:105100000B7802464360487843EA002050608B7871
:1051100040EA03405060C97840EA016104205160D0
:105120007047000000A070473330346133393434A5
:1051300039353838633766386365326466366538C2
:1051400030303163356663650000000000A07047B1
:105150007374645F6D7367732F55496E74333200D7
:105160002DE9F04104464068884608706068000AEE
:105170004870E0888870E079C8706068C8B1002025
:105180006FF00301E26808EB010352F8202008EBFE
:105190008006170A1A727771170C120EB771DA723D
:1051A00062680130904201F10401EBD301F1080083
:1051B00000E00420216908F80010226908EB0001D2
:1051C000120A4A70628A8A70E27CCA7022695AB1F5
:1051D00000220023A7698E18BF5801337760276922
:1051E0000432BB42F6D31044E269011D08F80120E5
:1051F000E2694144120A4A70E28B00F108068A70A3
:10520000E27FCA70E169D1B1002500BF606A50F841
:105210002500FBF7E2F9074608EB06003946FFF7E1
:10522000C7FE606A043650F8251008EB06003A46BF
:10523000FBF7F2F9E069013585423E44E6D330469A
:10524000BDE8F081F0B581B0054600790E4606F85C
:10525000050BA8680C46FBF7C0F90746601C3946E9
:10526000FFF7A6FEA96830463A46FBF7D5F9781D48
:1052700001B0F0BD2DE9F041054600790C460870FB
:1052800068794870A868FBF7A8F90646A01C314663
:10529000FFF78EFEA968A01D3246FBF7BDF9E8684E
:1052A00006EB0408FBF799F9074608F106003946B2
:1052B000FFF77EFE0A36E968A0193A46FBF7ACF91B
:1052C00028693744FBF789F90646E0193146FFF7AC
:1052D0006FFE04372969E0193246FBF79DF9F11991
:1052E0006A69081D6250BDE8F081000042680A70DA
:1052F0004268120A4A70C2888A70C279CA7082688B
:105300000A718268120A4A7142898A71C27A082037
:10531000CA71704770B5044640680D46FBF75DF9E9
:10532000064628463146FFF743FE6168281D32468F
:10533000FBF772F9301D70BD42680A704268120AAC
:105340004A70C2888A70C2790420CA70704700000F
:10535000002848BF704700F01F01012202FA01F146
:105360004EF200124009CEF2000242F820107047BF
:105370004EF60C50CEF200000068C0F302207047D9
:105380004EF6145300F00F02CEF2000309011A4446
:1053900000F16043B0F1FF3FC8BF03F564421170F4
:1053A000704700004EF60C51CEF200010A684FF62D
:1053B000FF031A4060F30A2242F0806040F0FD7063
:1053C0000860704701A000F011F800BF50757265C9
:1053D000207669727475616C2066756E6374696F8E
:1053E0006E2063616C6C656421000000FBF75AFA63
:1053F00004EE102A05EE101AB8EE444AB8EE455AEB
:10540000002100F1500280ED0C5A0164C0EC030A47
:1054100080ED030A80ED044A416282EC042A80F8A0
:105420006030C0E91A1180F87010C1617047000047
:10543000F5EE400A80EC020AF1EE10FA80ED021A55
:1054400004BF002181627047FCF71CFBFEF7A4FC3F
:10545000FDF7A0FCFDF75CFCFDF71EFCFDF73AFC38
:10546000FDF72CFDFDF7ECFCFDF776FC00F05EF897
:10547000FEE70000B0F1840118BFC11C0846704768
:1054800010B582B040F24004C2F200042046FFF79B
:10549000AFFB41F27C51C2F200012046FFF728FD2C
:1054A00041F29051C2F200012046FFF73FFD42F267
:1054B0002C00C2F20000019044F2E5400124C0F645
:1054C000000010A14FF480720023009400F032FF1E
:1054D00041F6386C44F2C940C2F2000CC0F600003C
:1054E0000BA14FF4807200230094CDF804C000F0AB
:1054F00021FF41F69870C2F20000FCF7EFFE02B007
:1055000010BD00BF6C6F6F705F7461736B00000043
:105510006465616C5F7461736B00000080B5002886
:1055200008BF012000F0E0FC002080BD80B500F045
:10553000EBFD002080BD00002DE9F04385B04769F8
:105540000C46A7B1856995B1D0E90086D0F81090D6
:10555000B0F90800FFF78EFFCDE90007304641465D
:105560004A462346029500F019FF049013E0D0E963
:105570000056078AB0F90800FFF77CFF0DF1100C08
:105580000090304629463A462346CDF804C000F044
:10559000D1FE012803D1049805B0BDE8F0830020B6
:1055A00005B0BDE8F0830000F0B581B00D4646F2CD
:1055B0009C1142F2F816C2F20001C2F200060F6816
:1055C00031680446081D00F05BFB10B1601C0FD071
:1055D00019E0306845F6B062C06AC2F200020121EB
:1055E000136801FA00F023EA00001060601C0AD181
:1055F0004DB13068011D46F27410C2F2000000F097
:105600008DFB01B0F0BD3068E41944600AD342F26A
:105610000420C2F2000000683168043100F060FB31
:1056200001B0F0BD42F2FC10C2F200000068316827
:10563000043100F055FB46F24010C2F20000016850
:105640008C4238BF046001B0F0BD000070B5044664
:1056500000F07CFB45F6A060C2F20000016842F257
:10566000F81501310160C2F20005296846F268169A
:10567000C2F2000641B1306860B92868E16AC06AC8
:10568000884298BF2C6005E02C600068012801D199
:1056900000F00CF945F6AC60C2F20000016845F676
:1056A000B06201310160E06AC2F2000201211368B8
:1056B00081401943116042F2082100EB8000C2F2E0
:1056C000000101EB8000211D00F028FB00F062FBCF
:1056D000306880B12868E16AC06A884228BF70BD1E
:1056E0004EF60450CEF200004FF080510160BFF33F
:1056F0004F8FBFF36F8F70BDF0B581B045F6A465D5
:10570000C2F200052868E0B146F2881645F6A067A7
:10571000C2F20006C2F2000700F018FBF068C4688D
:10572000201D00F0ADFA386801383860286801386B
:10573000286000F02FFB204600F006F828680028BB
:10574000EAD101B0F0BD000010B5044690F8510058
:10575000022808BF10BD012803D030B9206B00F02B
:1057600031FB204600F02EFB10BD4FF0500080F3BF
:105770001188BFF36F8FBFF34F8F00BFFEE70000AC
:1057800042F29420C2F20000C21D22F0070210F083
:10579000070CA0EB020318BF104646F26C12C2F2CF
:1057A00000020021C2E900014FF47052BCF1000F69
:1057B00018BF03F570520244083A42F2002322F067
:1057C0000702C2F200031A60C2E90011111A1A6836
:1057D000C0E9002146F23C10C2F20000016045F62B
:1057E000E060C2F20000016045F6B460C2F2000061
:1057F000012101707047000042F208244EF6045562
:10580000C2F20004CEF200054FF08056FFF774FF9D
:1058100020680228FAD32E60BFF34F8FBFF36F8F3B
:10582000F4E700002DE9F047DDE909878246386B8F
:10583000089C00EB82000438994620F0070679B1F5
:1058400007F13400002200BF8B5C83548B5C1BB1DA
:105850000F2A02F10102F7D3002087F8430002E08B
:10586000002087F834000025381D062C28BF0624A8
:10587000FC62C7E9114500F02FFA07F1180000F0AB
:105880002BFA84F00700B861304651464A463F6122
:105890007F62FD6487F8505000F056F9B8F1000FB0
:1058A000386018BFC8F80070BDE8F087B0B542F2A4
:1058B00008250024C2F20005281900F001FA14346A
:1058C0008C2CF9D145F6B864C2F20004204600F0F1
:1058D000F7F945F6CC65C2F20005284600F0F0F96C
:1058E00046F25410C2F2000000F0EAF946F28810C5
:1058F000C2F2000000F0E4F946F27410C2F20000B7
:1059000000F0DEF942F2FC10C2F20000046042F244
:105910000420C2F200000560B0BD000080B546F270
:105920006C12C2F2000200BF114612688242FBD321
:10593000D1F804C001EB0C03834203D140686044FA
:1059400048600846D0F804C000EB0C03934201D035
:1059500013460BE042F20023C2F200031B689A4296
:1059600004D0D2E9003E0EEB0C024260814203609B
:1059700018BF086080BD000008480068006880F318
:1059800008884FF0000080F3148862B661B6BFF358
:105990004F8FBFF36F8F00DF00BF00BF08ED00E047
:1059A00042F2FC10C2F200000168096821B10068EF
:1059B000C068C068406801E04FF0FF3046F2401117
:1059C000C2F200010860704781B00020009041F2EF
:1059D000B450C2F2000000684FF0500181F311880A
:1059E000BFF36F8FBFF34F8F013001D0FEE700BFD1
:1059F00000980028FCD001B0704700002DE9F0436A
:105A000081B0044600F0C0FB42F20026C2F200065C
:105A10003068002808BFFFF7B3FE45F6B468C2F24D
:105A2000000898F80000002818BF4FF000402042FE
:105A30000DD0002400F0A6FD60071ED04FF05000EE
:105A400080F31188BFF36F8FBFF34F8FFEE7C4B1B0
:105A500014F0070004F108011EBF081A00F1080144
:105A60005FEA41700ED04FF0500080F31188BFF311
:105A70006F8FBFF34F8F00BFFEE7204601B0BDE838
:105A8000F083002145F6E069C2F20009D9F8000070
:105A90004A1E8242CDD246F26C10C2F20000056866
:105AA0002F4657F8042F8A4211D22B685BB100BFF2
:105AB0001F4657F8042F28461D468A4207D22B68F6
:105AC000002BF5D103E046F26C10C2F200003368FF
:105AD0009D42AED004682B68521A112A036010D37D
