:020000040800F2
:10000000800700202902000875140008B5130008B5
:1000100071140008210400082118000800000000E5
:10002000000000000000000000000000A91400080B
:10003000D104000800000000A5140008DD14000829
:10004000430200084302000843020008430200087C
:10005000430200084302000843020008430200086C
:10006000430200084302000843020008430200085C
:10007000430200084302000843020008430200084C
:100080002504000835040008430200084302000864
:10009000430200084302000843020008430200082C
:1000A000430200084302000843020008430200081C
:1000B000430200084302000843020008430200080C
:1000C00043020008430200084302000843020008FC
:1000D0004302000843020008111800084302000808
:1000E00043020008430200084302000843020008DC
:1000F00043020008430200084302000843020008CC
:1001000043020008430200084302000843020008BB
:1001100043020008430200084302000843020008AB
:10012000430200084302000843020008430200089B
:10013000430200084302000843020008430200088B
:10014000430200084302000843020008430200087B
:10015000430200084302000843020008430200086B
:10016000430200084302000843020008430200085B
:100170004302000843020008430200080000000098
:10018000430200084302000800F002F800F03CF8C7
:100190000AA090E8000C82448344AAF10107DA45E2
:1001A00001D100F031F8AFF2090EBAE80F0013F0F8
:1001B000010F18BFFB1A43F0010318472417000072
:1001C00044170000103A24BF78C878C1FAD8520703
:1001D00024BF30C830C144BF04680C6070470000C1
:1001E0000023002400250026103A28BF78C1FBD840
:1001F000520728BF30C148BF0B6070471FB501F0E0
:1002000056FB1FBD10B510BD00F0D0F81146FFF72A
:10021000F5FF01F041FB00F0EEF803B4FFF7F2FF49
:1002200003BC00F0F5F80000094880470948004782
:10023000FEE7FEE7FEE7FEE7FEE7FEE7FEE7FEE796
:10024000FEE7FEE704480549054A064B70470000F3
:100250008D1500088901000880010020800700201A
:10026000800300208003002053EA020C00F0698024
:100270002DE9F04B4FF00006002B1FBFB3FA83F5BA
:1002800003FA05F424FA05F65E4012BF1643B2FAEB
:1002900082F502FA05F4C5F120051EBF22FA05FC1D
:1002A00044EA0C04203556EA044C4FEA144418BFC3
:1002B000641C4FF000084FF00009904271EB030CF2
:1002C00039D3002919BFB1FA81F701FA07F6B0FA5C
:1002D00080F700FA07F6C7F120071EBF20FA07FCD7
:1002E00046EA0C062037B6FBF4FCA7EB0507103FE7
:1002F00007F01F0BCBF120062CFA06F60CFA0BFBCD
:1003000044BFB3460026202FA4BF5E464FF0000B2B
:100310005BEA060C08BF4FF0010B19EB0B0948EB29
:100320000608ABFB027C06FB02CC0BFB03CCC01B1C
:1003300071EB0C01C1E70B46024641464846BDE859
:10034000F08B13B5084318BF4FF0FF300146AFF3F1
:100350000080BDE81C4070474FF0000200B5134616
:1003600094469646203922BFA0E80C50A0E80C50D5
:10037000B1F12001BFF4F7AF090728BFA0E80C5086
:1003800048BF0CC05DF804EB890028BF40F8042B7F
:1003900008BF704748BF20F8022B11F0804F18BFEC
:1003A00000F8012B7047704770477047754600F0A2
:1003B0002BF8AE4605006946534620F007008546F7
:1003C00018B020B5FFF73EFFBDE820404FF0000613
:1003D0004FF000074FF000084FF0000BAC46ACE8C0
:1003E000C009ACE8C009ACE8C009ACE8C00921F01C
:1003F00007018D46704710B50446AFF300802046D4
:10040000BDE81040FFF709BF00487047100000200A
:1004100001491820ABBEFEE726000200704700002D
:10042000FEE7000080B540F27000C2F2000000F06C
:10043000A7F880BD80B540F2D000C2F2000000F005
:100440009FF880BDD0F800C06FF00F024AF6AB23D2
:1004500052FA8CF2CAF6AA230146A2FB0330000925
:1004600005A31B5C40F2FF302CEA00005F2A88BF26
:100470000430C1E916037047000610160006101676
:100480008269816AB2F5005F06D06AB9022912D08A
:10049000012914D0D1B90EE0032917D8DFE801F003
:1004A000020B020F0120704703293CBF0120704757
:1004B0001CBF00207047C06AC0F300607047C06A6C
:1004C000A0F1C070B0FA80F040097047002070477A
:1004D0007047000072B600BFFEE7000070B5866D81
:1004E000044600F049FA94F83510022925D1054652
:1004F0002068216C026822F016020260426922F034
:100500008002426109B9A16C19B1016821F00801AA
:100510000160016821F00101016000BF20680068EE
:10052000C0070ED000F028FA401B0628F6D3202082
:100530006065032084F835000CE0802060650120B0
:1005400008E0E06D3F2101FA00F0B060012084F87E
:1005500035000020002184F8341070BD90F835106B
:10056000022909D1052180F835100068016821F0C1
:100570000101016000207047802141650120704722
:10058000F0B581B004460020009040F20000C2F2B5
:1005900000000268D4E9166048F2B51337680821F4
:1005A000C1F64E3381403942A2FB03250CD02268AC
:1005B00013685B0708D5136823F004031360B16068
:1005C000616D41F00101616501218140394208D02E
:1005D00022685269120604D5B160616D41F00201D2
:1005E000616504218140394208D02268126892076F
:1005F00004D5B160616D41F0040161651021814055
:10060000394215D020680268120711D5B16002681E
:100610000168520306D4C90506D4016821F0080117
:10062000016001E0080342D4216C09B120468847EB
:10063000E16D202000FA01F23A4244D020680368BC
:10064000DB0640D5B26094F835300268052B1ED128
:1006500022F016020260426922F080024261226C9E
:100660000AB9A26C1AB1026822F0080202603F20A7
:100670008840B060012084F83500216D00200029F9
:1006800084F8340040D02046884701B0F0BD0168AE
:10069000520310D4C90512D4016821F01001016081
:1006A000012084F83500002084F8340007E0A16CB4
:1006B0000029BBD1BCE7080301D4616C00E0E16B09
:1006C00009B120468847606DF0B1606DC00717D052
:1006D000052084F835002068A90A026822F001028A
:1006E000026000BF009A01328A42009202D802687A
:1006F000D207F7D1012084F83500002084F83400B7
:10070000E16C09B12046884701B0F0BD2DE9F04108
:10071000044600F031F9C4B10546022084F83500E2
:100720000020216884F83400086820F00100086087
:1007300026683068C0070BD000F01EF9401B052862
:10074000F6D903212022032042E00120BDE8F081F8
:10075000306848F23F01CFF21001251D00EA010C7C
:100760002ECDD4E9050E41EA0C011143194329436A
:10077000D4E90778084340EA0E01606A3943042847
:1007800041EA080103D1D4E90B2311431943316035
:100790007169042821F0070141EA00050CD1D4E970
:1007A0000A1045EA010538B12046FFF769FE18B185
:1007B0000121402201200BE020467561FFF742FE37
:1007C000E16D3F2202FA01F1816000220121002047
:1007D000626584F83510BDE8F08100002DE9F04F26
:1007E00083B000F13E4202F1FF724FEAB22241F6BD
:1007F00000470192C4F2020708224FF0010E0025C3
:100800004FF0000A4FF00008B84208BF07220092DC
:100810000AE000BF08F101080AF1040AB8F1100F5C
:1008200005F1020500F0A4800C680EFA08FB14EA3A
:100830000B09EFD04C6804F0030CACF1010EBEF1D3
:10084000010F11D80322876802FA05F6CA68B74378
:10085000AA403A4382604268C4F3001722EA0B02BE
:1008600007FA08F73A434260BCF1030F1CD0C26894
:1008700003238E6803FA05F7BA4306FA05F73A43ED
:10088000BCF1020FC2600FD16FF0030202EA5802FE
:1008900002440AF01C060F23176A03FA06F40B69D8
:1008A000A743B3403B431362026803234F68AB4046
:1008B0009A4307F00303AB401A4317F4403F4FF04D
:1008C000010E0260A6D0002243F644030292C4F255
:1008D00002031A6843F6004442F480421A601A6820
:1008E000C4F2010402F480420292029A28F0030248
:1008F0004FF6084B2244CFF6FF7B52F80B300AF03C
:100900000C070F26BE4023EA060C019B009E072B16
:1009100038BF1E4606FA07F747EA0C0342F80B30C9
:10092000A2684B6842EA090743F60C4CDE0258BF46
:1009300022EA0907A760C4F2010CDCF800209E023D
:1009400042EA090758BF22EA0907CCF8007062683A
:100950009E0342EA090758BF22EA09076760226836
:10096000DB0342EA090358BF22EA0903236051E787
:1009700003B0BDE8F08F000040F27810C2F2000032
:100980000068704740F2040040F27811C2F20000A3
:10099000C2F2000100780A68104408607047000045
:1009A00080B543F60040C4F20200016841F40071D2
:1009B0000160016841F480610160016841F4807167
:1009C0000160032000F060F80F2000F005F800F04F
:1009D0002BF8002080BD0000B0B540F20402C2F246
:1009E000000240F200011278C2F200014FF47A7363
:1009F0000968B3FBF2F20446B1FBF2F1084600F0DD
:100A0000F9FA0F2C4FF001050CD858B94FF0FF3010
:100A100021460022002500F027F840F20800C2F22B
:100A2000000004602846B0BD82B0002043F64001BB
:100A30000190C4F202014A6842F480424A604A6866
:100A400002F480420192019A0090086840F08050C0
:100A50000860086800F080500090009802B070476D
:100A600080B500F0DFFE80BD70B514460D46064629
:100A700000F0E8FE2946224600F0FEFC0146304622
:100A800000F0E8FE70BD000080B500F0F5FE80BD0E
:100A90002DE9F041002800F08B8043F60808C4F2ED
:100AA00002080446D8F8F8030D4600F00700884213
:100AB00007D288F8F853D8F8F80300F00700A842E6
:100AC00076D12068810717D5410705D5D8F80010E1
:100AD00041F4E051C8F80010010705D5D8F800101E
:100AE00041F46041C8F80010D8F80010A26821F065
:100AF000F0011143C8F80010C0073FD1D8F8F8033F
:100B000000F00700A84207D988F8F853D8F8F8038E
:100B100000F00700A8424BD12068410707D5D8F85C
:100B20000010E26821F4E0511143C8F800100007FA
:100B300008D5D8F80000216920F4604040EAC100DF
:100B4000C8F8000000F07EF8D8F8001041F6C8029E
:100B5000C1F30311C0F60002515C40F2000220FA1A
:100B600001F140F20800C2F200000068C2F2000287
:100B70001160FFF731FF0020BDE8F0816068811E41
:100B8000022907D258F8081C89015CBF0120BDE882
:100B9000F08110E0012807D158F8081C89035CBFD8
:100BA0000120BDE8F08106E058F8081C890702D44E
:100BB0000120BDE8F081D8F8001021F003010843BE
:100BC000C8F80000FFF7D8FE064641F2883700BF9C
:100BD000D8F80000616800F00C00B0EB810F8DD0F8
:100BE000FFF7CAFE801BB842F2D90320BDE8F081AE
:100BF00040F20000C2F200000068704780B5FFF7C5
:100C0000F7FF43F60801C4F20201096841F6D80271
:100C1000C1F38221C0F60002515CC84080BD0000D3
:100C200080B5FFF7E5FF43F60801C4F20201096849
:100C300041F6D802C1F34231C0F60002515CC8400F
:100C400080BD000010B543F60404C4F202046068DD
:100C500000F00C0008280AD0042819BF42F2004016
:100C6000C0F2F40047F64000C0F27D1010BD2068CD
:100C700021682368490247F64001C0F27D1100F067
:100C80003F02C3F388105CBF42F20041C0F2F4019E
:100C9000A1FB00010023FFF7E7FA21680222C1F35C
:100CA000014102EB4101B0FBF1F010BD2DE9F04133
:100CB00082B0002800F0A2800446007843F60006C7
:100CC000C007C4F2020643D0B06800F00C0004284C
:100CD00005D1306880033BD56068C8BB8EE0B06842
:100CE00000F00C00082802D170684002F1D4656859
:100CF000B5F5A02F0AD0B5F5803F0BD0306820F4B1
:100D000080303060306820F4802006E0306840F4A5
:100D100080203060306840F480303060FFF72CFE77
:100D2000002D054611D000BF3068800310D4FFF7B6
:100D300023FE401B6428F7D922E100BFFFF71CFE09
:100D4000401B64284FF0030055D830688003F5D469
:100D5000207880071AD5B06810F00C0F09D0B06861
:100D600000F00C00082840F08A807068400200F112
:100D700086803068800702D5E06801283ED130685F
:100D8000216920F0F80040EAC100306020780007B7
:100D900038D4207840074CD4A5695DB3B06800F022
:100DA0000C00082840F09E80012D27D07068E16972
:100DB00000F480028A4221D1216A00F03F028A4277
:100DC0001CD147F6C071626A0140B1EB821F15D198
:100DD000A26A0023CFF6FF7303EBC23200F4403166
:100DE0006FF30F02914209D1E16A00F07060B0EB3D
:100DF000016F03D1002002B0BDE8F081012002B0F4
:100E0000BDE8F0816069002840F20000C4F247208C
:100E100057D00121C0F8801EFFF7AEFD054600BF88
:100E2000706F8007B5D4FFF7A7FD401B0228F7D9E4
:100E3000A6E0306C10F080580AD100200190306C90
:100E400040F080503064306C00F080500190019888
:100E500047F20007C4F200073868C00524D4386898
:100E600040F480703860FFF787FD05463868C0059C
:100E70001AD4FFF781FD401B0228F7D980E0E06813
:100E8000002851D00020C4F2472001210160FFF763
:100E900073FD0546306880073FF571AFFFF76CFDC5
:100EA000401B0228F6D96BE0A568052D50D0012D16
:100EB00052D0306F20F001003067306F20F0040016
:100EC0004DE00021C0F8801EFFF756FD054600BF2B
:100ED000706F80077FF55DAFFFF74EFD401B022866
:100EE000F6D94DE00027C4F2472700203866FFF707
:100EF00043FD022D05460BD13068800158D5FFF720
:100F00003BFD401B02284FF00300F5D973E700BFFB
:100F1000306880017FF56EAFFFF72EFD401B022881
:100F20004FF00300F4D966E70020C4F24720002107
:100F30000160FFF721FD0546306880077FF526AF89
:100F4000FFF71AFD401B02284FF00300F4D952E7C7
:100F5000306F40F004003067306F40F001003067C0
:100F6000FFF70AFD002D054641F2883714D000BF77
:100F7000306F800713D4FFF7FFFC401BB842F7D94E
:100F8000032002B0BDE8F081FFF7F6FC401BB84239
:100F90004FF003003FF62FAF306F8007F4D4B8F165
:100FA000000F7FF4F9AE306C20F080503064F3E62F
:100FB00004F11C052FCD08430021CFF6FF7140EA54
:100FC000821001EBC3316FF30F0140EA0560084363
:100FD000706001203866FFF7CFFC0446306880015E
:100FE0003FF508AFFFF7C8FC001B02284FF00300D5
:100FF000F4D900E780B500F059FA80BD70470000D1
:1010000070470000B0B582B0036804461868D9681C
:101010005A6900F02F05202D01F0200505D125B1DA
:10102000204600F0F9FA02B0B0BD5FEA007C1EBFB6
:1010300002F0010E01F4907212EB0E024AD1226B03
:101040000840C1063DD5012A3BD100200190186817
:1010500001905868019001985869400642D4A08DCB
:10106000E18DE28D002A1CBF401A5FEA004101D1E8
:1010700002B0B0BD216851E8031F226821F49071CD
:1010800042E80313002BF5D1216851E8051F2268BF
:1010900021F0010142E80513002BF5D1202184F84D
:1010A00042100021216300BF216851E8031F22681C
:1010B00021F0100142E80313002BF5D102216163F6
:1010C00054E0010658D44006D2D5204600F098FAE4
:1010D00002B0B0BDC20718BF11F4807251D14207EF
:1010E00055D45BE0E06B016849688AB2002ABFD042
:1010F000A38D9A42BCD2E185C069B0F5807F30D023
:10110000206850E8030F216820F4807041E8030252
:10111000002AF5D1206850E8050F216820F0010071
:1011200041E80502002AF5D1206850E8050F216842
:1011300020F0400041E80502002AF5D1202084F883
:1011400042000020206300BF206850E8030F2168A0
:1011500020F0100041E80302002AF5D1E06BFFF710
:10116000BDF902206063A08DE18D401A81B2204656
:10117000FFF744FF02B0B0BD204600F01FFB02B0F5
:10118000B0BD626C42F001026264420706D5BEF156
:10119000000F03D0626C42F002026264820706D53F
:1011A000BEF1000F03D0626C42F004026264BCF135
:1011B000000F06D55EEA050203D0626C42F0080219
:1011C0006264626C002A3FF453AF0840800602D587
:1011D000204600F021FA20684069616C00F0400070
:1011E00001F00801401827D0204600F0E1F92068FE
:1011F000406940061BD500BF206850E8050F2168F4
:1012000020F0400041E80502002AF5D1E06B70B102
:1012100041F2A151C0F600010165FFF79FF90028D6
:101220003FF426AFE06B016D884702B0B0BD2046A9
:10123000FFF7E6FE02B0B0BD2046FFF7E1FE00205A
:10124000606402B0B0BD0000002804BF01207047F8
:1012500010B5044690F8410028B9002084F84000F9
:10126000204600F021F8242084F841002068C1685D
:1012700021F40051C160204600F032FA2068016973
:1012800021F490410161416921F02A014161C16865
:1012900041F40051C16000202021606484F84110B5
:1012A00084F84210606310BD2DE9F04786B0044613
:1012B00044F200402168C4F20000002681420596F5
:1012C000CDE903660296019602D006B0BDE8F0872C
:1012D00043F630010096C4F202010A6946F288081A
:1012E00042F400320A610A6900F5DE3002F400328D
:1012F0000092009A00960A68C4F2020842F00102C5
:101300000A60096801F00101009100990C21019126
:101310000221CDE90216032104910721059101A9BB
:10132000FFF75CFA40F27005C2F200054FF0006A68
:101330004FF480694FF440372846C5E9008AC5E973
:101340000266C5E90496C5E90666C5E90876FFF7B1
:10135000DDF9002818BFFFF7BDF8E563AC6340F284
:10136000D00508F11800C2F200054021C5E9000AC5
:1013700005F10800002280E806022846C5E905229A
:10138000C5E907276A62FFF7C1F9002818BFFFF710
:10139000A1F8262000210022A563AC63FFF764FBBF
:1013A0002620FFF75DFB06B0BDE8F0877047000020
:1013B00070470000FEE7000080B582B00020019079
:1013C00043F63000C4F202000168002241F400112B
:1013D00001600068002100F40010019001981020C5
:1013E000FFF742FB1020FFF73BFB112000210022FA
:1013F000FFF73AFB1120FFF733FB02B080BD00007E
:1014000082B0002043F630010190C4F202010A6864
:1014100042F080020A600A6802F080020192019A9A
:101420000090086840F001000860086800F00100C2
:101430000090009802B0704780B540F2301044F23E
:101440000041C2F20000C4F2000100234FF00C0C76
:101450004FF4E13280E80E00C0E90333C0E905C370
:10146000C361FFF7F1FE002818BFFFF733F880BD16
:10147000FEE70000FEE7000000F0070080F0070331
:10148000042B28BF04234FF0FF3C03380CFA03F36E
:1014900038BF0020994381400CFA00F022EA000096
:1014A000084370477047000070470000B0B501382E
:1014B0000024B4EB106F1CBF0120B0BD4EF210052C
:1014C000CEF2000568604FF0FF300F2100F0C2F946
:1014D0000720AC6028602046B0BD000080B5FFF753
:1014E00051FA80BD70B592B006AC20463021FEF7AF
:1014F00033FF002543F640000595CDE90355CDE9BE
:1015000001550095C4F202000168022641F08051A5
:101510000160006800F080500090009847F20000E1
:101520000095C4F20000016841F480410160006848
:1015300000F4804000900098012006904FF4803025
:1015400007904FF480000D9019200E904FF4A87072
:10155000CDE90F060420119020460C96FFF7A6FB5C
:1015600088B90F20CDE901064FF4A05004904FF444
:101570008050059001A805210395FFF789FA0028FE
:1015800004BF12B070BDFEF7A5FF00004EF68850F4
:10159000CEF20000016841F4700101607047000064
:1015A00080B5806B0021C185C184FFF729FD80BD16
:1015B000016851E8031F026821F4907142E80313A7
:1015C000002BF5D1016851E8051F026821F00101E7
:1015D00042E80513002BF5D1016B01290AD100BFA8
:1015E000016851E8031F026821F0100142E803136B
:1015F000002BF5D1202180F84210002101637047B3
:1016000080B50168CA6822F04002CA60202180F8D3
:101610004110FFF7CDFE80BD80B582B090F842103A
:1016200022291ED18268B2F5805F02D101690029AA
:101630004AD0816AB2F5805F07D00AB9026922B147
:101640000268526802F07F0201E0026852680A7084
:101650000121826A11448162C18D01390A04C18568
:1016600001D002B080BD0168CA6822F02002CA60C1
:10167000CA6822F48072CA604A6922F001024A6193
:10168000202180F8421000214163026B012A23D1FE
:10169000016300BF016851E8031F026821F01001D7
:1016A00042E80313002BF5D101680A68D20606D57B
:1016B000002201920A680192496801910199818D85
:1016C000FFF79CFC02B080BD0168826A49686FF335
:1016D0005F2111800221BCE7FFF768FE02B080BDE8
:1016E00010B504460068D4E902C22369016921F4F7
:1016F000405111430161626943EA0C01E3691143FE
:10170000C268194349F20C639A431143C1604169AD
:10171000A26921F4407141F20043114340F4806218
:10172000C4F201039A42416102D1FFF779FA01E064
:10173000FFF764FAE16963681922B1F5004FA0FB75
:1017400002011CD15A00DB0FFEF78EFD48F21F513B
:10175000C5F2EB11A0FB01235A096FF0630302FBF2
:101760000300322303EBC000A0FB01014FF4F8702B
:1017700000EA111000EB0210C1F342111AE09A00C6
:101780009B0FFEF771FD48F21F51C5F2EB11A0FB54
:1017900001235A096FF0630302FB0300322303EBBA
:1017A0000010A0FB0101F02000EA511000EB021034
:1017B000C1F3431122680843906010BD90F84110B6
:1017C000212923D18168B1F5805F01D1016931B14F
:1017D000016A02684B1C03620978516007E0016AE4
:1017E000036831F8022B6FF35F225A600162C18CEB
:1017F00001390A04C18418BF70470068C16821F02C
:101800008001C160C16841F04001C16070470000C3
:1018100080B540F23010C2F20000FFF7F3FB80BD4C
:10182000FEE70000002848BF704700F01F010122BA
:1018300002FA01F14EF200124009CEF2000242F823
:10184000201070474EF60C50CEF200000068C0F336
:10185000022070474EF6145300F00F02CEF2000340
:1018600009011A4400F16043B0F1FF3FC8BF03F51E
:1018700064421170704700004EF60C51CEF2000128
:101880000A684FF6FF031A4060F30A2242F08060B4
:1018900040F0FD7008607047FFF782F8FFF722FE06
:1018A000FFF7AEFDFFF788FDFFF7C6FDFEE7F1EE9F
:1018B000100A4FF6FF71C0F2C03120EA010040F07B
:1018C0004070E1EE100A70470000000000000000C8
:1018D00001020304060708090000000001020304D6
:1018E000001900080000002010000000C4010008DA
:1018F000101900081000002070070000E001000827
:101900000024F400010000001000000000000000AE
:040000050800018965
:00000001FF
